{
  "_format": "hh-sol-artifact-1",
  "contractName": "PairFlash",
  "sourceName": "contracts/examples/PairFlash.sol",
  "abi": [
    {
      "inputs": [
        {
          "internalType": "contract ISwapRouter",
          "name": "_swapRouter",
          "type": "address"
        },
        {
          "internalType": "address",
          "name": "_factory",
          "type": "address"
        },
        {
          "internalType": "address",
          "name": "_WETH9",
          "type": "address"
        }
      ],
      "stateMutability": "nonpayable",
      "type": "constructor"
    },
    {
      "inputs": [],
      "name": "WETH9",
      "outputs": [
        {
          "internalType": "address",
          "name": "",
          "type": "address"
        }
      ],
      "stateMutability": "view",
      "type": "function"
    },
    {
      "inputs": [],
      "name": "factory",
      "outputs": [
        {
          "internalType": "address",
          "name": "",
          "type": "address"
        }
      ],
      "stateMutability": "view",
      "type": "function"
    },
    {
      "inputs": [
        {
          "components": [
            {
              "internalType": "address",
              "name": "token0",
              "type": "address"
            },
            {
              "internalType": "address",
              "name": "token1",
              "type": "address"
            },
            {
              "internalType": "uint24",
              "name": "fee1",
              "type": "uint24"
            },
            {
              "internalType": "uint256",
              "name": "amount0",
              "type": "uint256"
            },
            {
              "internalType": "uint256",
              "name": "amount1",
              "type": "uint256"
            },
            {
              "internalType": "uint24",
              "name": "fee2",
              "type": "uint24"
            },
            {
              "internalType": "uint24",
              "name": "fee3",
              "type": "uint24"
            }
          ],
          "internalType": "struct PairFlash.FlashParams",
          "name": "params",
          "type": "tuple"
        }
      ],
      "name": "initFlash",
      "outputs": [],
      "stateMutability": "nonpayable",
      "type": "function"
    },
    {
      "inputs": [],
      "name": "refundETH",
      "outputs": [],
      "stateMutability": "payable",
      "type": "function"
    },
    {
      "inputs": [],
      "name": "swapRouter",
      "outputs": [
        {
          "internalType": "contract ISwapRouter",
          "name": "",
          "type": "address"
        }
      ],
      "stateMutability": "view",
      "type": "function"
    },
    {
      "inputs": [
        {
          "internalType": "address",
          "name": "token",
          "type": "address"
        },
        {
          "internalType": "uint256",
          "name": "amountMinimum",
          "type": "uint256"
        },
        {
          "internalType": "address",
          "name": "recipient",
          "type": "address"
        }
      ],
      "name": "sweepToken",
      "outputs": [],
      "stateMutability": "payable",
      "type": "function"
    },
    {
      "inputs": [
        {
          "internalType": "uint256",
          "name": "fee0",
          "type": "uint256"
        },
        {
          "internalType": "uint256",
          "name": "fee1",
          "type": "uint256"
        },
        {
          "internalType": "bytes",
          "name": "data",
          "type": "bytes"
        }
      ],
      "name": "uniswapV3FlashCallback",
      "outputs": [],
      "stateMutability": "nonpayable",
      "type": "function"
    },
    {
      "inputs": [
        {
          "internalType": "uint256",
          "name": "amountMinimum",
          "type": "uint256"
        },
        {
          "internalType": "address",
          "name": "recipient",
          "type": "address"
        }
      ],
      "name": "unwrapWETH9",
      "outputs": [],
      "stateMutability": "payable",
      "type": "function"
    },
    {
      "stateMutability": "payable",
      "type": "receive"
    }
  ],
  "bytecode": "0x60e06040523480156200001157600080fd5b506040516200161c3803806200161c83398101604081905262000034916200005c565b6001600160601b0319606092831b811660805290821b811660a05291901b1660c052620000c8565b60008060006060848603121562000071578283fd5b83516200007e81620000af565b60208501519093506200009181620000af565b6040850151909250620000a481620000af565b809150509250925092565b6001600160a01b0381168114620000c557600080fd5b50565b60805160601c60a05160601c60c05160601c6114e362000139600039806104b85280610651528061067e528061078d5280610815525080608f528061031c528061040752806104945280610db55280610dfb5280610e6f52508061021252806104dc52806105f152506114e36000f3fe60806040526004361061007f5760003560e01c8063c31c9c071161004e578063c31c9c071461015a578063c45a01551461016f578063df2ab5bb14610184578063e9cbafb014610197576100ef565b806312210e8a146100f45780632384463b146100fc57806349404b7c1461011c5780634aa4a4fc1461012f576100ef565b366100ef57336001600160a01b037f000000000000000000000000000000000000000000000000000000000000000016146100ed576040805162461bcd60e51b81526020600482015260096024820152684e6f7420574554483960b81b604482015290519081900360640190fd5b005b600080fd5b6100ed6101b7565b34801561010857600080fd5b506100ed6101173660046111de565b6101c9565b6100ed61012a366004611291565b610318565b34801561013b57600080fd5b50610144610492565b6040516101519190611340565b60405180910390f35b34801561016657600080fd5b506101446104b6565b34801561017b57600080fd5b506101446104da565b6100ed6101923660046110c5565b6104fe565b3480156101a357600080fd5b506100ed6101b23660046112bc565b6105dc565b47156101c7576101c73347610912565b565b6000604051806060016040528083600001516001600160a01b0316815260200183602001516001600160a01b03168152602001836040015162ffffff16815250905060006102377f000000000000000000000000000000000000000000000000000000000000000083610a01565b9050806001600160a01b031663490e6cbc30856060015186608001516040518060c001604052808960600151815260200189608001518152602001336001600160a01b031681526020018881526020018960a0015162ffffff1681526020018960c0015162ffffff168152506040516020016102b3919061142e565b6040516020818303038152906040526040518563ffffffff1660e01b81526004016102e19493929190611354565b600060405180830381600087803b1580156102fb57600080fd5b505af115801561030f573d6000803e3d6000fd5b50505050505050565b60007f00000000000000000000000000000000000000000000000000000000000000006001600160a01b03166370a08231306040518263ffffffff1660e01b815260040180826001600160a01b0316815260200191505060206040518083038186803b15801561038757600080fd5b505afa15801561039b573d6000803e3d6000fd5b505050506040513d60208110156103b157600080fd5b50519050828110156103ff576040805162461bcd60e51b8152602060048201526012602482015271496e73756666696369656e7420574554483960701b604482015290519081900360640190fd5b801561048d577f00000000000000000000000000000000000000000000000000000000000000006001600160a01b0316632e1a7d4d826040518263ffffffff1660e01b815260040180828152602001915050600060405180830381600087803b15801561046b57600080fd5b505af115801561047f573d6000803e3d6000fd5b5050505061048d8282610912565b505050565b7f000000000000000000000000000000000000000000000000000000000000000081565b7f000000000000000000000000000000000000000000000000000000000000000081565b7f000000000000000000000000000000000000000000000000000000000000000081565b6000836001600160a01b03166370a08231306040518263ffffffff1660e01b815260040180826001600160a01b0316815260200191505060206040518083038186803b15801561054d57600080fd5b505afa158015610561573d6000803e3d6000fd5b505050506040513d602081101561057757600080fd5b50519050828110156105c5576040805162461bcd60e51b815260206004820152601260248201527124b739bab33334b1b4b2b73a103a37b5b2b760711b604482015290519081900360640190fd5b80156105d6576105d6848383610ae5565b50505050565b60006105ea82840184611100565b905061061a7f00000000000000000000000000000000000000000000000000000000000000008260600151610c33565b506060810151805160209091015182516000906106379089610c5c565b90506000610649856020015189610c5c565b905061067a837f00000000000000000000000000000000000000000000000000000000000000008760200151610c6c565b60007f00000000000000000000000000000000000000000000000000000000000000006001600160a01b031663414bf389604051806101000160405280876001600160a01b03168152602001886001600160a01b03168152602001896080015162ffffff168152602001306001600160a01b031681526020014281526020018960200151815260200186815260200160006001600160a01b03168152506040518263ffffffff1660e01b815260040161073391906113c5565b602060405180830381600087803b15801561074d57600080fd5b505af1158015610761573d6000803e3d6000fd5b505050506040513d601f19601f820116820180604052508101906107859190611279565b90506107b6857f00000000000000000000000000000000000000000000000000000000000000008860000151610c6c565b60408051610100810182526001600160a01b038781168252868116602083015260a08981015162ffffff168385015230606084015242608084015289519083015260c08201859052600060e08301819052925163414bf38960e01b81527f00000000000000000000000000000000000000000000000000000000000000009091169163414bf3899161084b91906004016113c5565b602060405180830381600087803b15801561086557600080fd5b505af1158015610879573d6000803e3d6000fd5b505050506040513d601f19601f8201168201806040525081019061089d9190611279565b905083156108b1576108b186303387610db3565b82156108c3576108c385303386610db3565b838211156108e457600084830390506108e287308a6040015184610db3565b505b82811115610905576000838203905061090386308a6040015184610db3565b505b5050505050505050505050565b604080516000808252602082019092526001600160a01b0384169083906040518082805190602001908083835b6020831061095e5780518252601f19909201916020918201910161093f565b6001836020036101000a03801982511681845116808217855250505050505090500191505060006040518083038185875af1925050503d80600081146109c0576040519150601f19603f3d011682016040523d82523d6000602084013e6109c5565b606091505b505090508061048d576040805162461bcd60e51b815260206004820152600360248201526253544560e81b604482015290519081900360640190fd5b600081602001516001600160a01b031682600001516001600160a01b031610610a2957600080fd5b50805160208083015160409384015184516001600160a01b0394851681850152939091168385015262ffffff166060808401919091528351808403820181526080840185528051908301206001600160f81b031960a085015294901b6bffffffffffffffffffffffff191660a183015260b58201939093527fa5be2e73ac2eac00022ab07a5182612dbc5a58bfb6b1e16284b56e7650eb41a160d5808301919091528251808303909101815260f5909101909152805191012090565b604080516001600160a01b038481166024830152604480830185905283518084039091018152606490920183526020820180516001600160e01b031663a9059cbb60e01b1781529251825160009485949389169392918291908083835b60208310610b615780518252601f199092019160209182019101610b42565b6001836020036101000a0380198251168184511680821785525050505050509050019150506000604051808303816000865af19150503d8060008114610bc3576040519150601f19603f3d011682016040523d82523d6000602084013e610bc8565b606091505b5091509150818015610bf6575080511580610bf65750808060200190516020811015610bf357600080fd5b50515b610c2c576040805162461bcd60e51b815260206004820152600260248201526114d560f21b604482015290519081900360640190fd5b5050505050565b6000610c3f8383610a01565b9050336001600160a01b03821614610c5657600080fd5b92915050565b80820182811015610c5657600080fd5b604080516001600160a01b038481166024830152604480830185905283518084039091018152606490920183526020820180516001600160e01b031663095ea7b360e01b1781529251825160009485949389169392918291908083835b60208310610ce85780518252601f199092019160209182019101610cc9565b6001836020036101000a0380198251168184511680821785525050505050509050019150506000604051808303816000865af19150503d8060008114610d4a576040519150601f19603f3d011682016040523d82523d6000602084013e610d4f565b606091505b5091509150818015610d7d575080511580610d7d5750808060200190516020811015610d7a57600080fd5b50515b610c2c576040805162461bcd60e51b8152602060048201526002602482015261534160f01b604482015290519081900360640190fd5b7f00000000000000000000000000000000000000000000000000000000000000006001600160a01b0316846001600160a01b0316148015610df45750804710155b15610f16577f00000000000000000000000000000000000000000000000000000000000000006001600160a01b031663d0e30db0826040518263ffffffff1660e01b81526004016000604051808303818588803b158015610e5457600080fd5b505af1158015610e68573d6000803e3d6000fd5b50505050507f00000000000000000000000000000000000000000000000000000000000000006001600160a01b031663a9059cbb83836040518363ffffffff1660e01b815260040180836001600160a01b0316815260200182815260200192505050602060405180830381600087803b158015610ee457600080fd5b505af1158015610ef8573d6000803e3d6000fd5b505050506040513d6020811015610f0e57600080fd5b506105d69050565b6001600160a01b038316301415610f3757610f32848383610ae5565b6105d6565b6105d684848484604080516001600160a01b0385811660248301528481166044830152606480830185905283518084039091018152608490920183526020820180516001600160e01b03166323b872dd60e01b178152925182516000948594938a169392918291908083835b60208310610fc25780518252601f199092019160209182019101610fa3565b6001836020036101000a0380198251168184511680821785525050505050509050019150506000604051808303816000865af19150503d8060008114611024576040519150601f19603f3d011682016040523d82523d6000602084013e611029565b606091505b5091509150818015611057575080511580611057575080806020019051602081101561105457600080fd5b50515b61108e576040805162461bcd60e51b815260206004820152600360248201526229aa2360e91b604482015290519081900360640190fd5b505050505050565b80356001600160a01b03811681146110ad57600080fd5b919050565b803562ffffff811681146110ad57600080fd5b6000806000606084860312156110d9578283fd5b6110e284611096565b9250602084013591506110f760408501611096565b90509250925092565b6000818303610100811215611113578182fd5b6040805160c0810167ffffffffffffffff828210818311171561113257fe5b818452863583526020870135602084015261114e848801611096565b838501526060605f1986011215611163578586fd5b83519450606085019150848210818311171561117b57fe5b50825261118a60608601611096565b835261119860808601611096565b60208401526111a960a086016110b2565b828401528260608201526111bf60c086016110b2565b60808201526111d060e086016110b2565b60a082015295945050505050565b600060e082840312156111ef578081fd5b60405160e0810181811067ffffffffffffffff8211171561120c57fe5b60405261121883611096565b815261122660208401611096565b6020820152611237604084016110b2565b6040820152606083013560608201526080830135608082015261125c60a084016110b2565b60a082015261126d60c084016110b2565b60c08201529392505050565b60006020828403121561128a578081fd5b5051919050565b600080604083850312156112a3578182fd5b823591506112b360208401611096565b90509250929050565b600080600080606085870312156112d1578081fd5b8435935060208501359250604085013567ffffffffffffffff808211156112f6578283fd5b818701915087601f830112611309578283fd5b813581811115611317578384fd5b886020828501011115611328578384fd5b95989497505060200194505050565b62ffffff169052565b6001600160a01b0391909116815260200190565b600060018060a01b038616825260208581840152846040840152608060608401528351806080850152825b8181101561139b5785810183015185820160a00152820161137f565b818111156113ac578360a083870101525b50601f01601f19169290920160a0019695505050505050565b81516001600160a01b03908116825260208084015182169083015260408084015162ffffff16908301526060808401518216908301526080808401519083015260a0838101519083015260c0808401519083015260e09283015116918101919091526101000190565b81518152602080830151818301526040808401516001600160a01b03908116828501526060808601518051831691860191909152928301511660808085019190915291015162ffffff1660a083015282015161010082019061149360c0840182611337565b5060a08301516114a660e0840182611337565b509291505056fea2646970667358221220e14423bace0ccb8234db2c67b7832cc532836a31596ef5f1007470ee4c17e6f064736f6c63430007060033",
  "linkReferences": {},
  "deployedLinkReferences": {}
}