{
  "_format": "hh-sol-artifact-1",
  "contractName": "NFTDescriptorTest",
  "sourceName": "contracts/test/NFTDescriptorTest.sol",
  "abi": [
    {
      "inputs": [
        {
          "internalType": "address",
          "name": "_address",
          "type": "address"
        }
      ],
      "name": "addressToString",
      "outputs": [
        {
          "internalType": "string",
          "name": "",
          "type": "string"
        }
      ],
      "stateMutability": "pure",
      "type": "function"
    },
    {
      "inputs": [
        {
          "components": [
            {
              "internalType": "uint256",
              "name": "tokenId",
              "type": "uint256"
            },
            {
              "internalType": "address",
              "name": "quoteTokenAddress",
              "type": "address"
            },
            {
              "internalType": "address",
              "name": "baseTokenAddress",
              "type": "address"
            },
            {
              "internalType": "string",
              "name": "quoteTokenSymbol",
              "type": "string"
            },
            {
              "internalType": "string",
              "name": "baseTokenSymbol",
              "type": "string"
            },
            {
              "internalType": "uint8",
              "name": "quoteTokenDecimals",
              "type": "uint8"
            },
            {
              "internalType": "uint8",
              "name": "baseTokenDecimals",
              "type": "uint8"
            },
            {
              "internalType": "bool",
              "name": "flipRatio",
              "type": "bool"
            },
            {
              "internalType": "int24",
              "name": "tickLower",
              "type": "int24"
            },
            {
              "internalType": "int24",
              "name": "tickUpper",
              "type": "int24"
            },
            {
              "internalType": "int24",
              "name": "tickCurrent",
              "type": "int24"
            },
            {
              "internalType": "int24",
              "name": "tickSpacing",
              "type": "int24"
            },
            {
              "internalType": "uint24",
              "name": "fee",
              "type": "uint24"
            },
            {
              "internalType": "address",
              "name": "poolAddress",
              "type": "address"
            }
          ],
          "internalType": "struct NFTDescriptor.ConstructTokenURIParams",
          "name": "params",
          "type": "tuple"
        }
      ],
      "name": "constructTokenURI",
      "outputs": [
        {
          "internalType": "string",
          "name": "",
          "type": "string"
        }
      ],
      "stateMutability": "pure",
      "type": "function"
    },
    {
      "inputs": [
        {
          "internalType": "uint24",
          "name": "fee",
          "type": "uint24"
        }
      ],
      "name": "feeToPercentString",
      "outputs": [
        {
          "internalType": "string",
          "name": "",
          "type": "string"
        }
      ],
      "stateMutability": "pure",
      "type": "function"
    },
    {
      "inputs": [
        {
          "internalType": "uint160",
          "name": "sqrtRatioX96",
          "type": "uint160"
        },
        {
          "internalType": "uint8",
          "name": "token0Decimals",
          "type": "uint8"
        },
        {
          "internalType": "uint8",
          "name": "token1Decimals",
          "type": "uint8"
        }
      ],
      "name": "fixedPointToDecimalString",
      "outputs": [
        {
          "internalType": "string",
          "name": "",
          "type": "string"
        }
      ],
      "stateMutability": "pure",
      "type": "function"
    },
    {
      "inputs": [
        {
          "components": [
            {
              "internalType": "uint256",
              "name": "tokenId",
              "type": "uint256"
            },
            {
              "internalType": "address",
              "name": "quoteTokenAddress",
              "type": "address"
            },
            {
              "internalType": "address",
              "name": "baseTokenAddress",
              "type": "address"
            },
            {
              "internalType": "string",
              "name": "quoteTokenSymbol",
              "type": "string"
            },
            {
              "internalType": "string",
              "name": "baseTokenSymbol",
              "type": "string"
            },
            {
              "internalType": "uint8",
              "name": "quoteTokenDecimals",
              "type": "uint8"
            },
            {
              "internalType": "uint8",
              "name": "baseTokenDecimals",
              "type": "uint8"
            },
            {
              "internalType": "bool",
              "name": "flipRatio",
              "type": "bool"
            },
            {
              "internalType": "int24",
              "name": "tickLower",
              "type": "int24"
            },
            {
              "internalType": "int24",
              "name": "tickUpper",
              "type": "int24"
            },
            {
              "internalType": "int24",
              "name": "tickCurrent",
              "type": "int24"
            },
            {
              "internalType": "int24",
              "name": "tickSpacing",
              "type": "int24"
            },
            {
              "internalType": "uint24",
              "name": "fee",
              "type": "uint24"
            },
            {
              "internalType": "address",
              "name": "poolAddress",
              "type": "address"
            }
          ],
          "internalType": "struct NFTDescriptor.ConstructTokenURIParams",
          "name": "params",
          "type": "tuple"
        }
      ],
      "name": "generateSVGImage",
      "outputs": [
        {
          "internalType": "string",
          "name": "",
          "type": "string"
        }
      ],
      "stateMutability": "pure",
      "type": "function"
    },
    {
      "inputs": [
        {
          "components": [
            {
              "internalType": "uint256",
              "name": "tokenId",
              "type": "uint256"
            },
            {
              "internalType": "address",
              "name": "quoteTokenAddress",
              "type": "address"
            },
            {
              "internalType": "address",
              "name": "baseTokenAddress",
              "type": "address"
            },
            {
              "internalType": "string",
              "name": "quoteTokenSymbol",
              "type": "string"
            },
            {
              "internalType": "string",
              "name": "baseTokenSymbol",
              "type": "string"
            },
            {
              "internalType": "uint8",
              "name": "quoteTokenDecimals",
              "type": "uint8"
            },
            {
              "internalType": "uint8",
              "name": "baseTokenDecimals",
              "type": "uint8"
            },
            {
              "internalType": "bool",
              "name": "flipRatio",
              "type": "bool"
            },
            {
              "internalType": "int24",
              "name": "tickLower",
              "type": "int24"
            },
            {
              "internalType": "int24",
              "name": "tickUpper",
              "type": "int24"
            },
            {
              "internalType": "int24",
              "name": "tickCurrent",
              "type": "int24"
            },
            {
              "internalType": "int24",
              "name": "tickSpacing",
              "type": "int24"
            },
            {
              "internalType": "uint24",
              "name": "fee",
              "type": "uint24"
            },
            {
              "internalType": "address",
              "name": "poolAddress",
              "type": "address"
            }
          ],
          "internalType": "struct NFTDescriptor.ConstructTokenURIParams",
          "name": "params",
          "type": "tuple"
        }
      ],
      "name": "getGasCostOfConstructTokenURI",
      "outputs": [
        {
          "internalType": "uint256",
          "name": "",
          "type": "uint256"
        }
      ],
      "stateMutability": "view",
      "type": "function"
    },
    {
      "inputs": [
        {
          "internalType": "uint256",
          "name": "tokenId",
          "type": "uint256"
        },
        {
          "internalType": "address",
          "name": "poolAddress",
          "type": "address"
        }
      ],
      "name": "isRare",
      "outputs": [
        {
          "internalType": "bool",
          "name": "",
          "type": "bool"
        }
      ],
      "stateMutability": "pure",
      "type": "function"
    },
    {
      "inputs": [
        {
          "internalType": "int24",
          "name": "tickLower",
          "type": "int24"
        },
        {
          "internalType": "int24",
          "name": "tickUpper",
          "type": "int24"
        }
      ],
      "name": "rangeLocation",
      "outputs": [
        {
          "internalType": "string",
          "name": "",
          "type": "string"
        },
        {
          "internalType": "string",
          "name": "",
          "type": "string"
        }
      ],
      "stateMutability": "pure",
      "type": "function"
    },
    {
      "inputs": [
        {
          "internalType": "address",
          "name": "token",
          "type": "address"
        },
        {
          "internalType": "uint256",
          "name": "offset",
          "type": "uint256"
        }
      ],
      "name": "sliceTokenHex",
      "outputs": [
        {
          "internalType": "uint256",
          "name": "",
          "type": "uint256"
        }
      ],
      "stateMutability": "pure",
      "type": "function"
    },
    {
      "inputs": [
        {
          "internalType": "int24",
          "name": "tick",
          "type": "int24"
        },
        {
          "internalType": "int24",
          "name": "tickSpacing",
          "type": "int24"
        },
        {
          "internalType": "uint8",
          "name": "token0Decimals",
          "type": "uint8"
        },
        {
          "internalType": "uint8",
          "name": "token1Decimals",
          "type": "uint8"
        },
        {
          "internalType": "bool",
          "name": "flipRatio",
          "type": "bool"
        }
      ],
      "name": "tickToDecimalString",
      "outputs": [
        {
          "internalType": "string",
          "name": "",
          "type": "string"
        }
      ],
      "stateMutability": "pure",
      "type": "function"
    },
    {
      "inputs": [
        {
          "internalType": "address",
          "name": "token",
          "type": "address"
        },
        {
          "internalType": "uint256",
          "name": "offset",
          "type": "uint256"
        }
      ],
      "name": "tokenToColorHex",
      "outputs": [
        {
          "internalType": "string",
          "name": "",
          "type": "string"
        }
      ],
      "stateMutability": "pure",
      "type": "function"
    }
  ],
  "bytecode": "0x608060405234801561001057600080fd5b50615aa0806100206000396000f3fe608060405234801561001057600080fd5b50600436106100a95760003560e01c8063d5c0bdd811610071578063d5c0bdd81461013e578063d6986d4514610151578063e1649fcf14610164578063e738690614610177578063ea4d3bcd14610197578063f93a7911146101aa576100a9565b80632fa2af10146100ae5780633a0cdee2146100d85780635e57966d146100f8578063854924ab1461010b5780639288c2181461012b575b600080fd5b6100c16100bc366004613b02565b6101bd565b6040516100cf929190613ed1565b60405180910390f35b6100eb6100e6366004613ad7565b6101d6565b6040516100cf9190613ebe565b6100eb610106366004613abb565b6101f4565b61011e610119366004613c02565b610207565b6040516100cf919061408f565b6100eb610139366004613b34565b6102a3565b6100eb61014c366004613da6565b6102be565b61011e61015f366004613ad7565b6102d5565b6100eb610172366004613c3b565b6102ea565b61018a610185366004613e04565b6102f5565b6040516100cf9190613eb3565b6100eb6101a5366004613dea565b610301565b6100eb6101b8366004613c02565b61030c565b6060806101ca848461039a565b915091505b9250929050565b60606101eb836001600160a01b0316836106a6565b90505b92915050565b60606101ff826106b5565b90505b919050565b6000805a60405163c49917d760e01b815290915073__$cea9be979eee3d87fb124d6cbb244bb0b5$__9063c49917d790610245908690600401613ef6565b60006040518083038186803b15801561025d57600080fd5b505af4158015610271573d6000803e3d6000fd5b505050506040513d6000823e601f3d908101601f191682016040526102999190810190613b98565b505a900392915050565b60606102b286868686866106cb565b90505b95945050505050565b60606102cb8484846107e0565b90505b9392505050565b60006101eb836001600160a01b0316836109a6565b60606101ff826109ad565b60006101eb8383610be8565b60606101ff82610c4b565b60405163c49917d760e01b815260609073__$cea9be979eee3d87fb124d6cbb244bb0b5$__9063c49917d790610346908590600401613ef6565b60006040518083038186803b15801561035e57600080fd5b505af4158015610372573d6000803e3d6000fd5b505050506040513d6000823e601f3d908101601f191682016040526101ff9190810190613b98565b60608060006002858501810b0590506201e847198160020b12156103f657604051806040016040528060018152602001600760fb1b815250604051806040016040528060018152602001603760f81b81525092509250506101cf565b620124f7198160020b121561044657604051806040016040528060018152602001600760fb1b8152506040518060400160405280600481526020016331302e3560e01b81525092509250506101cf565b6161a7198160020b121561049657604051806040016040528060018152602001600760fb1b8152506040518060400160405280600581526020016431342e323560d81b81525092509250506101cf565b611387198160020b12156104e45760405180604001604052806002815260200161031360f41b81525060405180604001604052806002815260200161062760f31b81525092509250506101cf565b60008160020b12156105305760405180604001604052806002815260200161313160f01b81525060405180604001604052806002815260200161323160f01b81525092509250506101cf565b6113888160020b121561057d5760405180604001604052806002815260200161313360f01b81525060405180604001604052806002815260200161323360f01b81525092509250506101cf565b6161a88160020b12156105ca5760405180604001604052806002815260200161313560f01b81525060405180604001604052806002815260200161323560f01b81525092509250506101cf565b620124f88160020b12156106185760405180604001604052806002815260200161062760f31b81525060405180604001604052806002815260200161191b60f11b81525092509250506101cf565b6201e8488160020b12156106665760405180604001604052806002815260200161323160f01b81525060405180604001604052806002815260200161323760f01b81525092509250506101cf565b604051806040016040528060028152602001610c8d60f21b81525060405180604001604052806002815260200161323760f01b81525092509250506101cf565b60606101eb83831c6003610e8b565b60606101ff6001600160a01b0383166014610f45565b606084600281900b620d89e719816106df57fe5b050260020b8660020b1415610739578115610715576040518060400160405280600381526020016209a82b60eb1b815250610732565b6040518060400160405280600381526020016226a4a760e91b8152505b90506102b5565b84600281900b620d89e88161074a57fe5b050260020b8660020b14156107a0578115610780576040518060400160405280600381526020016226a4a760e91b815250610732565b5060408051808201909152600381526209a82b60eb1b60208201526102b5565b60006107ab876110a4565b905082156107cd576107ca600160c01b6001600160a01b0383166113d6565b90505b6107d88186866107e0565b9150506102b5565b606060006107ef85858561143d565b905060006108028283600160401b61153f565b9050600160601b8210801561083a576108338272047bf19673df52e37f2410011d100000000000600160801b61153f565b915061084f565b61084c82620186a0600160801b61153f565b91505b8160005b811561086757600101600a82049150610853565b6000190160008061087886846115ee565b915091508015610889576001909201915b6108916139d5565b8515610904576108b06108a8602b60ff871661165a565b6007906116b7565b60ff9081166020830152600260808301526108dc906001906108d690602b90881661165a565b906116b7565b60ff90811660a083015260208201516108f79116600161165a565b60ff16604082015261097b565b60098460ff161061094d5761091d60ff8516600461165a565b60ff16602082018190526005608083015261093990600161165a565b60ff1660a08201526004604082015261097b565b60066020820152600560408201819052610972906001906108d69060ff88169061165a565b60ff1660608201525b82815285151560c0820152600060e082015261099681611711565b9c9b505050505050505050505050565b1c60ff1690565b60606000604051806102a001604052806109ca85602001516106b5565b81526020016109dc85604001516106b5565b8152602001846101a001516001600160a01b031681526020018460600151815260200184608001518152602001610a17856101800151610c4b565b815260200184610100015160020b815260200184610120015160020b815260200184610160015160020b8152602001610a60856101000151866101200151876101400151611921565b60000b815260200184600001518152602001610a8a85602001516001600160a01b031660886106a6565b8152602001610aa785604001516001600160a01b031660886106a6565b8152602001610ac485602001516001600160a01b031660006106a6565b8152602001610ae185604001516001600160a01b031660006106a6565b8152602001610b14610b0686602001516001600160a01b031660108860000151611958565b600060ff6010610112611978565b8152602001610b47610b3986604001516001600160a01b031660108860000151611958565b600060ff60646101e4611978565b8152602001610b6c610b0686602001516001600160a01b031660208860000151611958565b8152602001610b91610b3986604001516001600160a01b031660208860000151611958565b8152602001610bb6610b0686602001516001600160a01b031660308860000151611958565b8152602001610bdb610b3986604001516001600160a01b031660308860000151611958565b905290506102ce816119b6565b6040805160208082018590526bffffffffffffffffffffffff19606085901b16828401528251603481840301815260549092019092528051910120600090610c2f84611c2e565b60020260010160ff1660001981610c4257fe5b04119392505050565b606062ffffff8216610c765750604080518082019091526002815261302560f01b6020820152610202565b816000805b62ffffff831615610cc65760ff811615610c9757600101610cb0565b600a62ffffff84160662ffffff16600014610cb0576001015b600190910190600a62ffffff8416049250610c7b565b610cce6139d5565b600060058410610dbd5760006004610ce98660ff871661165a565b1015610cf6576001610cf9565b60005b60ff9081169150610d0d908516600161165a565b610d1886600561165a565b10610d4457610d3f610d2e60ff8616600161165a565b610d3987600561165a565b9061165a565b610d47565b60005b60ff851660808501819052909250610d6690600190610d3990856116b7565b60ff90811660a08501526080840151610d879183916108d69116600161165a565b60ff9081166040850152610daf9082906108d690610da890881660016116b7565b85906116b7565b60ff16602084015250610e2d565b610dc860058561165a565b600260808401819052909150610de690600190610d399084906116b7565b60ff90811660a0840152610e0890610e0190851660026116b7565b82906116b7565b60ff1660208301819052610e1d90600261165a565b60ff166040830152600160c08301525b610e4c610e3d8560ff861661165a565b62ffffff891690600a0a6113d6565b8252600160e083015260048411610e64576000610e6f565b610e6f84600461165a565b60ff166060830152610e8082611711565b979650505050505050565b606060008260020267ffffffffffffffff81118015610ea957600080fd5b506040519080825280601f01601f191660200182016040528015610ed4576020820181803683370190505b5080519091505b8015610f3d576f181899199a1a9b1b9c1cb0b131b232b360811b85600f1660108110610f0357fe5b1a60f81b826001830381518110610f1657fe5b60200101906001600160f81b031916908160001a90535060049490941c9360001901610edb565b509392505050565b606060008260020260020167ffffffffffffffff81118015610f6657600080fd5b506040519080825280601f01601f191660200182016040528015610f91576020820181803683370190505b509050600360fc1b81600081518110610fa657fe5b60200101906001600160f81b031916908160001a905350600f60fb1b81600181518110610fcf57fe5b60200101906001600160f81b031916908160001a905350600160028402015b6001811115611050576f181899199a1a9b1b9c1cb0b131b232b360811b85600f166010811061101957fe5b1a60f81b82828151811061102957fe5b60200101906001600160f81b031916908160001a90535060049490941c9360001901610fee565b5083156101eb576040805162461bcd60e51b815260206004820181905260248201527f537472696e67733a20686578206c656e67746820696e73756666696369656e74604482015290519081900360640190fd5b60008060008360020b126110bb578260020b6110c3565b8260020b6000035b9050620d89e8811115611101576040805162461bcd60e51b81526020600482015260016024820152601560fa1b604482015290519081900360640190fd5b60006001821661111557600160801b611127565b6ffffcb933bd6fad37aa2d162d1a5940015b70ffffffffffffffffffffffffffffffffff169050600282161561115b576ffff97272373d413259a46990580e213a0260801c5b600482161561117a576ffff2e50f5f656932ef12357cf3c7fdcc0260801c5b6008821615611199576fffe5caca7e10e4e61c3624eaa0941cd00260801c5b60108216156111b8576fffcb9843d60f6159c9db58835c9266440260801c5b60208216156111d7576fff973b41fa98c081472e6896dfb254c00260801c5b60408216156111f6576fff2ea16466c96a3843ec78b326b528610260801c5b6080821615611215576ffe5dee046a99a2a811c461f1969c30530260801c5b610100821615611235576ffcbe86c7900a88aedcffc83b479aa3a40260801c5b610200821615611255576ff987a7253ac413176f2b074cf7815e540260801c5b610400821615611275576ff3392b0822b70005940c7a398e4b70f30260801c5b610800821615611295576fe7159475a2c29b7443b29c7fa6e889d90260801c5b6110008216156112b5576fd097f3bdfd2022b8845ad8f792aa58250260801c5b6120008216156112d5576fa9f746462d870fdf8a65dc1f90e061e50260801c5b6140008216156112f5576f70d869a156d2a1b890bb3df62baf32f70260801c5b618000821615611315576f31be135f97d08fd981231505542fcfa60260801c5b62010000821615611336576f09aa508b5b7a84e1c677de54f3e99bc90260801c5b62020000821615611356576e5d6af8dedb81196699c329225ee6040260801c5b62040000821615611375576d2216e584f5fa1ea926041bedfe980260801c5b62080000821615611392576b048a170391f7dc42444e8fa20260801c5b60008460020b13156113ad5780600019816113a957fe5b0490505b6401000000008106156113c15760016113c4565b60005b60ff16602082901c0192505050919050565b600080821161142c576040805162461bcd60e51b815260206004820152601a60248201527f536166654d6174683a206469766973696f6e206279207a65726f000000000000604482015290519081900360640190fd5b81838161143557fe5b049392505050565b60008061145861145360ff868116908616611cc9565b611d2e565b905060008111801561146b575060128111155b1561152c578260ff168460ff1611156114d55761149f61148c8260026113d6565b6001600160a01b03871690600a0a611d45565b915060028106600114156114d0576114cd827003298b075b4b6a5240945790619b37fd4a600160801b61153f565b91505b611527565b6114f66114e38260026113d6565b6001600160a01b03871690600a0a6113d6565b915060028106600114156115275761152482600160801b7003298b075b4b6a5240945790619b37fd4a61153f565b91505b610f3d565b50506001600160a01b0390921692915050565b6000808060001985870986860292508281109083900303905080611575576000841161156a57600080fd5b5082900490506102ce565b80841161158157600080fd5b6000848688096000868103871696879004966002600389028118808a02820302808a02820302808a02820302808a02820302808a02820302808a02909103029181900381900460010186841190950394909402919094039290920491909117919091029150509392505050565b600080600060058460ff161115611616576116138560ff600419870116600a0a6113d6565b94505b60006004600a870611905061162c86600a6113d6565b9550801561163b578560010195505b85620186a0141561165157600a86049550600191505b50939492505050565b6000828211156116b1576040805162461bcd60e51b815260206004820152601e60248201527f536166654d6174683a207375627472616374696f6e206f766572666c6f770000604482015290519081900360640190fd5b50900390565b6000828201838110156101eb576040805162461bcd60e51b815260206004820152601b60248201527f536166654d6174683a206164646974696f6e206f766572666c6f770000000000604482015290519081900360640190fd5b60606000826020015160ff1667ffffffffffffffff8111801561173357600080fd5b506040519080825280601f01601f19166020018201604052801561175e576020820181803683370190505b5090508260e001511561179857602560f81b8160018351038151811061178057fe5b60200101906001600160f81b031916908160001a9053505b8260c00151156117f557600360fc1b816000815181106117b457fe5b60200101906001600160f81b031916908160001a905350601760f91b816001815181106117dd57fe5b60200101906001600160f81b031916908160001a9053505b608083015160ff165b60a08401516118119060ff1660016116b7565b81101561184857603060f81b82828151811061182957fe5b60200101906001600160f81b031916908160001a9053506001016117fe565b505b8251156101ff576000836060015160ff161180156118755750826060015160ff16836040015160ff16145b156118b85760408301805160ff600019820181169092528251601760f91b928492169081106118a057fe5b60200101906001600160f81b031916908160001a9053505b82516118ca90603090600a90066116b7565b60f81b818460400180518091906001900360ff1660ff1681525060ff16815181106118f157fe5b60200101906001600160f81b031916908160001a905350600a836000018181518161191857fe5b0490525061184a565b60008360020b8260020b121561193a57506000196102ce565b8260020b8260020b1315611950575060016102ce565b5060006102ce565b600060ff8261196786866109a6565b028161196f57fe5b06949350505050565b60606102b26119b1846108d661198e888a61165a565b6119ab61199b888a61165a565b6119a58d8d61165a565b90611d45565b906113d6565b611d9e565b60606119c182611e79565b6119dd83600001518460200151856060015186608001516124d8565b6119f4846060015185608001518660a00151612803565b611a128560c001518660e00151876101000151886101200151612953565b611a32611a23876101400151611d9e565b8760c001518860e00151612c36565b611a45876101400151886040015161304e565b6040516020018087805190602001908083835b60208310611a775780518252601f199092019160209182019101611a58565b51815160209384036101000a600019018019909216911617905289519190930192890191508083835b60208310611abf5780518252601f199092019160209182019101611aa0565b51815160209384036101000a600019018019909216911617905288519190930192880191508083835b60208310611b075780518252601f199092019160209182019101611ae8565b51815160209384036101000a600019018019909216911617905287519190930192870191508083835b60208310611b4f5780518252601f199092019160209182019101611b30565b51815160209384036101000a600019018019909216911617905286519190930192860191508083835b60208310611b975780518252601f199092019160209182019101611b78565b51815160209384036101000a600019018019909216911617905285519190930192850191508083835b60208310611bdf5780518252601f199092019160209182019101611bc0565b5181516020939093036101000a6000190180199091169216919091179052651e17b9bb339f60d11b92019182525060408051808303601919018152600690920190529998505050505050505050565b6000808211611c3c57600080fd5b600160801b8210611c4f57608091821c91015b600160401b8210611c6257604091821c91015b6401000000008210611c7657602091821c91015b620100008210611c8857601091821c91015b6101008210611c9957600891821c91015b60108210611ca957600491821c91015b60048210611cb957600291821c91015b6002821061020257600101919050565b6000818303818312801590611cde5750838113155b80611cf35750600083128015611cf357508381135b6101eb5760405162461bcd60e51b815260040180806020018281038252602481526020018061580b6024913960400191505060405180910390fd5b600080821215611d4157816000036101ff565b5090565b600082611d54575060006101ee565b82820282848281611d6157fe5b04146101eb5760405162461bcd60e51b8152600401808060200182810382526021815260200180614f246021913960400191505060405180910390fd5b606081611dc357506040805180820190915260018152600360fc1b6020820152610202565b8160005b8115611ddb57600101600a82049150611dc7565b60008167ffffffffffffffff81118015611df457600080fd5b506040519080825280601f01601f191660200182016040528015611e1f576020820181803683370190505b50859350905060001982015b8315611e7057600a840660300160f81b82828060019003935081518110611e4e57fe5b60200101906001600160f81b031916908160001a905350600a84049350611e2b565b50949350505050565b6060611f0e8261016001516040516020018080614ade6081913960810182805190602001908083835b60208310611ec15780518252601f199092019160209182019101611ea2565b6001836020036101000a038019825116818451168082178552505050505050905001806813979f1e17b9bb339f60b91b8152506009019150506040516020818303038152906040526130c6565b612070836101e00151846102000151856101800151604051602001808061461b6063913960630184805190602001908083835b60208310611f605780518252601f199092019160209182019101611f41565b51815160209384036101000a600019018019909216911617905265272063793d2760d01b919093019081528551600690910192860191508083835b60208310611fba5780518252601f199092019160209182019101611f9b565b51815160209384036101000a6000190180199092169116179052722720723d273132307078272066696c6c3d272360681b919093019081528451601390910192850191508083835b602083106120215780518252601f199092019160209182019101612002565b6001836020036101000a038019825116818451168082178552505050505050905001806813979f1e17b9bb339f60b91b81525060090193505050506040516020818303038152906040526130c6565b6120c1846102200151856102400151866101a00151604051602001808061461b60639139606301848051906020019080838360208310611f605780518252601f199092019160209182019101611f41565b6121d6856102600151866102800151876101c00151604051602001808061461b6063913960630184805190602001908083835b602083106121135780518252601f1990920191602091820191016120f4565b51815160209384036101000a600019018019909216911617905265272063793d2760d01b919093019081528551600690910192860191508083835b6020831061216d5780518252601f19909201916020918201910161214e565b51815160001960209485036101000a01908116901991909116179052722720723d273130307078272066696c6c3d272360681b9390910192835284516013909301929085019150808383602083106120215780518252601f199092019160209182019101612002565b6101608601516040516020018060566143968239605601602c614d458239651e3232b3399f60d11b602c820152603201604b614a938239604b0186805190602001908083835b6020831061223b5780518252601f19909201916020918201910161221c565b6001836020036101000a038019825116818451168082178552505050505050905001806155cb603e9139603e0185805190602001908083835b602083106122935780518252601f199092019160209182019101612274565b6001836020036101000a03801982511681845116808217855250505050505090500180614b5f603e9139603e0184805190602001908083835b602083106122eb5780518252601f1990920191602091820191016122cc565b5181516020939093036101000a6000190180199091169216919091179052631110179f60e11b920191825250600401603b61428e8239603b0183805190602001908083835b6020831061234f5780518252601f199092019160209182019101612330565b6001836020036101000a038019825116818451168082178552505050505050905001806146db60999139609901607f61517c8239607f016088615543823960880160416147748239604101605d6157038239605d016072615228823960720160496141f7823960490160be6149d5823960be0160716144a7823960710160756150bf823960750160666147b5823960660160a4614d71823960a401608561560982397f3c6720636c69702d706174683d2275726c2823636f726e65727329223e00000060858201526b1e3932b1ba103334b6361e9160a11b60a2820152825160ae9091019060208401908083835b6020831061245c5780518252601f19909201916020918201910161243d565b6001836020036101000a0380198251168184511680821785525050505050509050018061481b60319139603101604e6142408239604e01605d61467e8239605d016041614cc482396041016052614b9d8239605201607561568e8239607501955050505050506040516020818303038152906040529050919050565b60608382858488878a8960405160200180806157e660259139602501607d6149588239607d0189805190602001908083835b602083106125295780518252601f19909201916020918201910161250a565b51815160209384036101000a600019018019909216911617905264010714051160dd1b919093019081528a516005909101928b0191508083835b602083106125825780518252601f199092019160209182019101612563565b6001836020036101000a0380198251168184511680821785525050505050509050018061484c607991396079016086615760823960860187805190602001908083835b602083106125e45780518252601f1990920191602091820191016125c5565b51815160209384036101000a600019018019909216911617905264010714051160dd1b919093019081528851600590910192890191508083835b6020831061263d5780518252601f19909201916020918201910161261e565b6001836020036101000a0380198251168184511680821785525050505050509050018061442260859139608501607b6153b18239607b0185805190602001908083835b6020831061269f5780518252601f199092019160209182019101612680565b51815160209384036101000a600019018019909216911617905264010714051160dd1b919093019081528651600590910192870191508083835b602083106126f85780518252601f1990920191602091820191016126d9565b6001836020036101000a0380198251168184511680821785525050505050509050018061456c605d9139605d0160a361501c823960a30183805190602001908083835b6020831061275a5780518252601f19909201916020918201910161273b565b51815160209384036101000a600019018019909216911617905264010714051160dd1b919093019081528451600590910192850191508083835b602083106127b35780518252601f199092019160209182019101612794565b6001836020036101000a0380198251168184511680821785525050505050509050018061416c608b9139608b01985050505050505050506040516020818303038152906040529050949350505050565b606083838360405160200180806142c960cd913960cd0184805190602001908083835b602083106128455780518252601f199092019160209182019101612826565b6001836020036101000a03801982511681845116808217855250505050505090500180602f60f81b81525060010183805190602001908083835b6020831061289e5780518252601f19909201916020918201910161287f565b6001836020036101000a0380198251168184511680821785525050505050509050018061598f6077913960770182805190602001908083835b602083106128f65780518252601f1990920191602091820191016128d7565b5181516020939093036101000a60001901801990911692169190911790526a1e17ba32bc3a1f1e17b39f60a91b920191825250600b01607361582f8239607301935050505060405160208183030381529060405290509392505050565b606060008260000b6001146129ba578260000b600019146129915760405180604001604052806005815260200164236e6f6e6560d81b8152506129b5565b6040518060400160405280600a81526020016911b330b23296b237bbb760b11b8152505b6129dc565b60405180604001604052806008815260200167023666164652d75760c41b8152505b905060006129eb878787613212565b9050818183836129fa88613460565b60405160200180806c078ce40dac2e6d67a44eae4d85609b1b815250600d0186805190602001908083835b60208310612a445780518252601f199092019160209182019101612a25565b5181516020939093036101000a600019018019909116921691909117905261149160f11b9201918252506002016077614e15823960770185805190602001908083835b60208310612aa65780518252601f199092019160209182019101612a87565b6001836020036101000a038019825116818451168082178552505050505050905001806145186054913960540180700785ece7c78ce40dac2e6d67a44eae4d85607b1b81525060110184805190602001908083835b60208310612b1a5780518252601f199092019160209182019101612afb565b5181516020939093036101000a600019018019909116921691909117905261149160f11b9201918252506002016029614e8c82396029016045614edf823960450180681e3830ba3410321e9160b91b81525060090183805190602001908083835b60208310612b9a5780518252601f199092019160209182019101612b7b565b6001836020036101000a038019825116818451168082178552505050505050905001806151346048913960480182805190602001908083835b60208310612bf25780518252601f199092019160209182019101612bd3565b6001836020036101000a0380198251168184511680821785525050505050509050019550505050505060405160208183030381529060405292505050949350505050565b60606000612c43846138cb565b90506000612c50846138cb565b865183518251929350600490910191600a9182019101600080612c738a8a61039a565b91509150612c8685600401600702611d9e565b8b612c9686600401600702611d9e565b89612ca687600401600702611d9e565b8a878760405160200180806151fb602d9139602d01806c1e3932b1ba103bb4b23a341e9160991b815250600d0189805190602001908083835b60208310612cfe5780518252601f199092019160209182019101612cdf565b6001836020036101000a03801982511681845116808217855250505050505090500180614bef603d9139603d01608d6158a28239608d0188805190602001908083835b60208310612d605780518252601f199092019160209182019101612d41565b5181516020939093036101000a60001901801990911692169190911790526a1e17ba32bc3a1f1e17b39f60a91b920191825250600b01602d615a3e8239602d01806c1e3932b1ba103bb4b23a341e9160991b815250600d0187805190602001908083835b60208310612de35780518252601f199092019160209182019101612dc4565b6001836020036101000a03801982511681845116808217855250505050505090500180614bef603d9139603d0160936148c5823960930186805190602001908083835b60208310612e455780518252601f199092019160209182019101612e26565b5181516020939093036101000a60001901801990911692169190911790526a1e17ba32bc3a1f1e17b39f60a91b920191825250600b01602d6145c98239602d01806c1e3932b1ba103bb4b23a341e9160991b815250600d0185805190602001908083835b60208310612ec85780518252601f199092019160209182019101612ea9565b6001836020036101000a03801982511681845116808217855250505050505090500180614bef603d9139603d01609361542c823960930184805190602001908083835b60208310612f2a5780518252601f199092019160209182019101612f0b565b6001836020036101000a03801982511681845116808217855250505050505090500180615a0660389139603801606061592f82396060016064614fb8823960640160256145f6823960250183805190602001908083835b60208310612fa05780518252601f199092019160209182019101612f81565b51815160209384036101000a6000190180199092169116179052630383c16160e51b919093019081528451600490910192850191508083835b60208310612ff85780518252601f199092019160209182019101612fd9565b6001836020036101000a038019825116818451168082178552505050505050905001806143ec60369139603601985050505050505050506040516020818303038152906040529750505050505050509392505050565b606061305a8383610be8565b156130b05760405160200180608d6153248239608d016073614f4582396073016071614c538239607101608a61529a8239608a0160846154bf8239608401905060405160208183030381529060405290506101ee565b5060408051602081019091526000815292915050565b60608151600014156130e75750604080516020810190915260008152610202565b6000604051806060016040528060408152602001614d056040913990506000600384516002018161311457fe5b04600402905060008160200167ffffffffffffffff8111801561313657600080fd5b506040519080825280601f01601f191660200182016040528015613161576020820181803683370190505b509050818152600183018586518101602084015b818310156131cd576003830192508251603f8160121c168501518253600182019150603f81600c1c168501518253600182019150603f8160061c168501518253600182019150603f8116850151825350600101613175565b6003895106600181146131e757600281146131f857613204565b613d3d60f01b600119830152613204565b603d60f81b6000198301525b509398975050505050505050565b606060008260020b85850360020b8161322757fe5b05905060048160020b13613272576040518060400160405280601a81526020017f4d312031433431203431203130352031303520313435203134350000000000008152509150610f3d565b60088160020b136132ba576040518060400160405280601981526020017f4d312031433333203439203937203131332031343520313435000000000000008152509150610f3d565b60108160020b13613302576040518060400160405280601981526020017f4d312031433333203537203839203131332031343520313435000000000000008152509150610f3d565b60208160020b1361334a576040518060400160405280601981526020017f4d312031433235203635203831203132312031343520313435000000000000008152509150610f3d565b60408160020b13613392576040518060400160405280601981526020017f4d312031433137203733203733203132392031343520313435000000000000008152509150610f3d565b60808160020b136133da576040518060400160405280601881526020017f4d312031433920383120363520313337203134352031343500000000000000008152509150610f3d565b6101008160020b13613423576040518060400160405280601a81526020017f4d31203143312038392035372e352031343520313435203134350000000000008152509150610f3d565b505060408051808201909152601881527f4d3120314331203937203439203134352031343520313435000000000000000060208201529392505050565b6040805180820182526002815261373360f01b6020808301919091528251808401845260038082526203139360ec1b82840152845180860186528181526232313760e81b818501528551808701909652908552620ccccd60ea1b928501929092526060939091906001600087900b14806134de57508560000b600019145b156136d5578560000b600019146134f557816134f7565b835b8660000b60001914613509578161350b565b835b8760000b6000191461351d578361351f565b855b8860000b600019146135315783613533565b855b60405160200180806b1e31b4b931b6329031bc1e9160a11b815250600c0185805190602001908083835b6020831061357c5780518252601f19909201916020918201910161355d565b51815160209384036101000a600019018019909216911617905267383c111031bc9e9160c11b919093019081528651600890910192870191508083835b602083106135d85780518252601f1990920191602091820191016135b9565b6001836020036101000a03801982511681845116808217855250505050505090500180614c2c6027913960270183805190602001908083835b602083106136305780518252601f199092019160209182019101613611565b51815160209384036101000a600019018019909216911617905267383c111031bc9e9160c11b919093019081528451600890910192850191508083835b6020831061368c5780518252601f19909201916020918201910161366d565b6001836020036101000a03801982511681845116808217855250505050505090500180614eb5602a9139602a0194505050505060405160208183030381529060405294506138c2565b8383838360405160200180806b1e31b4b931b6329031bc1e9160a11b815250600c0185805190602001908083835b602083106137225780518252601f199092019160209182019101613703565b51815160209384036101000a600019018019909216911617905267383c111031bc9e9160c11b919093019081528651600890910192870191508083835b6020831061377e5780518252601f19909201916020918201910161375f565b51815160209384036101000a60001901801990921691161790527f70782220723d22347078222066696c6c3d22776869746522202f3e0000000000919093019081526b1e31b4b931b6329031bc1e9160a11b601b8201528551602790910192860191508083835b602083106138045780518252601f1990920191602091820191016137e5565b51815160209384036101000a600019018019909216911617905267383c111031bc9e9160c11b919093019081528451600890910192850191508083835b602083106138605780518252601f199092019160209182019101613841565b6001836020036101000a038019825116818451168082178552505050505050905001807f70782220723d22347078222066696c6c3d22776869746522202f3e0000000000815250601b0194505050505060405160208183030381529060405294505b50505050919050565b6060600060405180602001604052806000815250905060008360020b12156139115782600019029250604051806040016040528060018152602001602d60f81b81525090505b8061391e8460020b611d9e565b6040516020018083805190602001908083835b602083106139505780518252601f199092019160209182019101613931565b51815160209384036101000a600019018019909216911617905285519190930192850191508083835b602083106139985780518252601f199092019160209182019101613979565b6001836020036101000a03801982511681845116808217855250505050505090500192505050604051602081830303815290604052915050919050565b6040805161010081018252600080825260208201819052918101829052606081018290526080810182905260a0810182905260c0810182905260e081019190915290565b803561020281614153565b8035801515811461020257600080fd5b8035600281900b811461020257600080fd5b600082601f830112613a56578081fd5b8135613a69613a64826140bc565b614098565b818152846020838601011115613a7d578283fd5b816020850160208301379081016020019190915292915050565b803562ffffff8116811461020257600080fd5b803560ff8116811461020257600080fd5b600060208284031215613acc578081fd5b81356101eb81614153565b60008060408385031215613ae9578081fd5b8235613af481614153565b946020939093013593505050565b60008060408385031215613b14578182fd5b613b1d83613a34565b9150613b2b60208401613a34565b90509250929050565b600080600080600060a08688031215613b4b578081fd5b613b5486613a34565b9450613b6260208701613a34565b9350613b7060408701613aaa565b9250613b7e60608701613aaa565b9150613b8c60808701613a24565b90509295509295909350565b600060208284031215613ba9578081fd5b815167ffffffffffffffff811115613bbf578182fd5b8201601f81018413613bcf578182fd5b8051613bdd613a64826140bc565b818152856020838501011115613bf1578384fd5b6102b5826020830160208601614123565b600060208284031215613c13578081fd5b813567ffffffffffffffff811115613c29578182fd5b82016101c081850312156101eb578182fd5b600060208284031215613c4c578081fd5b813567ffffffffffffffff80821115613c63578283fd5b81840191506101c0808387031215613c79578384fd5b613c8281614098565b905082358152613c9460208401613a19565b6020820152613ca560408401613a19565b6040820152606083013582811115613cbb578485fd5b613cc787828601613a46565b606083015250608083013582811115613cde578485fd5b613cea87828601613a46565b608083015250613cfc60a08401613aaa565b60a0820152613d0d60c08401613aaa565b60c0820152613d1e60e08401613a24565b60e08201526101009150613d33828401613a34565b828201526101209150613d47828401613a34565b828201526101409150613d5b828401613a34565b828201526101609150613d6f828401613a34565b828201526101809150613d83828401613a97565b828201526101a09150613d97828401613a19565b91810191909152949350505050565b600080600060608486031215613dba578283fd5b8335613dc581614153565b9250613dd360208501613aaa565b9150613de160408501613aaa565b90509250925092565b600060208284031215613dfb578081fd5b6101eb82613a97565b60008060408385031215613e16578182fd5b823591506020830135613e2881614153565b809150509250929050565b6001600160a01b03169052565b15159052565b60020b9052565b60008284528282602086013780602084860101526020601f19601f85011685010190509392505050565b60008151808452613e8f816020860160208601614123565b601f01601f19169290920160200192915050565b62ffffff169052565b60ff169052565b901515815260200190565b6000602082526101eb6020830184613e77565b600060408252613ee46040830185613e77565b82810360208401526102b58185613e77565b60006020825282356020830152613f0f60208401613a19565b613f1c6040840182613e33565b50613f2960408401613a19565b613f366060840182613e33565b50613f4460608401846140de565b6101c0806080860152613f5c6101e086018385613e4d565b9250613f6b60808701876140de565b868503601f190160a08801529250613f84848483613e4d565b935050613f9360a08701613aaa565b9150613fa260c0860183613eac565b613fae60c08701613aaa565b9150613fbd60e0860183613eac565b613fc960e08701613a24565b9150610100613fda81870184613e40565b613fe5818801613a34565b925050610120613ff781870184613e46565b614002818801613a34565b92505061014061401481870184613e46565b61401f818801613a34565b92505061016061403181870184613e46565b61403c818801613a34565b92505061018061404e81870184613e46565b614059818801613a97565b9250506101a061406b81870184613ea3565b614076818801613a19565b92505061408581860183613e33565b5090949350505050565b90815260200190565b60405181810167ffffffffffffffff811182821017156140b457fe5b604052919050565b600067ffffffffffffffff8211156140d057fe5b50601f01601f191660200190565b6000808335601e198436030181126140f4578283fd5b830160208101925035905067ffffffffffffffff81111561411457600080fd5b8036038313156101cf57600080fd5b60005b8381101561413e578181015183820152602001614126565b8381111561414d576000848401525b50505050565b6001600160a01b038116811461416857600080fd5b5056fe203c616e696d6174652061646469746976653d2273756d22206174747269627574654e616d653d2273746172744f6666736574222066726f6d3d2230252220746f3d22313030252220626567696e3d22307322206475723d223330732220726570656174436f756e743d22696e646566696e69746522202f3e3c2f74657874506174683e3c2f746578743e3c73746f70206f66667365743d222e39222073746f702d636f6c6f723d227768697465222073746f702d6f7061636974793d223022202f3e3c2f6c696e6561724772616469656e743e3c72656374207374796c653d2266696c7465723a2075726c28236631292220783d223070782220793d22307078222077696474683d22323930707822206865696768743d22353030707822202f3e3c6665496d61676520726573756c743d2270332220786c696e6b3a687265663d22646174613a696d6167652f7376672b786d6c3b6261736536342c3c67206d61736b3d2275726c2823666164652d73796d626f6c29223e3c726563742066696c6c3d226e6f6e652220783d223070782220793d22307078222077696474683d22323930707822206865696768743d22323030707822202f3e203c7465787420793d22373070782220783d2233327078222066696c6c3d2277686974652220666f6e742d66616d696c793d2227436f7572696572204e6577272c206d6f6e6f73706163652220666f6e742d7765696768743d223230302220666f6e742d73697a653d2233367078223e3c7376672077696474683d2232393022206865696768743d22353030222076696577426f783d2230203020323930203530302220786d6c6e733d22687474703a2f2f7777772e77332e6f72672f323030302f7376672270782c2030707829222063783d22307078222063793d223070782220723d22347078222066696c6c3d227768697465222f3e3c2f673e203c616e696d6174652061646469746976653d2273756d22206174747269627574654e616d653d2273746172744f6666736574222066726f6d3d2230252220746f3d22313030252220626567696e3d22307322206475723d223330732220726570656174436f756e743d22696e646566696e69746522202f3e203c2f74657874506174683e3c6d61736b2069643d22666164652d757022206d61736b436f6e74656e74556e6974733d226f626a656374426f756e64696e67426f78223e3c726563742077696474683d223122206865696768743d2231222066696c6c3d2275726c2823677261642d75702922202f3e3c2f6d61736b3e22207374726f6b653d227267626128302c302c302c302e332922207374726f6b652d77696474683d2233327078222066696c6c3d226e6f6e6522207374726f6b652d6c696e656361703d22726f756e6422202f3e203c616e696d6174652061646469746976653d2273756d22206174747269627574654e616d653d2273746172744f6666736574222066726f6d3d2230252220746f3d22313030252220626567696e3d22307322206475723d2233307322203c67207374796c653d227472616e73666f726d3a7472616e736c61746528323970782c20343434707829223e3c636972636c65207374796c653d227472616e73666f726d3a7472616e736c6174653364283c7376672077696474683d2732393027206865696768743d27353030272076696577426f783d2730203020323930203530302720786d6c6e733d27687474703a2f2f7777772e77332e6f72672f323030302f737667273e3c636972636c652063783d27203c67207374796c653d2266696c7465723a75726c2823746f702d726567696f6e2d626c7572293b207472616e73666f726d3a7363616c6528312e35293b207472616e73666f726d2d6f726967696e3a63656e74657220746f703b223e22202f3e3c6665426c656e64206d6f64653d226f7665726c61792220696e3d2270302220696e323d22703122202f3e3c6665426c656e64206d6f64653d226578636c7573696f6e2220696e323d22703222202f3e3c6665426c656e64206d6f64653d226f7665726c61792220696e323d2270332220726573756c743d22626c656e644f757422202f3e3c6665476175737369616e426c7572203c706174682069643d226d696e696d61702220643d224d3233342034343443323334203435372e393439203234322e323120343633203235332034363322202f3e3c6d61736b2069643d226e6f6e6522206d61736b436f6e74656e74556e6974733d226f626a656374426f756e64696e67426f78223e3c726563742077696474683d223122206865696768743d2231222066696c6c3d22776869746522202f3e3c2f6d61736b3e2220783d223070782220793d22307078222077696474683d22323930707822206865696768743d22353030707822202f3e203c616e696d6174652061646469746976653d2273756d22206174747269627574654e616d653d2273746172744f6666736574222066726f6d3d2230252220746f3d22313030252220626567696e3d22307322206475723d223330732220726570656174436f756e743d22696e646566696e69746522202f3e3c7465787420783d22313270782220793d22313770782220666f6e742d66616d696c793d2227436f7572696572204e6577272c206d6f6e6f73706163652220666f6e742d73697a653d2231327078222066696c6c3d227768697465223e3c747370616e2066696c6c3d2272676261283235352c3235352c3235352c302e3629223e4d696e205469636b3a203c2f747370616e3e3c74657874506174682073746172744f66667365743d222d31303025222066696c6c3d2277686974652220666f6e742d66616d696c793d2227436f7572696572204e6577272c206d6f6e6f73706163652220666f6e742d73697a653d22313070782220786c696e6b3a687265663d2223746578742d706174682d61223e3c6c696e6561724772616469656e742069643d22677261642d646f776e222078313d2230222078323d2231222079313d2230222079323d2231223e3c73746f70206f66667365743d22302e30222073746f702d636f6c6f723d227768697465222073746f702d6f7061636974793d223122202f3e3c73746f70206f66667365743d22302e39222073746f702d636f6c6f723d227768697465222073746f702d6f7061636974793d223022202f3e3c2f6c696e6561724772616469656e743e3c66696c7465722069643d226631223e3c6665496d61676520726573756c743d2270302220786c696e6b3a687265663d22646174613a696d6167652f7376672b786d6c3b6261736536342c3c7376672077696474683d2732393027206865696768743d27353030272076696577426f783d2730203020323930203530302720786d6c6e733d27687474703a2f2f7777772e77332e6f72672f323030302f737667273e3c726563742077696474683d27323930707827206865696768743d273530307078272066696c6c3d2723222f3e3c6665496d61676520726573756c743d2270322220786c696e6b3a687265663d22646174613a696d6167652f7376672b786d6c3b6261736536342c3c656c6c697073652063783d22353025222063793d22307078222072783d223138307078222072793d223132307078222066696c6c3d222330303022206f7061636974793d22302e383522202f3e3c2f673e707822206865696768743d2232367078222072783d22387078222072793d22387078222066696c6c3d227267626128302c302c302c302e362922202f3e70782220723d22347078222066696c6c3d22776869746522202f3e3c636972636c652063783d2231312e333437384c32342031324c31342e343334312031322e363532324c32322e333932332031384c31332e373831392031332e373831394c31382032322e333932334c31322e363532322031342e343334314c31322032344c31312e333437382031342e343334314c362032322e33393c726563742066696c6c3d226e6f6e652220783d223070782220793d22307078222077696474683d22323930707822206865696768743d22353030707822202f3e4142434445464748494a4b4c4d4e4f505152535455565758595a6162636465666768696a6b6c6d6e6f707172737475767778797a303132333435363738392b2f20786d6c6e733a786c696e6b3d27687474703a2f2f7777772e77332e6f72672f313939392f786c696e6b273e3c6c696e6561724772616469656e742069643d22677261642d73796d626f6c223e3c73746f70206f66667365743d22302e37222073746f702d636f6c6f723d227768697465222073746f702d6f7061636974793d223122202f3e3c73746f70206f66667365743d222e3935222073746f702d636f6c6f723d227768697465222073746f702d6f7061636974793d223022202f3e3c2f6c696e6561724772616469656e743e207374796c653d227472616e73666f726d3a7472616e736c61746528373270782c313839707829223e3c7265637420783d222d313670782220793d222d31367078222077696474683d22313830707822206865696768743d223138307078222066696c6c3d226e6f6e6522202f3e3c7061746820643d22207374796c653d227472616e73666f726d3a7472616e736c61746528373270782c313839707829223e70782220723d2232347078222066696c6c3d226e6f6e6522207374726f6b653d22776869746522202f3e3c7265637420783d222d313670782220793d222d31367078222077696474683d22313830707822206865696768743d223138307078222066696c6c3d226e6f6e6522202f3e536166654d6174683a206d756c7469706c69636174696f6e206f766572666c6f773c673e3c70617468207374796c653d227472616e73666f726d3a7472616e736c617465283670782c367078292220643d224d313220304c31322e3635323220392e35363538374c313820312e363037374c31332e373831392031302e323138314c32322e3339323320364c31342e34333431203c70617468207374726f6b652d6c696e656361703d22726f756e642220643d224d38203943382e30303030342032322e393439342031362e32303939203238203237203238222066696c6c3d226e6f6e6522207374726f6b653d22776869746522202f3e20726570656174436f756e743d22696e646566696e69746522202f3e3c2f74657874506174683e3c74657874506174682073746172744f66667365743d222d353025222066696c6c3d2277686974652220666f6e742d66616d696c793d2227436f7572696572204e6577272c206d6f6e6f73706163652220666f6e742d73697a653d22313070782220786c696e6b3a687265663d2223746578742d706174682d61223e3c6d61736b2069643d22666164652d646f776e22206d61736b436f6e74656e74556e6974733d226f626a656374426f756e64696e67426f78223e3c726563742077696474683d223122206865696768743d2231222066696c6c3d2275726c2823677261642d646f776e2922202f3e3c2f6d61736b3e22207374726f6b653d2272676261283235352c3235352c3235352c3129222066696c6c3d226e6f6e6522207374726f6b652d6c696e656361703d22726f756e6422202f3e3c2f673e696e3d22626c656e644f75742220737464446576696174696f6e3d22343222202f3e3c2f66696c7465723e203c636c6970506174682069643d22636f726e657273223e3c726563742077696474683d2232393022206865696768743d22353030222072783d223432222072793d22343222202f3e3c2f636c6970506174683e203c67207374796c653d227472616e73666f726d3a7472616e736c61746528323970782c20333834707829223e3c6c696e6561724772616469656e742069643d22677261642d7570222078313d2231222078323d2230222079313d2231222079323d2230223e3c73746f70206f66667365743d22302e30222073746f702d636f6c6f723d227768697465222073746f702d6f7061636974793d223122202f3e32334c31302e323138312031332e373831394c312e363037372031384c392e35363538372031322e363532324c302031324c392e35363538372031312e333437384c312e3630373720364c31302e323138312031302e323138314c3620312e363037374c31312e3334373820392e35363538374c313220305a222066696c6c3d22776869746522202f3e3c67207374796c653d227472616e73666f726d3a7472616e736c6174652832323670782c20333932707829223e3c726563742077696474683d223336707822206865696768743d2233367078222072783d22387078222072793d22387078222066696c6c3d226e6f6e6522207374726f6b653d2272676261283235352c3235352c3235352c302e322922202f3e3c74657874506174682073746172744f66667365743d22353025222066696c6c3d2277686974652220666f6e742d66616d696c793d2227436f7572696572204e6577272c206d6f6e6f73706163652220666f6e742d73697a653d22313070782220786c696e6b3a687265663d2223746578742d706174682d61223e3c7465787420783d22313270782220793d22313770782220666f6e742d66616d696c793d2227436f7572696572204e6577272c206d6f6e6f73706163652220666f6e742d73697a653d2231327078222066696c6c3d227768697465223e3c747370616e2066696c6c3d2272676261283235352c3235352c3235352c302e3629223e4d6178205469636b3a203c2f747370616e3e3c616e696d6174655472616e73666f726d206174747269627574654e616d653d227472616e73666f726d2220747970653d22726f74617465222066726f6d3d22302031382031382220746f3d2233363020313820313822206475723d223130732220726570656174436f756e743d22696e646566696e697465222f3e3c2f673e3c2f673e3c706174682069643d22746578742d706174682d612220643d224d34302031322048323530204132382032382030203020312032373820343020563436302041323820323820302030203120323530203438382048343020413238203238203020302031203132203436302056343020413238203238203020302031203430203132207a22202f3e222f3e3c6665496d61676520726573756c743d2270312220786c696e6b3a687265663d22646174613a696d6167652f7376672b786d6c3b6261736536342c3c6d61736b2069643d22666164652d73796d626f6c22206d61736b436f6e74656e74556e6974733d227573657253706163654f6e557365223e3c726563742077696474683d22323930707822206865696768743d223230307078222066696c6c3d2275726c2823677261642d73796d626f6c2922202f3e3c2f6d61736b3e3c2f646566733e3c7265637420783d22302220793d2230222077696474683d2232393022206865696768743d22353030222072783d223432222072793d223432222066696c6c3d227267626128302c302c302c302922207374726f6b653d2272676261283235352c3235352c3235352c302e322922202f3e3c2f673e3c66696c7465722069643d22746f702d726567696f6e2d626c7572223e3c6665476175737369616e426c757220696e3d22536f75726365477261706869632220737464446576696174696f6e3d22323422202f3e3c2f66696c7465723e3c2f74657874506174683e203c74657874506174682073746172744f66667365743d223025222066696c6c3d2277686974652220666f6e742d66616d696c793d2227436f7572696572204e6577272c206d6f6e6f73706163652220666f6e742d73697a653d22313070782220786c696e6b3a687265663d2223746578742d706174682d61223e3c7465787420746578742d72656e646572696e673d226f7074696d697a655370656564223e5369676e6564536166654d6174683a207375627472616374696f6e206f766572666c6f773c7265637420783d2231362220793d223136222077696474683d2232353822206865696768743d22343638222072783d223236222072793d223236222066696c6c3d227267626128302c302c302c302922207374726f6b653d2272676261283235352c3235352c3235352c302e322922202f3e3c7465787420783d22313270782220793d22313770782220666f6e742d66616d696c793d2227436f7572696572204e6577272c206d6f6e6f73706163652220666f6e742d73697a653d2231327078222066696c6c3d227768697465223e3c747370616e2066696c6c3d2272676261283235352c3235352c3235352c302e3629223e49443a203c2f747370616e3e3c726563742077696474683d223336707822206865696768743d2233367078222072783d22387078222072793d22387078222066696c6c3d226e6f6e6522207374726f6b653d2272676261283235352c3235352c3235352c302e322922202f3e3c2f746578743e3c7465787420793d2231313570782220783d2233327078222066696c6c3d2277686974652220666f6e742d66616d696c793d2227436f7572696572204e6577272c206d6f6e6f73706163652220666f6e742d7765696768743d223230302220666f6e742d73697a653d2233367078223e3c2f746578743e3c2f673e3c67207374796c653d227472616e73666f726d3a7472616e736c6174652832323670782c20343333707829223e203c67207374796c653d227472616e73666f726d3a7472616e736c61746528323970782c20343134707829223ea26469706673582212200a2369fabad10298c7c81916ea81f2611f7b11487be29eb9ecfdba7c3ce4188a64736f6c63430007060033",
  "linkReferences": {
    "contracts/libraries/NFTDescriptor.sol": {
      "NFTDescriptor": [
        {
          "length": 20,
          "start": 573
        },
        {
          "length": 20,
          "start": 830
        }
      ]
    }
  },
  "deployedLinkReferences": {
    "contracts/libraries/NFTDescriptor.sol": {
      "NFTDescriptor": [
        {
          "length": 20,
          "start": 541
        },
        {
          "length": 20,
          "start": 798
        }
      ]
    }
  }
}