{
  "_format": "hh-sol-artifact-1",
  "contractName": "OracleTest",
  "sourceName": "contracts/test/OracleTest.sol",
  "abi": [
    {
      "inputs": [
        {
          "internalType": "address",
          "name": "pool",
          "type": "address"
        },
        {
          "internalType": "uint32",
          "name": "secondsAgo",
          "type": "uint32"
        }
      ],
      "name": "consult",
      "outputs": [
        {
          "internalType": "int24",
          "name": "arithmeticMeanTick",
          "type": "int24"
        },
        {
          "internalType": "uint128",
          "name": "harmonicMeanLiquidity",
          "type": "uint128"
        }
      ],
      "stateMutability": "view",
      "type": "function"
    },
    {
      "inputs": [
        {
          "internalType": "address",
          "name": "pool",
          "type": "address"
        }
      ],
      "name": "getBlockStartingTickAndLiquidity",
      "outputs": [
        {
          "internalType": "int24",
          "name": "",
          "type": "int24"
        },
        {
          "internalType": "uint128",
          "name": "",
          "type": "uint128"
        }
      ],
      "stateMutability": "view",
      "type": "function"
    },
    {
      "inputs": [
        {
          "internalType": "address[]",
          "name": "tokens",
          "type": "address[]"
        },
        {
          "internalType": "int24[]",
          "name": "ticks",
          "type": "int24[]"
        }
      ],
      "name": "getChainedPrice",
      "outputs": [
        {
          "internalType": "int256",
          "name": "syntheticTick",
          "type": "int256"
        }
      ],
      "stateMutability": "view",
      "type": "function"
    },
    {
      "inputs": [
        {
          "internalType": "address",
          "name": "pool",
          "type": "address"
        },
        {
          "internalType": "uint32",
          "name": "period",
          "type": "uint32"
        }
      ],
      "name": "getGasCostOfConsult",
      "outputs": [
        {
          "internalType": "uint256",
          "name": "",
          "type": "uint256"
        }
      ],
      "stateMutability": "view",
      "type": "function"
    },
    {
      "inputs": [
        {
          "internalType": "int24",
          "name": "tick",
          "type": "int24"
        },
        {
          "internalType": "uint128",
          "name": "baseAmount",
          "type": "uint128"
        },
        {
          "internalType": "address",
          "name": "baseToken",
          "type": "address"
        },
        {
          "internalType": "address",
          "name": "quoteToken",
          "type": "address"
        }
      ],
      "name": "getGasCostOfGetQuoteAtTick",
      "outputs": [
        {
          "internalType": "uint256",
          "name": "",
          "type": "uint256"
        }
      ],
      "stateMutability": "view",
      "type": "function"
    },
    {
      "inputs": [
        {
          "internalType": "address",
          "name": "pool",
          "type": "address"
        }
      ],
      "name": "getOldestObservationSecondsAgo",
      "outputs": [
        {
          "internalType": "uint32",
          "name": "secondsAgo",
          "type": "uint32"
        },
        {
          "internalType": "uint32",
          "name": "currentTimestamp",
          "type": "uint32"
        }
      ],
      "stateMutability": "view",
      "type": "function"
    },
    {
      "inputs": [
        {
          "internalType": "int24",
          "name": "tick",
          "type": "int24"
        },
        {
          "internalType": "uint128",
          "name": "baseAmount",
          "type": "uint128"
        },
        {
          "internalType": "address",
          "name": "baseToken",
          "type": "address"
        },
        {
          "internalType": "address",
          "name": "quoteToken",
          "type": "address"
        }
      ],
      "name": "getQuoteAtTick",
      "outputs": [
        {
          "internalType": "uint256",
          "name": "quoteAmount",
          "type": "uint256"
        }
      ],
      "stateMutability": "pure",
      "type": "function"
    },
    {
      "inputs": [
        {
          "components": [
            {
              "internalType": "int24",
              "name": "tick",
              "type": "int24"
            },
            {
              "internalType": "uint128",
              "name": "weight",
              "type": "uint128"
            }
          ],
          "internalType": "struct OracleLibrary.WeightedTickData[]",
          "name": "observations",
          "type": "tuple[]"
        }
      ],
      "name": "getWeightedArithmeticMeanTick",
      "outputs": [
        {
          "internalType": "int24",
          "name": "arithmeticMeanWeightedTick",
          "type": "int24"
        }
      ],
      "stateMutability": "pure",
      "type": "function"
    }
  ],
  "bytecode": "0x608060405234801561001057600080fd5b506114ae806100206000396000f3fe608060405234801561001057600080fd5b50600436106100885760003560e01c8063824134891161005b57806382413489146100fd578063ab34b0fc14610110578063bbe8f41914610130578063e6c4fbe01461014357610088565b8063333b19a81461008d57806343c57a27146100b75780636a816ff9146100d75780637059b38a146100ea575b600080fd5b6100a061009b3660046111ad565b610164565b6040516100ae9291906113fa565b60405180910390f35b6100ca6100c5366004611399565b61017a565b6040516100ae9190611416565b6100ca6100e5366004611399565b610191565b6100ca6100f8366004611205565b6101b0565b6100a061010b3660046111c7565b6101c3565b61012361011e3660046112c3565b6101db565b6040516100ae91906113ec565b6100ca61013e3660046111c7565b6101ee565b6101566101513660046111ad565b61020a565b6040516100ae92919061141f565b6000806101708361021f565b915091505b915091565b600061018885858585610547565b95945050505050565b6000805a90506101a386868686610547565b505a900395945050505050565b60006101bc838361063e565b9392505050565b6000806101d0848461071f565b915091509250929050565b60006101e682610a8e565b90505b919050565b6000805a90506101fe848461071f565b50505a90039392505050565b60008061021683610b4a565b93429350915050565b6000806000806000856001600160a01b0316633850c7bd6040518163ffffffff1660e01b815260040160e06040518083038186803b15801561026057600080fd5b505afa158015610274573d6000803e3d6000fd5b505050506040513d60e081101561028a57600080fd5b50602081015160408201516060909201519094509092509050600161ffff8216116102e2576040805162461bcd60e51b81526020600482015260036024820152624e454f60e81b604482015290519081900360640190fd5b6000806000886001600160a01b031663252c09d7866040518263ffffffff1660e01b8152600401808261ffff16815260200191505060806040518083038186803b15801561032f57600080fd5b505afa158015610343573d6000803e3d6000fd5b505050506040513d608081101561035957600080fd5b508051602082015160409092015190945090925090504263ffffffff908116908416146103f75785896001600160a01b0316631a6865026040518163ffffffff1660e01b815260040160206040518083038186803b1580156103ba57600080fd5b505afa1580156103ce573d6000803e3d6000fd5b505050506040513d60208110156103e457600080fd5b5051909850965061017595505050505050565b60008461ffff1660018661ffff168861ffff1601038161041357fe5b0690506000806000808d6001600160a01b031663252c09d7866040518263ffffffff1660e01b81526004018082815260200191505060806040518083038186803b15801561046057600080fd5b505afa158015610474573d6000803e3d6000fd5b505050506040513d608081101561048a57600080fd5b5080516020820151604083015160609093015191965094509092509050806104df576040805162461bcd60e51b81526020600482015260036024820152624f4e4960e81b604482015290519081900360640190fd5b83880363ffffffff811684890360060b816104f657fe5b059b506000640100000000600160c01b0384890360201b1663ffffffff83166001600160a01b03026001600160c01b03168161052e57fe5b9d9f50909c049c50505050505050505050505050915091565b60008061055386610d19565b90506001600160801b036001600160a01b038216116105c2576001600160a01b03808216800290848116908616106105a25761059d600160c01b876001600160801b03168361104b565b6105ba565b6105ba81876001600160801b0316600160c01b61104b565b925050610635565b60006105e16001600160a01b038316806801000000000000000061104b565b9050836001600160a01b0316856001600160a01b03161061061957610614600160801b876001600160801b03168361104b565b610631565b61063181876001600160801b0316600160801b61104b565b9250505b50949350505050565b6000815160018451031461067e576040805162461bcd60e51b8152602060048201526002602482015261111360f21b604482015290519081900360640190fd5b60015b825181116107185783818151811061069557fe5b60200260200101516001600160a01b03168460018303815181106106b557fe5b60200260200101516001600160a01b0316106106ef578260018203815181106106da57fe5b602002602001015160020b820391508161070f565b8260018203815181106106fe57fe5b602002602001015160020b82019150815b50600101610681565b5092915050565b60008063ffffffff831661075f576040805162461bcd60e51b8152602060048201526002602482015261042560f41b604482015290519081900360640190fd5b604080516002808252606082018352600092602083019080368337019050509050838160008151811061078e57fe5b602002602001019063ffffffff16908163ffffffff16815250506000816001815181106107b757fe5b63ffffffff90921660209283029190910182015260405163883bdbfd60e01b81526004810182815283516024830152835160009384936001600160a01b038b169363883bdbfd9388939192839260449091019185820191028083838b5b8381101561082c578181015183820152602001610814565b505050509050019250505060006040518083038186803b15801561084f57600080fd5b505afa158015610863573d6000803e3d6000fd5b505050506040513d6000823e601f3d908101601f19168201604090815281101561088c57600080fd5b81019080805160405193929190846401000000008211156108ac57600080fd5b9083019060208201858111156108c157600080fd5b82518660208202830111640100000000821117156108de57600080fd5b82525081516020918201928201910280838360005b8381101561090b5781810151838201526020016108f3565b505050509050016040526020018051604051939291908464010000000082111561093457600080fd5b90830190602082018581111561094957600080fd5b825186602082028301116401000000008211171561096657600080fd5b82525081516020918201928201910280838360005b8381101561099357818101518382015260200161097b565b50505050905001604052505050915091506000826000815181106109b357fe5b6020026020010151836001815181106109c857fe5b60200260200101510390506000826000815181106109e257fe5b6020026020010151836001815181106109f757fe5b60200260200101510390508763ffffffff168260060b81610a1457fe5b05965060008260060b128015610a3e57508763ffffffff168260060b81610a3757fe5b0760060b15155b15610a4b57600019909601955b63ffffffff88166001600160a01b0302640100000000600160c01b03602083901b166001600160c01b03821681610a7e57fe5b0496505050505050509250929050565b6000806000805b8451811015610b1157848181518110610aaa57fe5b6020026020010151602001516001600160801b0316858281518110610acb57fe5b60200260200101516000015160020b0283019250848181518110610aeb57fe5b6020026020010151602001516001600160801b0316820191508080600101915050610a95565b50808281610b1b57fe5b059250600082128015610b365750808281610b3257fe5b0715155b15610b4357600019909201915b5050919050565b6000806000836001600160a01b0316633850c7bd6040518163ffffffff1660e01b815260040160e06040518083038186803b158015610b8857600080fd5b505afa158015610b9c573d6000803e3d6000fd5b505050506040513d60e0811015610bb257600080fd5b506040810151606090910151909250905061ffff8116610bfe576040805162461bcd60e51b81526020600482015260026024820152614e4960f01b604482015290519081900360640190fd5b600080856001600160a01b031663252c09d78461ffff168660010161ffff1681610c2457fe5b066040518263ffffffff1660e01b8152600401808261ffff16815260200191505060806040518083038186803b158015610c5d57600080fd5b505afa158015610c71573d6000803e3d6000fd5b505050506040513d6080811015610c8757600080fd5b508051606090910151909250905080610d0e57856001600160a01b031663252c09d760006040518263ffffffff1660e01b81526004018082815260200191505060806040518083038186803b158015610cdf57600080fd5b505afa158015610cf3573d6000803e3d6000fd5b505050506040513d6080811015610d0957600080fd5b505191505b504203949350505050565b60008060008360020b12610d30578260020b610d38565b8260020b6000035b9050620d89e8811115610d76576040805162461bcd60e51b81526020600482015260016024820152601560fa1b604482015290519081900360640190fd5b600060018216610d8a57600160801b610d9c565b6ffffcb933bd6fad37aa2d162d1a5940015b70ffffffffffffffffffffffffffffffffff1690506002821615610dd0576ffff97272373d413259a46990580e213a0260801c5b6004821615610def576ffff2e50f5f656932ef12357cf3c7fdcc0260801c5b6008821615610e0e576fffe5caca7e10e4e61c3624eaa0941cd00260801c5b6010821615610e2d576fffcb9843d60f6159c9db58835c9266440260801c5b6020821615610e4c576fff973b41fa98c081472e6896dfb254c00260801c5b6040821615610e6b576fff2ea16466c96a3843ec78b326b528610260801c5b6080821615610e8a576ffe5dee046a99a2a811c461f1969c30530260801c5b610100821615610eaa576ffcbe86c7900a88aedcffc83b479aa3a40260801c5b610200821615610eca576ff987a7253ac413176f2b074cf7815e540260801c5b610400821615610eea576ff3392b0822b70005940c7a398e4b70f30260801c5b610800821615610f0a576fe7159475a2c29b7443b29c7fa6e889d90260801c5b611000821615610f2a576fd097f3bdfd2022b8845ad8f792aa58250260801c5b612000821615610f4a576fa9f746462d870fdf8a65dc1f90e061e50260801c5b614000821615610f6a576f70d869a156d2a1b890bb3df62baf32f70260801c5b618000821615610f8a576f31be135f97d08fd981231505542fcfa60260801c5b62010000821615610fab576f09aa508b5b7a84e1c677de54f3e99bc90260801c5b62020000821615610fcb576e5d6af8dedb81196699c329225ee6040260801c5b62040000821615610fea576d2216e584f5fa1ea926041bedfe980260801c5b62080000821615611007576b048a170391f7dc42444e8fa20260801c5b60008460020b131561102257806000198161101e57fe5b0490505b640100000000810615611036576001611039565b60005b60ff16602082901c0192505050919050565b6000808060001985870986860292508281109083900303905080611081576000841161107657600080fd5b5082900490506101bc565b80841161108d57600080fd5b6000848688096000868103871696879004966002600389028118808a02820302808a02820302808a02820302808a02820302808a02820302808a02909103029181900381900460010186841190950394909402919094039290920491909117919091029150509392505050565b80356001600160a01b03811681146101e957600080fd5b600082601f830112611121578081fd5b813560206111366111318361145a565b611436565b8281528181019085830183850287018401881015611152578586fd5b855b858110156111775761116582611184565b84529284019290840190600101611154565b5090979650505050505050565b8035600281900b81146101e957600080fd5b80356001600160801b03811681146101e957600080fd5b6000602082840312156111be578081fd5b6101bc826110fa565b600080604083850312156111d9578081fd5b6111e2836110fa565b9150602083013563ffffffff811681146111fa578182fd5b809150509250929050565b60008060408385031215611217578182fd5b823567ffffffffffffffff8082111561122e578384fd5b818501915085601f830112611241578384fd5b813560206112516111318361145a565b82815281810190858301838502870184018b101561126d578889fd5b8896505b8487101561129657611282816110fa565b835260019690960195918301918301611271565b50965050860135925050808211156112ac578283fd5b506112b985828601611111565b9150509250929050565b600060208083850312156112d5578182fd5b823567ffffffffffffffff808211156112ec578384fd5b818501915085601f8301126112ff578384fd5b813561130d6111318261145a565b818152848101908486016040808502870188018b101561132b578889fd5b8896505b8487101561138a5780828c031215611345578889fd5b8051818101818110888211171561135857fe5b825261136383611184565b8152611370898401611196565b818a0152845260019690960195928701929081019061132f565b50909998505050505050505050565b600080600080608085870312156113ae578182fd5b6113b785611184565b93506113c560208601611196565b92506113d3604086016110fa565b91506113e1606086016110fa565b905092959194509250565b60029190910b815260200190565b60029290920b82526001600160801b0316602082015260400190565b90815260200190565b63ffffffff92831681529116602082015260400190565b60405181810167ffffffffffffffff8111828210171561145257fe5b604052919050565b600067ffffffffffffffff82111561146e57fe5b506020908102019056fea26469706673582212202182473b521b0b7dddc59537b29397fd96dc813be4bd10d96361a82348b37a6864736f6c63430007060033",
  "linkReferences": {},
  "deployedLinkReferences": {}
}