{
  "_format": "hh-sol-artifact-1",
  "contractName": "MockTimeSwapRouter",
  "sourceName": "contracts/test/MockTimeSwapRouter.sol",
  "abi": [
    {
      "inputs": [
        {
          "internalType": "address",
          "name": "_factory",
          "type": "address"
        },
        {
          "internalType": "address",
          "name": "_WETH9",
          "type": "address"
        }
      ],
      "stateMutability": "nonpayable",
      "type": "constructor"
    },
    {
      "inputs": [],
      "name": "WETH9",
      "outputs": [
        {
          "internalType": "address",
          "name": "",
          "type": "address"
        }
      ],
      "stateMutability": "view",
      "type": "function"
    },
    {
      "inputs": [
        {
          "components": [
            {
              "internalType": "bytes",
              "name": "path",
              "type": "bytes"
            },
            {
              "internalType": "address",
              "name": "recipient",
              "type": "address"
            },
            {
              "internalType": "uint256",
              "name": "deadline",
              "type": "uint256"
            },
            {
              "internalType": "uint256",
              "name": "amountIn",
              "type": "uint256"
            },
            {
              "internalType": "uint256",
              "name": "amountOutMinimum",
              "type": "uint256"
            }
          ],
          "internalType": "struct ISwapRouter.ExactInputParams",
          "name": "params",
          "type": "tuple"
        }
      ],
      "name": "exactInput",
      "outputs": [
        {
          "internalType": "uint256",
          "name": "amountOut",
          "type": "uint256"
        }
      ],
      "stateMutability": "payable",
      "type": "function"
    },
    {
      "inputs": [
        {
          "components": [
            {
              "internalType": "address",
              "name": "tokenIn",
              "type": "address"
            },
            {
              "internalType": "address",
              "name": "tokenOut",
              "type": "address"
            },
            {
              "internalType": "uint24",
              "name": "fee",
              "type": "uint24"
            },
            {
              "internalType": "address",
              "name": "recipient",
              "type": "address"
            },
            {
              "internalType": "uint256",
              "name": "deadline",
              "type": "uint256"
            },
            {
              "internalType": "uint256",
              "name": "amountIn",
              "type": "uint256"
            },
            {
              "internalType": "uint256",
              "name": "amountOutMinimum",
              "type": "uint256"
            },
            {
              "internalType": "uint160",
              "name": "sqrtPriceLimitX96",
              "type": "uint160"
            }
          ],
          "internalType": "struct ISwapRouter.ExactInputSingleParams",
          "name": "params",
          "type": "tuple"
        }
      ],
      "name": "exactInputSingle",
      "outputs": [
        {
          "internalType": "uint256",
          "name": "amountOut",
          "type": "uint256"
        }
      ],
      "stateMutability": "payable",
      "type": "function"
    },
    {
      "inputs": [
        {
          "components": [
            {
              "internalType": "bytes",
              "name": "path",
              "type": "bytes"
            },
            {
              "internalType": "address",
              "name": "recipient",
              "type": "address"
            },
            {
              "internalType": "uint256",
              "name": "deadline",
              "type": "uint256"
            },
            {
              "internalType": "uint256",
              "name": "amountOut",
              "type": "uint256"
            },
            {
              "internalType": "uint256",
              "name": "amountInMaximum",
              "type": "uint256"
            }
          ],
          "internalType": "struct ISwapRouter.ExactOutputParams",
          "name": "params",
          "type": "tuple"
        }
      ],
      "name": "exactOutput",
      "outputs": [
        {
          "internalType": "uint256",
          "name": "amountIn",
          "type": "uint256"
        }
      ],
      "stateMutability": "payable",
      "type": "function"
    },
    {
      "inputs": [
        {
          "components": [
            {
              "internalType": "address",
              "name": "tokenIn",
              "type": "address"
            },
            {
              "internalType": "address",
              "name": "tokenOut",
              "type": "address"
            },
            {
              "internalType": "uint24",
              "name": "fee",
              "type": "uint24"
            },
            {
              "internalType": "address",
              "name": "recipient",
              "type": "address"
            },
            {
              "internalType": "uint256",
              "name": "deadline",
              "type": "uint256"
            },
            {
              "internalType": "uint256",
              "name": "amountOut",
              "type": "uint256"
            },
            {
              "internalType": "uint256",
              "name": "amountInMaximum",
              "type": "uint256"
            },
            {
              "internalType": "uint160",
              "name": "sqrtPriceLimitX96",
              "type": "uint160"
            }
          ],
          "internalType": "struct ISwapRouter.ExactOutputSingleParams",
          "name": "params",
          "type": "tuple"
        }
      ],
      "name": "exactOutputSingle",
      "outputs": [
        {
          "internalType": "uint256",
          "name": "amountIn",
          "type": "uint256"
        }
      ],
      "stateMutability": "payable",
      "type": "function"
    },
    {
      "inputs": [],
      "name": "factory",
      "outputs": [
        {
          "internalType": "address",
          "name": "",
          "type": "address"
        }
      ],
      "stateMutability": "view",
      "type": "function"
    },
    {
      "inputs": [
        {
          "internalType": "bytes[]",
          "name": "data",
          "type": "bytes[]"
        }
      ],
      "name": "multicall",
      "outputs": [
        {
          "internalType": "bytes[]",
          "name": "results",
          "type": "bytes[]"
        }
      ],
      "stateMutability": "payable",
      "type": "function"
    },
    {
      "inputs": [],
      "name": "refundETH",
      "outputs": [],
      "stateMutability": "payable",
      "type": "function"
    },
    {
      "inputs": [
        {
          "internalType": "address",
          "name": "token",
          "type": "address"
        },
        {
          "internalType": "uint256",
          "name": "value",
          "type": "uint256"
        },
        {
          "internalType": "uint256",
          "name": "deadline",
          "type": "uint256"
        },
        {
          "internalType": "uint8",
          "name": "v",
          "type": "uint8"
        },
        {
          "internalType": "bytes32",
          "name": "r",
          "type": "bytes32"
        },
        {
          "internalType": "bytes32",
          "name": "s",
          "type": "bytes32"
        }
      ],
      "name": "selfPermit",
      "outputs": [],
      "stateMutability": "payable",
      "type": "function"
    },
    {
      "inputs": [
        {
          "internalType": "address",
          "name": "token",
          "type": "address"
        },
        {
          "internalType": "uint256",
          "name": "nonce",
          "type": "uint256"
        },
        {
          "internalType": "uint256",
          "name": "expiry",
          "type": "uint256"
        },
        {
          "internalType": "uint8",
          "name": "v",
          "type": "uint8"
        },
        {
          "internalType": "bytes32",
          "name": "r",
          "type": "bytes32"
        },
        {
          "internalType": "bytes32",
          "name": "s",
          "type": "bytes32"
        }
      ],
      "name": "selfPermitAllowed",
      "outputs": [],
      "stateMutability": "payable",
      "type": "function"
    },
    {
      "inputs": [
        {
          "internalType": "address",
          "name": "token",
          "type": "address"
        },
        {
          "internalType": "uint256",
          "name": "nonce",
          "type": "uint256"
        },
        {
          "internalType": "uint256",
          "name": "expiry",
          "type": "uint256"
        },
        {
          "internalType": "uint8",
          "name": "v",
          "type": "uint8"
        },
        {
          "internalType": "bytes32",
          "name": "r",
          "type": "bytes32"
        },
        {
          "internalType": "bytes32",
          "name": "s",
          "type": "bytes32"
        }
      ],
      "name": "selfPermitAllowedIfNecessary",
      "outputs": [],
      "stateMutability": "payable",
      "type": "function"
    },
    {
      "inputs": [
        {
          "internalType": "address",
          "name": "token",
          "type": "address"
        },
        {
          "internalType": "uint256",
          "name": "value",
          "type": "uint256"
        },
        {
          "internalType": "uint256",
          "name": "deadline",
          "type": "uint256"
        },
        {
          "internalType": "uint8",
          "name": "v",
          "type": "uint8"
        },
        {
          "internalType": "bytes32",
          "name": "r",
          "type": "bytes32"
        },
        {
          "internalType": "bytes32",
          "name": "s",
          "type": "bytes32"
        }
      ],
      "name": "selfPermitIfNecessary",
      "outputs": [],
      "stateMutability": "payable",
      "type": "function"
    },
    {
      "inputs": [
        {
          "internalType": "uint256",
          "name": "_time",
          "type": "uint256"
        }
      ],
      "name": "setTime",
      "outputs": [],
      "stateMutability": "nonpayable",
      "type": "function"
    },
    {
      "inputs": [
        {
          "internalType": "address",
          "name": "token",
          "type": "address"
        },
        {
          "internalType": "uint256",
          "name": "amountMinimum",
          "type": "uint256"
        },
        {
          "internalType": "address",
          "name": "recipient",
          "type": "address"
        }
      ],
      "name": "sweepToken",
      "outputs": [],
      "stateMutability": "payable",
      "type": "function"
    },
    {
      "inputs": [
        {
          "internalType": "address",
          "name": "token",
          "type": "address"
        },
        {
          "internalType": "uint256",
          "name": "amountMinimum",
          "type": "uint256"
        },
        {
          "internalType": "address",
          "name": "recipient",
          "type": "address"
        },
        {
          "internalType": "uint256",
          "name": "feeBips",
          "type": "uint256"
        },
        {
          "internalType": "address",
          "name": "feeRecipient",
          "type": "address"
        }
      ],
      "name": "sweepTokenWithFee",
      "outputs": [],
      "stateMutability": "payable",
      "type": "function"
    },
    {
      "inputs": [
        {
          "internalType": "int256",
          "name": "amount0Delta",
          "type": "int256"
        },
        {
          "internalType": "int256",
          "name": "amount1Delta",
          "type": "int256"
        },
        {
          "internalType": "bytes",
          "name": "_data",
          "type": "bytes"
        }
      ],
      "name": "uniswapV3SwapCallback",
      "outputs": [],
      "stateMutability": "nonpayable",
      "type": "function"
    },
    {
      "inputs": [
        {
          "internalType": "uint256",
          "name": "amountMinimum",
          "type": "uint256"
        },
        {
          "internalType": "address",
          "name": "recipient",
          "type": "address"
        }
      ],
      "name": "unwrapWETH9",
      "outputs": [],
      "stateMutability": "payable",
      "type": "function"
    },
    {
      "inputs": [
        {
          "internalType": "uint256",
          "name": "amountMinimum",
          "type": "uint256"
        },
        {
          "internalType": "address",
          "name": "recipient",
          "type": "address"
        },
        {
          "internalType": "uint256",
          "name": "feeBips",
          "type": "uint256"
        },
        {
          "internalType": "address",
          "name": "feeRecipient",
          "type": "address"
        }
      ],
      "name": "unwrapWETH9WithFee",
      "outputs": [],
      "stateMutability": "payable",
      "type": "function"
    },
    {
      "stateMutability": "payable",
      "type": "receive"
    }
  ],
  "bytecode": "0x60c06040526000196000553480156200001757600080fd5b50604051620027fc380380620027fc8339810160408190526200003a9162000076565b6001600160601b0319606092831b8116608052911b1660a052620000ad565b80516001600160a01b03811681146200007157600080fd5b919050565b6000806040838503121562000089578182fd5b620000948362000059565b9150620000a46020840162000059565b90509250929050565b60805160601c60a05160601c6126f3620001096000398061011d52806104f752806105f3528061068052806106c052806107ab528061176452806117aa528061181e525080610be452806110df52806118f952506126f36000f3fe60806040526004361061010d5760003560e01c8063c04b8d5911610095578063df2ab5bb11610064578063df2ab5bb146102af578063e0e189a0146102c2578063f28c0498146102d5578063f3995c67146102e8578063fa461e33146102fb5761017d565b8063c04b8d5914610261578063c2e3140a14610274578063c45a015514610287578063db3e21981461029c5761017d565b806349404b7c116100dc57806349404b7c146101e65780634aa4a4fc146101f95780639b2c0a371461021b578063a4a78f0c1461022e578063ac9650d8146102415761017d565b806312210e8a146101825780633beb26c41461018a578063414bf389146101aa5780634659a494146101d35761017d565b3661017d57336001600160a01b037f0000000000000000000000000000000000000000000000000000000000000000161461017b576040805162461bcd60e51b81526020600482015260096024820152684e6f7420574554483960b81b604482015290519081900360640190fd5b005b600080fd5b61017b61031b565b34801561019657600080fd5b5061017b6101a5366004612374565b61032d565b6101bd6101b836600461226d565b610332565b6040516101ca91906125de565b60405180910390f35b61017b6101e1366004611feb565b610459565b61017b6101f436600461238c565b6104f3565b34801561020557600080fd5b5061020e61067e565b6040516101ca919061247b565b61017b6102293660046123bb565b6106a2565b61017b61023c366004611feb565b61086e565b61025461024f36600461204b565b6108ff565b6040516101ca91906124d5565b6101bd61026f3660046121c2565b610a3f565b61017b610282366004611feb565b610b53565b34801561029357600080fd5b5061020e610be2565b6101bd6102aa36600461226d565b610c06565b61017b6102bd366004611f4c565b610d2d565b61017b6102d0366004611f8d565b610e0b565b6101bd6102e3366004612289565b610f32565b61017b6102f6366004611feb565b611028565b34801561030757600080fd5b5061017b6103163660046120dd565b61109a565b471561032b5761032b33476111ad565b565b600155565b600081608001358061034261129c565b111561038b576040805162461bcd60e51b8152602060048201526013602482015272151c985b9cd858dd1a5bdb881d1bdbc81bdb19606a1b604482015290519081900360640190fd5b61042460a08401356103a36080860160608701611f29565b6103b4610100870160e08801611f29565b60408051808201909152806103cc60208a018a611f29565b6103dc60608b0160408c01612351565b6103ec60408c0160208d01611f29565b6040516020016103fe93929190612430565b6040516020818303038152906040528152602001336001600160a01b03168152506112a2565b91508260c001358210156104535760405162461bcd60e51b815260040161044a90612574565b60405180910390fd5b50919050565b604080516323f2ebc360e21b815233600482015230602482015260448101879052606481018690526001608482015260ff851660a482015260c4810184905260e4810183905290516001600160a01b03881691638fcbaf0c9161010480830192600092919082900301818387803b1580156104d357600080fd5b505af11580156104e7573d6000803e3d6000fd5b50505050505050505050565b60007f00000000000000000000000000000000000000000000000000000000000000006001600160a01b03166370a08231306040518263ffffffff1660e01b815260040180826001600160a01b0316815260200191505060206040518083038186803b15801561056257600080fd5b505afa158015610576573d6000803e3d6000fd5b505050506040513d602081101561058c57600080fd5b50519050828110156105da576040805162461bcd60e51b8152602060048201526012602482015271496e73756666696369656e7420574554483960701b604482015290519081900360640190fd5b80156106795764e8d4a51000810464e8d4a510000290507f00000000000000000000000000000000000000000000000000000000000000006001600160a01b0316632e1a7d4d826040518263ffffffff1660e01b815260040180828152602001915050600060405180830381600087803b15801561065757600080fd5b505af115801561066b573d6000803e3d6000fd5b5050505061067982826111ad565b505050565b7f000000000000000000000000000000000000000000000000000000000000000081565b6000821180156106b3575060648211155b6106bc57600080fd5b60007f00000000000000000000000000000000000000000000000000000000000000006001600160a01b03166370a08231306040518263ffffffff1660e01b815260040180826001600160a01b0316815260200191505060206040518083038186803b15801561072b57600080fd5b505afa15801561073f573d6000803e3d6000fd5b505050506040513d602081101561075557600080fd5b50519050848110156107a3576040805162461bcd60e51b8152602060048201526012602482015271496e73756666696369656e7420574554483960701b604482015290519081900360640190fd5b8015610867577f00000000000000000000000000000000000000000000000000000000000000006001600160a01b0316632e1a7d4d826040518263ffffffff1660e01b815260040180828152602001915050600060405180830381600087803b15801561080f57600080fd5b505af1158015610823573d6000803e3d6000fd5b50505050600061271061083f85846113f490919063ffffffff16565b8161084657fe5b04905080156108595761085983826111ad565b610865858284036111ad565b505b5050505050565b60408051636eb1769f60e11b81523360048201523060248201529051600019916001600160a01b0389169163dd62ed3e91604480820192602092909190829003018186803b1580156108bf57600080fd5b505afa1580156108d3573d6000803e3d6000fd5b505050506040513d60208110156108e957600080fd5b5051101561086557610865868686868686610459565b60608167ffffffffffffffff8111801561091857600080fd5b5060405190808252806020026020018201604052801561094c57816020015b60608152602001906001900390816109375790505b50905060005b82811015610a38576000803086868581811061096a57fe5b905060200281019061097c91906125e7565b60405161098a92919061246b565b600060405180830381855af49150503d80600081146109c5576040519150601f19603f3d011682016040523d82523d6000602084013e6109ca565b606091505b509150915081610a16576044815110156109e357600080fd5b600481019050808060200190518101906109fd9190612158565b60405162461bcd60e51b815260040161044a9190612535565b80848481518110610a2357fe5b60209081029190910101525050600101610952565b5092915050565b6000816040015180610a4f61129c565b1115610a98576040805162461bcd60e51b8152602060048201526013602482015272151c985b9cd858dd1a5bdb881d1bdbc81bdb19606a1b604482015290519081900360640190fd5b335b6000610aa9856000015161141e565b9050610af5856060015182610ac2578660200151610ac4565b305b60006040518060400160405280610ade8b6000015161142a565b8152602001876001600160a01b03168152506112a2565b60608601528015610b15578451309250610b0e90611439565b8552610b22565b8460600151935050610b28565b50610a9a565b8360800151831015610b4c5760405162461bcd60e51b815260040161044a90612574565b5050919050565b60408051636eb1769f60e11b8152336004820152306024820152905186916001600160a01b0389169163dd62ed3e91604480820192602092909190829003018186803b158015610ba257600080fd5b505afa158015610bb6573d6000803e3d6000fd5b505050506040513d6020811015610bcc57600080fd5b5051101561086557610865868686868686611028565b7f000000000000000000000000000000000000000000000000000000000000000081565b6000816080013580610c1661129c565b1115610c5f576040805162461bcd60e51b8152602060048201526013602482015272151c985b9cd858dd1a5bdb881d1bdbc81bdb19606a1b604482015290519081900360640190fd5b610cfb60a0840135610c776080860160608701611f29565b610c88610100870160e08801611f29565b6040518060400160405280886020016020810190610ca69190611f29565b610cb660608b0160408c01612351565b610cc360208c018c611f29565b604051602001610cd593929190612430565b6040516020818303038152906040528152602001336001600160a01b0316815250611450565b91508260c00135821115610d215760405162461bcd60e51b815260040161044a90612548565b50600019600055919050565b6000836001600160a01b03166370a08231306040518263ffffffff1660e01b815260040180826001600160a01b0316815260200191505060206040518083038186803b158015610d7c57600080fd5b505afa158015610d90573d6000803e3d6000fd5b505050506040513d6020811015610da657600080fd5b5051905082811015610df4576040805162461bcd60e51b815260206004820152601260248201527124b739bab33334b1b4b2b73a103a37b5b2b760711b604482015290519081900360640190fd5b8015610e0557610e058483836115cb565b50505050565b600082118015610e1c575060648211155b610e2557600080fd5b6000856001600160a01b03166370a08231306040518263ffffffff1660e01b815260040180826001600160a01b0316815260200191505060206040518083038186803b158015610e7457600080fd5b505afa158015610e88573d6000803e3d6000fd5b505050506040513d6020811015610e9e57600080fd5b5051905084811015610eec576040805162461bcd60e51b815260206004820152601260248201527124b739bab33334b1b4b2b73a103a37b5b2b760711b604482015290519081900360640190fd5b8015610865576000612710610f0183866113f4565b81610f0857fe5b0490508015610f1c57610f1c8784836115cb565b610f2987868385036115cb565b50505050505050565b6000816040013580610f4261129c565b1115610f8b576040805162461bcd60e51b8152602060048201526013602482015272151c985b9cd858dd1a5bdb881d1bdbc81bdb19606a1b604482015290519081900360640190fd5b610ffe6060840135610fa36040860160208701611f29565b6040805180820190915260009080610fbb89806125e7565b8080601f01602080910402602001604051908101604052809392919081815260200183838082843760009201919091525050509082525033602090910152611450565b5060005491508260800135821115610d215760405162461bcd60e51b815260040161044a90612548565b6040805163d505accf60e01b8152336004820152306024820152604481018790526064810186905260ff8516608482015260a4810184905260c4810183905290516001600160a01b0388169163d505accf9160e480830192600092919082900301818387803b1580156104d357600080fd5b60008413806110a95750600083135b6110b257600080fd5b60006110c0828401846122c1565b905060008060006110d48460000151611712565b9250925092506111067f0000000000000000000000000000000000000000000000000000000000000000848484611743565b5060008060008a1361112d57846001600160a01b0316846001600160a01b03161089611144565b836001600160a01b0316856001600160a01b0316108a5b9150915081156111635761115e8587602001513384611762565b6104e7565b855161116e9061141e565b1561119357855161117e90611439565b865261118d8133600089611450565b506104e7565b806000819055508394506104e78587602001513384611762565b604080516000808252602082019092526001600160a01b0384169083906040518082805190602001908083835b602083106111f95780518252601f1990920191602091820191016111da565b6001836020036101000a03801982511681845116808217855250505050505090500191505060006040518083038185875af1925050503d806000811461125b576040519150601f19603f3d011682016040523d82523d6000602084013e611260565b606091505b5050905080610679576040805162461bcd60e51b815260206004820152600360248201526253544560e81b604482015290519081900360640190fd5b60015490565b60006001600160a01b0384166112b6573093505b60008060006112c88560000151611712565b919450925090506001600160a01b03808316908416106000806112ec8686866118f2565b6001600160a01b031663128acb088b856113058f611930565b6001600160a01b038e161561131a578d611340565b876113395773fffd8963efd1fc6a506488495d951d5263988d25611340565b6401000276a45b8d60405160200161135191906125a1565b6040516020818303038152906040526040518663ffffffff1660e01b815260040161138095949392919061248f565b6040805180830381600087803b15801561139957600080fd5b505af11580156113ad573d6000803e3d6000fd5b505050506040513d601f19601f820116820180604052508101906113d191906120ba565b91509150826113e057816113e2565b805b6000039b9a5050505050505050505050565b600082158061140f5750508181028183828161140c57fe5b04145b61141857600080fd5b92915050565b8051604211155b919050565b6060611418826000602b611946565b805160609061141890839060179060161901611946565b60006001600160a01b038416611464573093505b60008060006114768560000151611712565b919450925090506001600160a01b038084169083161060008061149a8587866118f2565b6001600160a01b031663128acb088b856114b38f611930565b6000036001600160a01b038e16156114cb578d6114f1565b876114ea5773fffd8963efd1fc6a506488495d951d5263988d256114f1565b6401000276a45b8d60405160200161150291906125a1565b6040516020818303038152906040526040518663ffffffff1660e01b815260040161153195949392919061248f565b6040805180830381600087803b15801561154a57600080fd5b505af115801561155e573d6000803e3d6000fd5b505050506040513d601f19601f8201168201806040525081019061158291906120ba565b9150915060008361159757818360000361159d565b82826000035b90985090506001600160a01b038a166115bc578b81146115bc57600080fd5b50505050505050949350505050565b604080516001600160a01b038481166024830152604480830185905283518084039091018152606490920183526020820180516001600160e01b031663a9059cbb60e01b1781529251825160009485949389169392918291908083835b602083106116475780518252601f199092019160209182019101611628565b6001836020036101000a0380198251168184511680821785525050505050509050019150506000604051808303816000865af19150503d80600081146116a9576040519150601f19603f3d011682016040523d82523d6000602084013e6116ae565b606091505b50915091508180156116dc5750805115806116dc57508080602001905160208110156116d957600080fd5b50515b610867576040805162461bcd60e51b815260206004820152600260248201526114d560f21b604482015290519081900360640190fd5b600080806117208482611a97565b925061172d846014611b47565b905061173a846017611a97565b91509193909250565b600061175985611754868686611bee565b611c44565b95945050505050565b7f00000000000000000000000000000000000000000000000000000000000000006001600160a01b0316846001600160a01b03161480156117a35750804710155b156118c5577f00000000000000000000000000000000000000000000000000000000000000006001600160a01b031663d0e30db0826040518263ffffffff1660e01b81526004016000604051808303818588803b15801561180357600080fd5b505af1158015611817573d6000803e3d6000fd5b50505050507f00000000000000000000000000000000000000000000000000000000000000006001600160a01b031663a9059cbb83836040518363ffffffff1660e01b815260040180836001600160a01b0316815260200182815260200192505050602060405180830381600087803b15801561189357600080fd5b505af11580156118a7573d6000803e3d6000fd5b505050506040513d60208110156118bd57600080fd5b50610e059050565b6001600160a01b0383163014156118e6576118e18483836115cb565b610e05565b610e0584848484611c67565b60006119287f0000000000000000000000000000000000000000000000000000000000000000611923868686611bee565b611db7565b949350505050565b6000600160ff1b821061194257600080fd5b5090565b60608182601f011015611991576040805162461bcd60e51b815260206004820152600e60248201526d736c6963655f6f766572666c6f7760901b604482015290519081900360640190fd5b8282840110156119d9576040805162461bcd60e51b815260206004820152600e60248201526d736c6963655f6f766572666c6f7760901b604482015290519081900360640190fd5b81830184511015611a25576040805162461bcd60e51b8152602060048201526011602482015270736c6963655f6f75744f66426f756e647360781b604482015290519081900360640190fd5b606082158015611a445760405191506000825260208201604052611a8e565b6040519150601f8416801560200281840101858101878315602002848b0101015b81831015611a7d578051835260209283019201611a65565b5050858452601f01601f1916604052505b50949350505050565b600081826014011015611ae6576040805162461bcd60e51b8152602060048201526012602482015271746f416464726573735f6f766572666c6f7760701b604482015290519081900360640190fd5b8160140183511015611b37576040805162461bcd60e51b8152602060048201526015602482015274746f416464726573735f6f75744f66426f756e647360581b604482015290519081900360640190fd5b500160200151600160601b900490565b600081826003011015611b95576040805162461bcd60e51b8152602060048201526011602482015270746f55696e7432345f6f766572666c6f7760781b604482015290519081900360640190fd5b8160030183511015611be5576040805162461bcd60e51b8152602060048201526014602482015273746f55696e7432345f6f75744f66426f756e647360601b604482015290519081900360640190fd5b50016003015190565b611bf6611e9b565b826001600160a01b0316846001600160a01b03161115611c14579192915b50604080516060810182526001600160a01b03948516815292909316602083015262ffffff169181019190915290565b6000611c508383611db7565b9050336001600160a01b0382161461141857600080fd5b604080516001600160a01b0385811660248301528481166044830152606480830185905283518084039091018152608490920183526020820180516001600160e01b03166323b872dd60e01b178152925182516000948594938a169392918291908083835b60208310611ceb5780518252601f199092019160209182019101611ccc565b6001836020036101000a0380198251168184511680821785525050505050509050019150506000604051808303816000865af19150503d8060008114611d4d576040519150601f19603f3d011682016040523d82523d6000602084013e611d52565b606091505b5091509150818015611d80575080511580611d805750808060200190516020811015611d7d57600080fd5b50515b610865576040805162461bcd60e51b815260206004820152600360248201526229aa2360e91b604482015290519081900360640190fd5b600081602001516001600160a01b031682600001516001600160a01b031610611ddf57600080fd5b50805160208083015160409384015184516001600160a01b0394851681850152939091168385015262ffffff166060808401919091528351808403820181526080840185528051908301206001600160f81b031960a085015294901b6bffffffffffffffffffffffff191660a183015260b58201939093527fd0aea3694b6899e0659f9ac990b71639615601444c2dd3e05521451de0f7ecfe60d5808301919091528251808303909101815260f5909101909152805191012090565b604080516060810182526000808252602082018190529181019190915290565b8035611425816126a5565b600082601f830112611ed6578081fd5b8135611ee9611ee482612657565b612633565b818152846020838601011115611efd578283fd5b816020850160208301379081016020019190915292915050565b60006101008284031215610453578081fd5b600060208284031215611f3a578081fd5b8135611f45816126a5565b9392505050565b600080600060608486031215611f60578182fd5b8335611f6b816126a5565b9250602084013591506040840135611f82816126a5565b809150509250925092565b600080600080600060a08688031215611fa4578081fd5b8535611faf816126a5565b9450602086013593506040860135611fc6816126a5565b9250606086013591506080860135611fdd816126a5565b809150509295509295909350565b60008060008060008060c08789031215612003578081fd5b863561200e816126a5565b95506020870135945060408701359350606087013560ff81168114612031578182fd5b9598949750929560808101359460a0909101359350915050565b6000806020838503121561205d578182fd5b823567ffffffffffffffff80821115612074578384fd5b818501915085601f830112612087578384fd5b813581811115612095578485fd5b86602080830285010111156120a8578485fd5b60209290920196919550909350505050565b600080604083850312156120cc578182fd5b505080516020909101519092909150565b600080600080606085870312156120f2578182fd5b8435935060208501359250604085013567ffffffffffffffff80821115612117578384fd5b818701915087601f83011261212a578384fd5b813581811115612138578485fd5b886020828501011115612149578485fd5b95989497505060200194505050565b600060208284031215612169578081fd5b815167ffffffffffffffff81111561217f578182fd5b8201601f8101841361218f578182fd5b805161219d611ee482612657565b8181528560208385010111156121b1578384fd5b611759826020830160208601612679565b6000602082840312156121d3578081fd5b813567ffffffffffffffff808211156121ea578283fd5b9083019060a082860312156121fd578283fd5b60405160a08101818110838211171561221257fe5b604052823582811115612223578485fd5b61222f87828601611ec6565b82525061223e60208401611ebb565b602082015260408301356040820152606083013560608201526080830135608082015280935050505092915050565b6000610100828403121561227f578081fd5b611f458383611f17565b60006020828403121561229a578081fd5b813567ffffffffffffffff8111156122b0578182fd5b820160a08185031215611f45578182fd5b6000602082840312156122d2578081fd5b813567ffffffffffffffff808211156122e9578283fd5b90830190604082860312156122fc578283fd5b60405160408101818110838211171561231157fe5b604052823582811115612322578485fd5b61232e87828601611ec6565b82525060208301359250612341836126a5565b6020810192909252509392505050565b600060208284031215612362578081fd5b813562ffffff81168114611f45578182fd5b600060208284031215612385578081fd5b5035919050565b6000806040838503121561239e578182fd5b8235915060208301356123b0816126a5565b809150509250929050565b600080600080608085870312156123d0578182fd5b8435935060208501356123e2816126a5565b92506040850135915060608501356123f9816126a5565b939692955090935050565b6000815180845261241c816020860160208601612679565b601f01601f19169290920160200192915050565b606093841b6bffffffffffffffffffffffff19908116825260e89390931b6001600160e81b0319166014820152921b166017820152602b0190565b6000828483379101908152919050565b6001600160a01b0391909116815260200190565b6001600160a01b0386811682528515156020830152604082018590528316606082015260a0608082018190526000906124ca90830184612404565b979650505050505050565b6000602080830181845280855180835260408601915060408482028701019250838701855b8281101561252857603f19888603018452612516858351612404565b945092850192908501906001016124fa565b5092979650505050505050565b600060208252611f456020830184612404565b602080825260129082015271151bdbc81b5d58da081c995c5d595cdd195960721b604082015260600190565b602080825260139082015272151bdbc81b1a5d1d1b19481c9958d95a5d9959606a1b604082015260600190565b6000602082528251604060208401526125bd6060840182612404565b602094909401516001600160a01b0316604093909301929092525090919050565b90815260200190565b6000808335601e198436030181126125fd578283fd5b83018035915067ffffffffffffffff821115612617578283fd5b60200191503681900382131561262c57600080fd5b9250929050565b60405181810167ffffffffffffffff8111828210171561264f57fe5b604052919050565b600067ffffffffffffffff82111561266b57fe5b50601f01601f191660200190565b60005b8381101561269457818101518382015260200161267c565b83811115610e055750506000910152565b6001600160a01b03811681146126ba57600080fd5b5056fea26469706673582212205fe176c5c3d8fdb08f0cbba016e13d44f39c1b874f3984380194e0d422980e9964736f6c63430007060033",
  "linkReferences": {},
  "deployedLinkReferences": {}
}