{
  "_format": "hh-sol-artifact-1",
  "contractName": "TickLensTest",
  "sourceName": "contracts/test/TickLensTest.sol",
  "abi": [
    {
      "inputs": [
        {
          "internalType": "address",
          "name": "pool",
          "type": "address"
        },
        {
          "internalType": "int16",
          "name": "tickBitmapIndex",
          "type": "int16"
        }
      ],
      "name": "getGasCostOfGetPopulatedTicksInWord",
      "outputs": [
        {
          "internalType": "uint256",
          "name": "",
          "type": "uint256"
        }
      ],
      "stateMutability": "view",
      "type": "function"
    },
    {
      "inputs": [
        {
          "internalType": "address",
          "name": "pool",
          "type": "address"
        },
        {
          "internalType": "int16",
          "name": "tickBitmapIndex",
          "type": "int16"
        }
      ],
      "name": "getPopulatedTicksInWord",
      "outputs": [
        {
          "components": [
            {
              "internalType": "int24",
              "name": "tick",
              "type": "int24"
            },
            {
              "internalType": "int128",
              "name": "liquidityNet",
              "type": "int128"
            },
            {
              "internalType": "uint128",
              "name": "liquidityGross",
              "type": "uint128"
            }
          ],
          "internalType": "struct ITickLens.PopulatedTick[]",
          "name": "populatedTicks",
          "type": "tuple[]"
        },
        {
          "internalType": "uint256",
          "name": "height",
          "type": "uint256"
        }
      ],
      "stateMutability": "view",
      "type": "function"
    },
    {
      "inputs": [
        {
          "internalType": "address",
          "name": "pool",
          "type": "address"
        },
        {
          "internalType": "int24",
          "name": "tick",
          "type": "int24"
        }
      ],
      "name": "ticks",
      "outputs": [
        {
          "internalType": "uint128",
          "name": "",
          "type": "uint128"
        },
        {
          "internalType": "int128",
          "name": "",
          "type": "int128"
        },
        {
          "internalType": "uint256",
          "name": "",
          "type": "uint256"
        }
      ],
      "stateMutability": "view",
      "type": "function"
    }
  ],
  "bytecode": "0x608060405234801561001057600080fd5b506106ab806100206000396000f3fe608060405234801561001057600080fd5b50600436106100415760003560e01c80630fc142f314610046578063351fb47814610071578063f0c2e7bc14610092575b600080fd5b610059610054366004610487565b6100b2565b60405161006893929190610621565b60405180910390f35b61008461007f366004610449565b61014e565b604051610068929190610596565b6100a56100a0366004610449565b6103d9565b6040516100689190610645565b6000806000806000866001600160a01b031663f30dba93876040518263ffffffff1660e01b81526004016100e69190610613565b6101006040518083038186803b1580156100ff57600080fd5b505afa158015610113573d6000803e3d6000fd5b505050506040513d601f19601f8201168201806040525081019061013791906104d7565b50959d949c50439b50939950505050505050505050565b6060600080846001600160a01b0316635339c296856040518263ffffffff1660e01b815260040161017f9190610605565b60206040518083038186803b15801561019757600080fd5b505afa1580156101ab573d6000803e3d6000fd5b505050506040513d601f19601f820116820180604052508101906101cf919061057e565b90506000805b6101008110156101f9576001811b8316156101f1576001909101905b6001016101d5565b506000866001600160a01b031663d0c93a7c6040518163ffffffff1660e01b815260040160206040518083038186803b15801561023557600080fd5b505afa158015610249573d6000803e3d6000fd5b505050506040513d601f19601f8201168201806040525081019061026d91906104b4565b90508167ffffffffffffffff8111801561028657600080fd5b506040519080825280602002602001820160405280156102c057816020015b6102ad6103f5565b8152602001906001900390816102a55790505b50945060005b6101008110156103cb576001811b8416156103c35760405163f30dba9360e01b8152600188900b60020b60081b820183029060009081906001600160a01b038c169063f30dba939061031c908690600401610613565b6101006040518083038186803b15801561033557600080fd5b505afa158015610349573d6000803e3d6000fd5b505050506040513d601f19601f8201168201806040525081019061036d91906104d7565b5050505050509150915060405180606001604052808460020b815260200182600f0b8152602001836001600160801b0316815250898760019003975087815181106103b457fe5b60200260200101819052505050505b6001016102c6565b504393505050509250929050565b6000805a90506103e9848461014e565b50505a90039392505050565b604080516060810182526000808252602082018190529181019190915290565b8051801515811461042557600080fd5b919050565b80516104258161064e565b805163ffffffff8116811461042557600080fd5b6000806040838503121561045b578182fd5b82356104668161064e565b91506020830135600181900b811461047c578182fd5b809150509250929050565b60008060408385031215610499578182fd5b82356104a48161064e565b9150602083013561047c81610666565b6000602082840312156104c5578081fd5b81516104d081610666565b9392505050565b600080600080600080600080610100898b0312156104f3578384fd5b88516001600160801b0381168114610509578485fd5b80985050602089015180600f0b8114610520578485fd5b80975050604089015195506060890151945060808901518060060b8114610545578485fd5b935061055360a08a0161042a565b925061056160c08a01610435565b915061056f60e08a01610415565b90509295985092959890939650565b60006020828403121561058f578081fd5b5051919050565b6040808252835182820181905260009190606090818501906020808901865b838110156105f1578151805160020b865283810151600f0b848701528701516001600160801b03168786015293850193908201906001016105b5565b505095909501959095525092949350505050565b60019190910b815260200190565b60029190910b815260200190565b6001600160801b03939093168352600f9190910b6020830152604082015260600190565b90815260200190565b6001600160a01b038116811461066357600080fd5b50565b8060020b811461066357600080fdfea2646970667358221220a257be1a5852970a737faa5ddc05ae38b9a640fba76a6922863d3e19560c772964736f6c63430007060033",
  "linkReferences": {},
  "deployedLinkReferences": {}
}