{
  "_format": "hh-sol-artifact-1",
  "contractName": "TickLensTest",
  "sourceName": "contracts/test/TickLensTest.sol",
  "abi": [
    {
      "inputs": [
        {
          "internalType": "address",
          "name": "pool",
          "type": "address"
        },
        {
          "internalType": "int16",
          "name": "tickBitmapIndex",
          "type": "int16"
        }
      ],
      "name": "getGasCostOfGetPopulatedTicksInWord",
      "outputs": [
        {
          "internalType": "uint256",
          "name": "",
          "type": "uint256"
        }
      ],
      "stateMutability": "view",
      "type": "function"
    },
    {
      "inputs": [
        {
          "internalType": "address",
          "name": "pool",
          "type": "address"
        },
        {
          "internalType": "int16",
          "name": "tickBitmapIndex",
          "type": "int16"
        }
      ],
      "name": "getPopulatedTicksInWord",
      "outputs": [
        {
          "components": [
            {
              "internalType": "int24",
              "name": "tick",
              "type": "int24"
            },
            {
              "internalType": "int128",
              "name": "liquidityNet",
              "type": "int128"
            },
            {
              "internalType": "uint128",
              "name": "liquidityGross",
              "type": "uint128"
            }
          ],
          "internalType": "struct ITickLens.PopulatedTick[]",
          "name": "populatedTicks",
          "type": "tuple[]"
        },
        {
          "internalType": "uint256",
          "name": "height",
          "type": "uint256"
        }
      ],
      "stateMutability": "view",
      "type": "function"
    },
    {
      "inputs": [
        {
          "internalType": "address",
          "name": "pool",
          "type": "address"
        }
      ],
      "name": "tickLiquidity",
      "outputs": [
        {
          "internalType": "uint160",
          "name": "",
          "type": "uint160"
        },
        {
          "internalType": "int24",
          "name": "",
          "type": "int24"
        },
        {
          "internalType": "uint128",
          "name": "",
          "type": "uint128"
        },
        {
          "internalType": "uint256",
          "name": "",
          "type": "uint256"
        }
      ],
      "stateMutability": "view",
      "type": "function"
    },
    {
      "inputs": [
        {
          "internalType": "address",
          "name": "pool",
          "type": "address"
        },
        {
          "internalType": "int24",
          "name": "tick",
          "type": "int24"
        }
      ],
      "name": "ticks",
      "outputs": [
        {
          "internalType": "uint128",
          "name": "",
          "type": "uint128"
        },
        {
          "internalType": "int128",
          "name": "",
          "type": "int128"
        },
        {
          "internalType": "uint256",
          "name": "",
          "type": "uint256"
        }
      ],
      "stateMutability": "view",
      "type": "function"
    }
  ],
  "bytecode": "0x608060405234801561001057600080fd5b506108e2806100206000396000f3fe608060405234801561001057600080fd5b506004361061004c5760003560e01c806309dd705b146100515780630fc142f31461007d578063351fb4781461009f578063f0c2e7bc146100c0575b600080fd5b61006461005f366004610588565b6100e0565b604051610074949392919061084a565b60405180910390f35b61009061008b3660046105e9565b6101e7565b60405161007493929190610826565b6100b26100ad3660046105ab565b610283565b60405161007492919061079b565b6100d36100ce3660046105ab565b61050e565b604051610074919061087c565b600080600080600080866001600160a01b0316633850c7bd6040518163ffffffff1660e01b815260040160e06040518083038186803b15801561012257600080fd5b505afa158015610136573d6000803e3d6000fd5b505050506040513d601f19601f8201168201806040525081019061015a91906106f2565b5050505050915091506000876001600160a01b0316631a6865026040518163ffffffff1660e01b815260040160206040518083038186803b15801561019e57600080fd5b505afa1580156101b2573d6000803e3d6000fd5b505050506040513d601f19601f820116820180604052508101906101d69190610632565b929891975091955043945092505050565b6000806000806000866001600160a01b031663f30dba93876040518263ffffffff1660e01b815260040161021b9190610818565b6101006040518083038186803b15801561023457600080fd5b505afa158015610248573d6000803e3d6000fd5b505050506040513d601f19601f8201168201806040525081019061026c919061064c565b50959d949c50439b50939950505050505050505050565b6060600080846001600160a01b0316635339c296856040518263ffffffff1660e01b81526004016102b4919061080a565b60206040518083038186803b1580156102cc57600080fd5b505afa1580156102e0573d6000803e3d6000fd5b505050506040513d601f19601f820116820180604052508101906103049190610783565b90506000805b61010081101561032e576001811b831615610326576001909101905b60010161030a565b506000866001600160a01b031663d0c93a7c6040518163ffffffff1660e01b815260040160206040518083038186803b15801561036a57600080fd5b505afa15801561037e573d6000803e3d6000fd5b505050506040513d601f19601f820116820180604052508101906103a29190610616565b90508167ffffffffffffffff811180156103bb57600080fd5b506040519080825280602002602001820160405280156103f557816020015b6103e261052a565b8152602001906001900390816103da5790505b50945060005b610100811015610500576001811b8416156104f85760405163f30dba9360e01b8152600188900b60020b60081b820183029060009081906001600160a01b038c169063f30dba9390610451908690600401610818565b6101006040518083038186803b15801561046a57600080fd5b505afa15801561047e573d6000803e3d6000fd5b505050506040513d601f19601f820116820180604052508101906104a2919061064c565b5050505050509150915060405180606001604052808460020b815260200182600f0b8152602001836001600160801b0316815250898760019003975087815181106104e957fe5b60200260200101819052505050505b6001016103fb565b504393505050509250929050565b6000805a905061051e8484610283565b50505a90039392505050565b604080516060810182526000808252602082018190529181019190915290565b8051801515811461055a57600080fd5b919050565b80516001600160801b038116811461055a57600080fd5b805161ffff8116811461055a57600080fd5b600060208284031215610599578081fd5b81356105a481610885565b9392505050565b600080604083850312156105bd578081fd5b82356105c881610885565b91506020830135600181900b81146105de578182fd5b809150509250929050565b600080604083850312156105fb578182fd5b823561060681610885565b915060208301356105de8161089d565b600060208284031215610627578081fd5b81516105a48161089d565b600060208284031215610643578081fd5b6105a48261055f565b600080600080600080600080610100898b031215610668578384fd5b6106718961055f565b9750602089015180600f0b8114610686578485fd5b80975050604089015195506060890151945060808901518060060b81146106ab578485fd5b60a08a01519094506106bc81610885565b60c08a015190935063ffffffff811681146106d5578283fd5b91506106e360e08a0161054a565b90509295985092959890939650565b600080600080600080600060e0888a03121561070c578283fd5b875161071781610885565b60208901519097506107288161089d565b955061073660408901610576565b945061074460608901610576565b935061075260808901610576565b925060a088015160ff81168114610767578283fd5b915061077560c0890161054a565b905092959891949750929550565b600060208284031215610794578081fd5b5051919050565b6040808252835182820181905260009190606090818501906020808901865b838110156107f6578151805160020b865283810151600f0b848701528701516001600160801b03168786015293850193908201906001016107ba565b505095909501959095525092949350505050565b60019190910b815260200190565b60029190910b815260200190565b6001600160801b03939093168352600f9190910b6020830152604082015260600190565b6001600160a01b0394909416845260029290920b60208401526001600160801b03166040830152606082015260800190565b90815260200190565b6001600160a01b038116811461089a57600080fd5b50565b8060020b811461089a57600080fdfea26469706673582212203d6b3933a90dd065dea205c13c0a86774920d768906b91c3fbfd7e19c788dbad64736f6c63430007060033",
  "linkReferences": {},
  "deployedLinkReferences": {}
}