{
  "_format": "hh-sol-artifact-1",
  "contractName": "MockTimeNonfungiblePositionManager",
  "sourceName": "contracts/test/MockTimeNonfungiblePositionManager.sol",
  "abi": [
    {
      "inputs": [
        {
          "internalType": "address",
          "name": "_factory",
          "type": "address"
        },
        {
          "internalType": "address",
          "name": "_WETH9",
          "type": "address"
        },
        {
          "internalType": "address",
          "name": "_tokenDescriptor",
          "type": "address"
        }
      ],
      "stateMutability": "nonpayable",
      "type": "constructor"
    },
    {
      "anonymous": false,
      "inputs": [
        {
          "indexed": true,
          "internalType": "address",
          "name": "owner",
          "type": "address"
        },
        {
          "indexed": true,
          "internalType": "address",
          "name": "approved",
          "type": "address"
        },
        {
          "indexed": true,
          "internalType": "uint256",
          "name": "tokenId",
          "type": "uint256"
        }
      ],
      "name": "Approval",
      "type": "event"
    },
    {
      "anonymous": false,
      "inputs": [
        {
          "indexed": true,
          "internalType": "address",
          "name": "owner",
          "type": "address"
        },
        {
          "indexed": true,
          "internalType": "address",
          "name": "operator",
          "type": "address"
        },
        {
          "indexed": false,
          "internalType": "bool",
          "name": "approved",
          "type": "bool"
        }
      ],
      "name": "ApprovalForAll",
      "type": "event"
    },
    {
      "anonymous": false,
      "inputs": [
        {
          "indexed": true,
          "internalType": "uint256",
          "name": "tokenId",
          "type": "uint256"
        },
        {
          "indexed": false,
          "internalType": "address",
          "name": "recipient",
          "type": "address"
        },
        {
          "indexed": false,
          "internalType": "uint256",
          "name": "amount0",
          "type": "uint256"
        },
        {
          "indexed": false,
          "internalType": "uint256",
          "name": "amount1",
          "type": "uint256"
        }
      ],
      "name": "Collect",
      "type": "event"
    },
    {
      "anonymous": false,
      "inputs": [
        {
          "indexed": true,
          "internalType": "uint256",
          "name": "tokenId",
          "type": "uint256"
        },
        {
          "indexed": false,
          "internalType": "uint128",
          "name": "liquidity",
          "type": "uint128"
        },
        {
          "indexed": false,
          "internalType": "uint256",
          "name": "amount0",
          "type": "uint256"
        },
        {
          "indexed": false,
          "internalType": "uint256",
          "name": "amount1",
          "type": "uint256"
        }
      ],
      "name": "DecreaseLiquidity",
      "type": "event"
    },
    {
      "anonymous": false,
      "inputs": [
        {
          "indexed": true,
          "internalType": "uint256",
          "name": "tokenId",
          "type": "uint256"
        },
        {
          "indexed": false,
          "internalType": "uint128",
          "name": "liquidity",
          "type": "uint128"
        },
        {
          "indexed": false,
          "internalType": "uint256",
          "name": "amount0",
          "type": "uint256"
        },
        {
          "indexed": false,
          "internalType": "uint256",
          "name": "amount1",
          "type": "uint256"
        }
      ],
      "name": "IncreaseLiquidity",
      "type": "event"
    },
    {
      "anonymous": false,
      "inputs": [
        {
          "indexed": true,
          "internalType": "address",
          "name": "from",
          "type": "address"
        },
        {
          "indexed": true,
          "internalType": "address",
          "name": "to",
          "type": "address"
        },
        {
          "indexed": true,
          "internalType": "uint256",
          "name": "tokenId",
          "type": "uint256"
        }
      ],
      "name": "Transfer",
      "type": "event"
    },
    {
      "inputs": [],
      "name": "DOMAIN_SEPARATOR",
      "outputs": [
        {
          "internalType": "bytes32",
          "name": "",
          "type": "bytes32"
        }
      ],
      "stateMutability": "view",
      "type": "function"
    },
    {
      "inputs": [],
      "name": "PERMIT_TYPEHASH",
      "outputs": [
        {
          "internalType": "bytes32",
          "name": "",
          "type": "bytes32"
        }
      ],
      "stateMutability": "view",
      "type": "function"
    },
    {
      "inputs": [],
      "name": "WETH9",
      "outputs": [
        {
          "internalType": "address",
          "name": "",
          "type": "address"
        }
      ],
      "stateMutability": "view",
      "type": "function"
    },
    {
      "inputs": [
        {
          "internalType": "address",
          "name": "to",
          "type": "address"
        },
        {
          "internalType": "uint256",
          "name": "tokenId",
          "type": "uint256"
        }
      ],
      "name": "approve",
      "outputs": [],
      "stateMutability": "nonpayable",
      "type": "function"
    },
    {
      "inputs": [
        {
          "internalType": "address",
          "name": "owner",
          "type": "address"
        }
      ],
      "name": "balanceOf",
      "outputs": [
        {
          "internalType": "uint256",
          "name": "",
          "type": "uint256"
        }
      ],
      "stateMutability": "view",
      "type": "function"
    },
    {
      "inputs": [],
      "name": "baseURI",
      "outputs": [
        {
          "internalType": "string",
          "name": "",
          "type": "string"
        }
      ],
      "stateMutability": "pure",
      "type": "function"
    },
    {
      "inputs": [
        {
          "internalType": "uint256",
          "name": "tokenId",
          "type": "uint256"
        }
      ],
      "name": "burn",
      "outputs": [],
      "stateMutability": "payable",
      "type": "function"
    },
    {
      "inputs": [
        {
          "components": [
            {
              "internalType": "uint256",
              "name": "tokenId",
              "type": "uint256"
            },
            {
              "internalType": "address",
              "name": "recipient",
              "type": "address"
            },
            {
              "internalType": "uint128",
              "name": "amount0Max",
              "type": "uint128"
            },
            {
              "internalType": "uint128",
              "name": "amount1Max",
              "type": "uint128"
            }
          ],
          "internalType": "struct INonfungiblePositionManager.CollectParams",
          "name": "params",
          "type": "tuple"
        }
      ],
      "name": "collect",
      "outputs": [
        {
          "internalType": "uint256",
          "name": "amount0",
          "type": "uint256"
        },
        {
          "internalType": "uint256",
          "name": "amount1",
          "type": "uint256"
        }
      ],
      "stateMutability": "payable",
      "type": "function"
    },
    {
      "inputs": [
        {
          "internalType": "address",
          "name": "token0",
          "type": "address"
        },
        {
          "internalType": "address",
          "name": "token1",
          "type": "address"
        },
        {
          "internalType": "uint24",
          "name": "fee",
          "type": "uint24"
        },
        {
          "internalType": "uint160",
          "name": "sqrtPriceX96",
          "type": "uint160"
        }
      ],
      "name": "createAndInitializePoolIfNecessary",
      "outputs": [
        {
          "internalType": "address",
          "name": "pool",
          "type": "address"
        }
      ],
      "stateMutability": "payable",
      "type": "function"
    },
    {
      "inputs": [
        {
          "components": [
            {
              "internalType": "uint256",
              "name": "tokenId",
              "type": "uint256"
            },
            {
              "internalType": "uint128",
              "name": "liquidity",
              "type": "uint128"
            },
            {
              "internalType": "uint256",
              "name": "amount0Min",
              "type": "uint256"
            },
            {
              "internalType": "uint256",
              "name": "amount1Min",
              "type": "uint256"
            },
            {
              "internalType": "uint256",
              "name": "deadline",
              "type": "uint256"
            }
          ],
          "internalType": "struct INonfungiblePositionManager.DecreaseLiquidityParams",
          "name": "params",
          "type": "tuple"
        }
      ],
      "name": "decreaseLiquidity",
      "outputs": [
        {
          "internalType": "uint256",
          "name": "amount0",
          "type": "uint256"
        },
        {
          "internalType": "uint256",
          "name": "amount1",
          "type": "uint256"
        }
      ],
      "stateMutability": "payable",
      "type": "function"
    },
    {
      "inputs": [],
      "name": "factory",
      "outputs": [
        {
          "internalType": "address",
          "name": "",
          "type": "address"
        }
      ],
      "stateMutability": "view",
      "type": "function"
    },
    {
      "inputs": [
        {
          "internalType": "uint256",
          "name": "tokenId",
          "type": "uint256"
        }
      ],
      "name": "getApproved",
      "outputs": [
        {
          "internalType": "address",
          "name": "",
          "type": "address"
        }
      ],
      "stateMutability": "view",
      "type": "function"
    },
    {
      "inputs": [
        {
          "components": [
            {
              "internalType": "uint256",
              "name": "tokenId",
              "type": "uint256"
            },
            {
              "internalType": "uint256",
              "name": "amount0Desired",
              "type": "uint256"
            },
            {
              "internalType": "uint256",
              "name": "amount1Desired",
              "type": "uint256"
            },
            {
              "internalType": "uint256",
              "name": "amount0Min",
              "type": "uint256"
            },
            {
              "internalType": "uint256",
              "name": "amount1Min",
              "type": "uint256"
            },
            {
              "internalType": "uint256",
              "name": "deadline",
              "type": "uint256"
            }
          ],
          "internalType": "struct INonfungiblePositionManager.IncreaseLiquidityParams",
          "name": "params",
          "type": "tuple"
        }
      ],
      "name": "increaseLiquidity",
      "outputs": [
        {
          "internalType": "uint128",
          "name": "liquidity",
          "type": "uint128"
        },
        {
          "internalType": "uint256",
          "name": "amount0",
          "type": "uint256"
        },
        {
          "internalType": "uint256",
          "name": "amount1",
          "type": "uint256"
        }
      ],
      "stateMutability": "payable",
      "type": "function"
    },
    {
      "inputs": [
        {
          "internalType": "address",
          "name": "owner",
          "type": "address"
        },
        {
          "internalType": "address",
          "name": "operator",
          "type": "address"
        }
      ],
      "name": "isApprovedForAll",
      "outputs": [
        {
          "internalType": "bool",
          "name": "",
          "type": "bool"
        }
      ],
      "stateMutability": "view",
      "type": "function"
    },
    {
      "inputs": [
        {
          "components": [
            {
              "internalType": "address",
              "name": "token0",
              "type": "address"
            },
            {
              "internalType": "address",
              "name": "token1",
              "type": "address"
            },
            {
              "internalType": "uint24",
              "name": "fee",
              "type": "uint24"
            },
            {
              "internalType": "int24",
              "name": "tickLower",
              "type": "int24"
            },
            {
              "internalType": "int24",
              "name": "tickUpper",
              "type": "int24"
            },
            {
              "internalType": "uint256",
              "name": "amount0Desired",
              "type": "uint256"
            },
            {
              "internalType": "uint256",
              "name": "amount1Desired",
              "type": "uint256"
            },
            {
              "internalType": "uint256",
              "name": "amount0Min",
              "type": "uint256"
            },
            {
              "internalType": "uint256",
              "name": "amount1Min",
              "type": "uint256"
            },
            {
              "internalType": "address",
              "name": "recipient",
              "type": "address"
            },
            {
              "internalType": "uint256",
              "name": "deadline",
              "type": "uint256"
            }
          ],
          "internalType": "struct INonfungiblePositionManager.MintParams",
          "name": "params",
          "type": "tuple"
        }
      ],
      "name": "mint",
      "outputs": [
        {
          "internalType": "uint256",
          "name": "tokenId",
          "type": "uint256"
        },
        {
          "internalType": "uint128",
          "name": "liquidity",
          "type": "uint128"
        },
        {
          "internalType": "uint256",
          "name": "amount0",
          "type": "uint256"
        },
        {
          "internalType": "uint256",
          "name": "amount1",
          "type": "uint256"
        }
      ],
      "stateMutability": "payable",
      "type": "function"
    },
    {
      "inputs": [
        {
          "internalType": "bytes[]",
          "name": "data",
          "type": "bytes[]"
        }
      ],
      "name": "multicall",
      "outputs": [
        {
          "internalType": "bytes[]",
          "name": "results",
          "type": "bytes[]"
        }
      ],
      "stateMutability": "payable",
      "type": "function"
    },
    {
      "inputs": [],
      "name": "name",
      "outputs": [
        {
          "internalType": "string",
          "name": "",
          "type": "string"
        }
      ],
      "stateMutability": "view",
      "type": "function"
    },
    {
      "inputs": [
        {
          "internalType": "uint256",
          "name": "tokenId",
          "type": "uint256"
        }
      ],
      "name": "ownerOf",
      "outputs": [
        {
          "internalType": "address",
          "name": "",
          "type": "address"
        }
      ],
      "stateMutability": "view",
      "type": "function"
    },
    {
      "inputs": [
        {
          "internalType": "address",
          "name": "spender",
          "type": "address"
        },
        {
          "internalType": "uint256",
          "name": "tokenId",
          "type": "uint256"
        },
        {
          "internalType": "uint256",
          "name": "deadline",
          "type": "uint256"
        },
        {
          "internalType": "uint8",
          "name": "v",
          "type": "uint8"
        },
        {
          "internalType": "bytes32",
          "name": "r",
          "type": "bytes32"
        },
        {
          "internalType": "bytes32",
          "name": "s",
          "type": "bytes32"
        }
      ],
      "name": "permit",
      "outputs": [],
      "stateMutability": "payable",
      "type": "function"
    },
    {
      "inputs": [
        {
          "internalType": "uint256",
          "name": "tokenId",
          "type": "uint256"
        }
      ],
      "name": "positions",
      "outputs": [
        {
          "internalType": "uint96",
          "name": "nonce",
          "type": "uint96"
        },
        {
          "internalType": "address",
          "name": "operator",
          "type": "address"
        },
        {
          "internalType": "address",
          "name": "token0",
          "type": "address"
        },
        {
          "internalType": "address",
          "name": "token1",
          "type": "address"
        },
        {
          "internalType": "uint24",
          "name": "fee",
          "type": "uint24"
        },
        {
          "internalType": "int24",
          "name": "tickLower",
          "type": "int24"
        },
        {
          "internalType": "int24",
          "name": "tickUpper",
          "type": "int24"
        },
        {
          "internalType": "uint128",
          "name": "liquidity",
          "type": "uint128"
        },
        {
          "internalType": "uint256",
          "name": "feeGrowthInside0LastX128",
          "type": "uint256"
        },
        {
          "internalType": "uint256",
          "name": "feeGrowthInside1LastX128",
          "type": "uint256"
        },
        {
          "internalType": "uint128",
          "name": "tokensOwed0",
          "type": "uint128"
        },
        {
          "internalType": "uint128",
          "name": "tokensOwed1",
          "type": "uint128"
        }
      ],
      "stateMutability": "view",
      "type": "function"
    },
    {
      "inputs": [],
      "name": "refundETH",
      "outputs": [],
      "stateMutability": "payable",
      "type": "function"
    },
    {
      "inputs": [
        {
          "internalType": "address",
          "name": "from",
          "type": "address"
        },
        {
          "internalType": "address",
          "name": "to",
          "type": "address"
        },
        {
          "internalType": "uint256",
          "name": "tokenId",
          "type": "uint256"
        }
      ],
      "name": "safeTransferFrom",
      "outputs": [],
      "stateMutability": "nonpayable",
      "type": "function"
    },
    {
      "inputs": [
        {
          "internalType": "address",
          "name": "from",
          "type": "address"
        },
        {
          "internalType": "address",
          "name": "to",
          "type": "address"
        },
        {
          "internalType": "uint256",
          "name": "tokenId",
          "type": "uint256"
        },
        {
          "internalType": "bytes",
          "name": "_data",
          "type": "bytes"
        }
      ],
      "name": "safeTransferFrom",
      "outputs": [],
      "stateMutability": "nonpayable",
      "type": "function"
    },
    {
      "inputs": [
        {
          "internalType": "address",
          "name": "token",
          "type": "address"
        },
        {
          "internalType": "uint256",
          "name": "value",
          "type": "uint256"
        },
        {
          "internalType": "uint256",
          "name": "deadline",
          "type": "uint256"
        },
        {
          "internalType": "uint8",
          "name": "v",
          "type": "uint8"
        },
        {
          "internalType": "bytes32",
          "name": "r",
          "type": "bytes32"
        },
        {
          "internalType": "bytes32",
          "name": "s",
          "type": "bytes32"
        }
      ],
      "name": "selfPermit",
      "outputs": [],
      "stateMutability": "payable",
      "type": "function"
    },
    {
      "inputs": [
        {
          "internalType": "address",
          "name": "token",
          "type": "address"
        },
        {
          "internalType": "uint256",
          "name": "nonce",
          "type": "uint256"
        },
        {
          "internalType": "uint256",
          "name": "expiry",
          "type": "uint256"
        },
        {
          "internalType": "uint8",
          "name": "v",
          "type": "uint8"
        },
        {
          "internalType": "bytes32",
          "name": "r",
          "type": "bytes32"
        },
        {
          "internalType": "bytes32",
          "name": "s",
          "type": "bytes32"
        }
      ],
      "name": "selfPermitAllowed",
      "outputs": [],
      "stateMutability": "payable",
      "type": "function"
    },
    {
      "inputs": [
        {
          "internalType": "address",
          "name": "token",
          "type": "address"
        },
        {
          "internalType": "uint256",
          "name": "nonce",
          "type": "uint256"
        },
        {
          "internalType": "uint256",
          "name": "expiry",
          "type": "uint256"
        },
        {
          "internalType": "uint8",
          "name": "v",
          "type": "uint8"
        },
        {
          "internalType": "bytes32",
          "name": "r",
          "type": "bytes32"
        },
        {
          "internalType": "bytes32",
          "name": "s",
          "type": "bytes32"
        }
      ],
      "name": "selfPermitAllowedIfNecessary",
      "outputs": [],
      "stateMutability": "payable",
      "type": "function"
    },
    {
      "inputs": [
        {
          "internalType": "address",
          "name": "token",
          "type": "address"
        },
        {
          "internalType": "uint256",
          "name": "value",
          "type": "uint256"
        },
        {
          "internalType": "uint256",
          "name": "deadline",
          "type": "uint256"
        },
        {
          "internalType": "uint8",
          "name": "v",
          "type": "uint8"
        },
        {
          "internalType": "bytes32",
          "name": "r",
          "type": "bytes32"
        },
        {
          "internalType": "bytes32",
          "name": "s",
          "type": "bytes32"
        }
      ],
      "name": "selfPermitIfNecessary",
      "outputs": [],
      "stateMutability": "payable",
      "type": "function"
    },
    {
      "inputs": [
        {
          "internalType": "address",
          "name": "operator",
          "type": "address"
        },
        {
          "internalType": "bool",
          "name": "approved",
          "type": "bool"
        }
      ],
      "name": "setApprovalForAll",
      "outputs": [],
      "stateMutability": "nonpayable",
      "type": "function"
    },
    {
      "inputs": [
        {
          "internalType": "uint256",
          "name": "_time",
          "type": "uint256"
        }
      ],
      "name": "setTime",
      "outputs": [],
      "stateMutability": "nonpayable",
      "type": "function"
    },
    {
      "inputs": [
        {
          "internalType": "bytes4",
          "name": "interfaceId",
          "type": "bytes4"
        }
      ],
      "name": "supportsInterface",
      "outputs": [
        {
          "internalType": "bool",
          "name": "",
          "type": "bool"
        }
      ],
      "stateMutability": "view",
      "type": "function"
    },
    {
      "inputs": [
        {
          "internalType": "address",
          "name": "token",
          "type": "address"
        },
        {
          "internalType": "uint256",
          "name": "amountMinimum",
          "type": "uint256"
        },
        {
          "internalType": "address",
          "name": "recipient",
          "type": "address"
        }
      ],
      "name": "sweepToken",
      "outputs": [],
      "stateMutability": "payable",
      "type": "function"
    },
    {
      "inputs": [],
      "name": "symbol",
      "outputs": [
        {
          "internalType": "string",
          "name": "",
          "type": "string"
        }
      ],
      "stateMutability": "view",
      "type": "function"
    },
    {
      "inputs": [
        {
          "internalType": "uint256",
          "name": "index",
          "type": "uint256"
        }
      ],
      "name": "tokenByIndex",
      "outputs": [
        {
          "internalType": "uint256",
          "name": "",
          "type": "uint256"
        }
      ],
      "stateMutability": "view",
      "type": "function"
    },
    {
      "inputs": [
        {
          "internalType": "address",
          "name": "owner",
          "type": "address"
        },
        {
          "internalType": "uint256",
          "name": "index",
          "type": "uint256"
        }
      ],
      "name": "tokenOfOwnerByIndex",
      "outputs": [
        {
          "internalType": "uint256",
          "name": "",
          "type": "uint256"
        }
      ],
      "stateMutability": "view",
      "type": "function"
    },
    {
      "inputs": [
        {
          "internalType": "uint256",
          "name": "tokenId",
          "type": "uint256"
        }
      ],
      "name": "tokenURI",
      "outputs": [
        {
          "internalType": "string",
          "name": "",
          "type": "string"
        }
      ],
      "stateMutability": "view",
      "type": "function"
    },
    {
      "inputs": [],
      "name": "totalSupply",
      "outputs": [
        {
          "internalType": "uint256",
          "name": "",
          "type": "uint256"
        }
      ],
      "stateMutability": "view",
      "type": "function"
    },
    {
      "inputs": [
        {
          "internalType": "address",
          "name": "from",
          "type": "address"
        },
        {
          "internalType": "address",
          "name": "to",
          "type": "address"
        },
        {
          "internalType": "uint256",
          "name": "tokenId",
          "type": "uint256"
        }
      ],
      "name": "transferFrom",
      "outputs": [],
      "stateMutability": "nonpayable",
      "type": "function"
    },
    {
      "inputs": [
        {
          "internalType": "uint256",
          "name": "amount0Owed",
          "type": "uint256"
        },
        {
          "internalType": "uint256",
          "name": "amount1Owed",
          "type": "uint256"
        },
        {
          "internalType": "bytes",
          "name": "data",
          "type": "bytes"
        }
      ],
      "name": "uniswapV3MintCallback",
      "outputs": [],
      "stateMutability": "nonpayable",
      "type": "function"
    },
    {
      "inputs": [
        {
          "internalType": "uint256",
          "name": "amountMinimum",
          "type": "uint256"
        },
        {
          "internalType": "address",
          "name": "recipient",
          "type": "address"
        }
      ],
      "name": "unwrapWETH9",
      "outputs": [],
      "stateMutability": "payable",
      "type": "function"
    },
    {
      "stateMutability": "payable",
      "type": "receive"
    }
  ],
  "bytecode": "0x610120604052600d80546001600160b01b0319166001176001600160b01b0316600160b01b1790553480156200003457600080fd5b5060405162005da738038062005da78339810160408190526200005791620002e1565b82828282826040518060400160405280601b81526020017f556e697377617020563320506f736974696f6e73204e46542d563100000000008152506040518060400160405280600a815260200169554e492d56332d504f5360b01b815250604051806040016040528060018152602001603160f81b8152508282620000e96301ffc9a760e01b6200019360201b60201c565b8151620000fe90600690602085019062000218565b5080516200011490600790602084019062000218565b50620001276380ac58cd60e01b62000193565b62000139635b5e139f60e01b62000193565b6200014b63780e9d6360e01b62000193565b50508251602093840120608052805192019190912060a052506001600160601b0319606092831b811660c05290821b811660e05291901b1661010052506200032a9350505050565b6001600160e01b03198082161415620001f3576040805162461bcd60e51b815260206004820152601c60248201527f4552433136353a20696e76616c696420696e7465726661636520696400000000604482015290519081900360640190fd5b6001600160e01b0319166000908152602081905260409020805460ff19166001179055565b828054600181600116156101000203166002900490600052602060002090601f0160209004810192826200025057600085556200029b565b82601f106200026b57805160ff19168380011785556200029b565b828001600101855582156200029b579182015b828111156200029b5782518255916020019190600101906200027e565b50620002a9929150620002ad565b5090565b5b80821115620002a95760008155600101620002ae565b80516001600160a01b0381168114620002dc57600080fd5b919050565b600080600060608486031215620002f6578283fd5b6200030184620002c4565b92506200031160208501620002c4565b91506200032160408501620002c4565b90509250925092565b60805160a05160c05160601c60e05160601c6101005160601c6159f8620003af600039806128205250806102445280611639528061173552806117bd5280613ac35280613b095280613b7d525080610a305280610d505280610e1752806127d352806128c05280612bba52806133bf52508061143452508061141352506159f86000f3fe6080604052600436106102345760003560e01c80634f6ccce71161012e578063ac9650d8116100ab578063d34879971161006f578063d348799714610679578063df2ab5bb14610699578063e985e9c5146106ac578063f3995c67146106cc578063fc6f7865146106df576102a4565b8063ac9650d8146105f1578063b88d4fde14610611578063c2e3140a14610631578063c45a015514610644578063c87b56dd14610659576102a4565b806388316456116100f2578063883164561461054e57806395d89b411461057157806399fbab8814610586578063a22cb465146105be578063a4a78f0c146105de576102a4565b80634f6ccce7146104c65780636352211e146104e65780636c0360eb1461050657806370a082311461051b5780637ac2ff7b1461053b576102a4565b806323b872dd116101bc57806342842e0e1161018057806342842e0e1461045857806342966c68146104785780634659a4941461048b57806349404b7c1461049e5780634aa4a4fc146104b1576102a4565b806323b872dd146103ce5780632f745c59146103ee57806330adf81f1461040e5780633644e515146104235780633beb26c414610438576102a4565b80630c49ccbe116102035780630c49ccbe1461034e57806312210e8a1461036f57806313ead5621461037757806318160ddd1461038a578063219f5d17146103ac576102a4565b806301ffc9a7146102a957806306fdde03146102df578063081812fc14610301578063095ea7b31461032e576102a4565b366102a457336001600160a01b037f000000000000000000000000000000000000000000000000000000000000000016146102a2576040805162461bcd60e51b81526020600482015260096024820152684e6f7420574554483960b81b604482015290519081900360640190fd5b005b600080fd5b3480156102b557600080fd5b506102c96102c4366004614ed9565b6106f2565b6040516102d6919061541a565b60405180910390f35b3480156102eb57600080fd5b506102f4610715565b6040516102d6919061546d565b34801561030d57600080fd5b5061032161031c3660046151d3565b6107ab565b6040516102d691906152fd565b34801561033a57600080fd5b506102a2610349366004614da3565b6107fe565b61036161035c366004614f9e565b6108d4565b6040516102d69291906155f4565b6102a2610d1c565b610321610385366004614c36565b610d2e565b34801561039657600080fd5b5061039f611022565b6040516102d69190615425565b6103bf6103ba366004614faf565b611033565b6040516102d6939291906155af565b3480156103da57600080fd5b506102a26103e9366004614c8f565b611348565b3480156103fa57600080fd5b5061039f610409366004614da3565b61139f565b34801561041a57600080fd5b5061039f6113ca565b34801561042f57600080fd5b5061039f6113ee565b34801561044457600080fd5b506102a26104533660046151d3565b6114ac565b34801561046457600080fd5b506102a2610473366004614c8f565b6114b1565b6102a26104863660046151d3565b6114cc565b6102a2610499366004614e0f565b61159b565b6102a26104ac3660046151eb565b611635565b3480156104bd57600080fd5b506103216117bb565b3480156104d257600080fd5b5061039f6104e13660046151d3565b6117df565b3480156104f257600080fd5b506103216105013660046151d3565b6117f5565b34801561051257600080fd5b506102f461181d565b34801561052757600080fd5b5061039f610536366004614be2565b611822565b6102a2610549366004614e0f565b61188a565b61056161055c36600461506b565b611c7c565b6040516102d694939291906155d0565b34801561057d57600080fd5b506102f4612194565b34801561059257600080fd5b506105a66105a13660046151d3565b6121f5565b6040516102d69c9b9a99989796959493929190615602565b3480156105ca57600080fd5b506102a26105d9366004614d76565b612406565b6102a26105ec366004614e0f565b61250b565b6106046105ff366004614e6a565b6125a4565b6040516102d691906153ba565b34801561061d57600080fd5b506102a261062c366004614ccf565b6126e4565b6102a261063f366004614e0f565b612742565b34801561065057600080fd5b506103216127d1565b34801561066557600080fd5b506102f46106743660046151d3565b6127f5565b34801561068557600080fd5b506102a2610694366004615232565b6128ab565b6102a26106a7366004614dce565b612929565b3480156106b857600080fd5b506102c96106c7366004614bfe565b612a01565b6102a26106da366004614e0f565b612a2f565b6103616106ed366004614f87565b612aa1565b6001600160e01b0319811660009081526020819052604090205460ff165b919050565b60068054604080516020601f60026000196101006001881615020190951694909404938401819004810282018101909252828152606093909290918301828280156107a15780601f10610776576101008083540402835291602001916107a1565b820191906000526020600020905b81548152906001019060200180831161078457829003601f168201915b5050505050905090565b60006107b682612f6c565b6107db5760405162461bcd60e51b81526004016107d2906154a6565b60405180910390fd5b506000908152600c6020526040902054600160601b90046001600160a01b031690565b6000610809826117f5565b9050806001600160a01b0316836001600160a01b0316141561085c5760405162461bcd60e51b81526004018080602001828103825260218152602001806159716021913960400191505060405180910390fd5b806001600160a01b031661086e612f79565b6001600160a01b0316148061088a575061088a816106c7612f79565b6108c55760405162461bcd60e51b815260040180806020018281038252603881526020018061589b6038913960400191505060405180910390fd5b6108cf8383612f7d565b505050565b60008082356108e33382612ff3565b6108ff5760405162461bcd60e51b81526004016107d290615480565b83608001358061090d61308f565b1115610956576040805162461bcd60e51b8152602060048201526013602482015272151c985b9cd858dd1a5bdb881d1bdbc81bdb19606a1b604482015290519081900360640190fd5b6000610968604087016020880161507d565b6001600160801b03161161097b57600080fd5b84356000908152600c602090815260409182902060018101549092600160801b9091046001600160801b0316916109b691890190890161507d565b6001600160801b0316816001600160801b031610156109d457600080fd5b6001828101546001600160501b03166000908152600b60209081526040808320815160608101835281546001600160a01b039081168252919095015490811692850192909252600160a01b90910462ffffff1690830152610a557f000000000000000000000000000000000000000000000000000000000000000083613095565b60018501549091506001600160a01b0382169063a34123a790600160501b8104600290810b91600160681b9004900b610a9460408e0160208f0161507d565b6040518463ffffffff1660e01b8152600401610ab293929190615447565b6040805180830381600087803b158015610acb57600080fd5b505af1158015610adf573d6000803e3d6000fd5b505050506040513d601f19601f82011682018060405250810190610b03919061520f565b909850965060408901358810801590610b20575088606001358710155b610b3c5760405162461bcd60e51b81526004016107d2906154f2565b6001840154600090610b65903090600160501b8104600290810b91600160681b9004900b613174565b9050600080836001600160a01b031663514ea4bf846040518263ffffffff1660e01b8152600401610b969190615425565b60a06040518083038186803b158015610bae57600080fd5b505afa158015610bc2573d6000803e3d6000fd5b505050506040513d601f19601f82011682018060405250810190610be691906150c7565b50509250925050610c0b87600201548303876001600160801b0316600160801b6131c9565b6004880180546001600160801b03198116928e016001600160801b039182160181169290921790556003880154610c4c91908303908816600160801b6131c9565b6004880180546001600160801b03808216938e01600160801b9283900482160116029190911790556002870182905560038701819055610c9260408d0160208e0161507d565b86038760010160106101000a8154816001600160801b0302191690836001600160801b031602179055508b600001357f26f6a048ee9138f2c0ce266f322cb99228e8d619ae2bff30c67f8dcf9d2377b48d6020016020810190610cf5919061507d565b8d8d604051610d06939291906155af565b60405180910390a2505050505050505050915091565b4715610d2c57610d2c3347613278565b565b6000836001600160a01b0316856001600160a01b031610610d4e57600080fd5b7f00000000000000000000000000000000000000000000000000000000000000006001600160a01b0316631698ee828686866040518463ffffffff1660e01b815260040180846001600160a01b03168152602001836001600160a01b031681526020018262ffffff168152602001935050505060206040518083038186803b158015610dd957600080fd5b505afa158015610ded573d6000803e3d6000fd5b505050506040513d6020811015610e0357600080fd5b505190506001600160a01b038116610f39577f00000000000000000000000000000000000000000000000000000000000000006001600160a01b031663a16712958686866040518463ffffffff1660e01b815260040180846001600160a01b03168152602001836001600160a01b031681526020018262ffffff1681526020019350505050602060405180830381600087803b158015610ea257600080fd5b505af1158015610eb6573d6000803e3d6000fd5b505050506040513d6020811015610ecc57600080fd5b50516040805163f637731d60e01b81526001600160a01b03858116600483015291519293509083169163f637731d9160248082019260009290919082900301818387803b158015610f1c57600080fd5b505af1158015610f30573d6000803e3d6000fd5b5050505061101a565b6000816001600160a01b0316633850c7bd6040518163ffffffff1660e01b815260040160e06040518083038186803b158015610f7457600080fd5b505afa158015610f88573d6000803e3d6000fd5b505050506040513d60e0811015610f9e57600080fd5b505190506001600160a01b03811661101857816001600160a01b031663f637731d846040518263ffffffff1660e01b815260040180826001600160a01b03168152602001915050600060405180830381600087803b158015610fff57600080fd5b505af1158015611013573d6000803e3d6000fd5b505050505b505b949350505050565b600061102e6002613367565b905090565b60008060008360a001358061104661308f565b111561108f576040805162461bcd60e51b8152602060048201526013602482015272151c985b9cd858dd1a5bdb881d1bdbc81bdb19606a1b604482015290519081900360640190fd5b84356000908152600c602090815260408083206001808201546001600160501b0381168652600b855283862084516060808201875282546001600160a01b039081168352929094015480831682890190815262ffffff600160a01b9092048216838901908152885161014081018a528451861681529151909416818a0152925116828701523082850152600160501b8304600290810b810b608080850191909152600160681b909404810b900b60a0830152958c013560c0820152938b013560e0850152908a0135610100840152890135610120830152929061117190613372565b6001870154939a50919850965091506000906111a4903090600160501b8104600290810b91600160681b9004900b613174565b9050600080836001600160a01b031663514ea4bf846040518263ffffffff1660e01b81526004016111d59190615425565b60a06040518083038186803b1580156111ed57600080fd5b505afa158015611201573d6000803e3d6000fd5b505050506040513d601f19601f8201168201806040525081019061122591906150c7565b50509250925050611261866002015483038760010160109054906101000a90046001600160801b03166001600160801b0316600160801b6131c9565b6004870180546001600160801b0380821690930183166001600160801b0319909116179055600387015460018801546112a89291840391600160801b9182900416906131c9565b6004870180546001600160801b03600160801b80830482169094018116840291811691909117909155600288018490556003880183905560018801805483810483168e018316909302929091169190911790556040518b35907f3067048beee31b25b2f1681f88dac838c8bba36af25bfb2b7cf7473a5847e35f90611332908d908d908d906155af565b60405180910390a2505050505050509193909250565b611359611353612f79565b82612ff3565b6113945760405162461bcd60e51b81526004018080602001828103825260318152602001806159926031913960400191505060405180910390fd5b6108cf8383836135ad565b6001600160a01b03821660009081526001602052604081206113c190836136f9565b90505b92915050565b7f49ecf333e5b8c95c40fdafc95c1ad136e8914a8fb55e9dc8bb01eaa83a2df9ad81565b60007f8b73c3c69bb8fe3d512ecc4cf759cc79239f7b179b0ffacaa9a75d522b39400f7f00000000000000000000000000000000000000000000000000000000000000007f000000000000000000000000000000000000000000000000000000000000000061145b613705565b3060405160200180868152602001858152602001848152602001838152602001826001600160a01b031681526020019550505050505060405160208183030381529060405280519060200120905090565b600e55565b6108cf838383604051806020016040528060008152506126e4565b806114d73382612ff3565b6114f35760405162461bcd60e51b81526004016107d290615480565b6000828152600c602052604090206001810154600160801b90046001600160801b031615801561152e575060048101546001600160801b0316155b801561154c57506004810154600160801b90046001600160801b0316155b6115685760405162461bcd60e51b81526004016107d29061554a565b6000838152600c60205260408120818155600181018290556002810182905560038101829055600401556108cf83613709565b604080516323f2ebc360e21b815233600482015230602482015260448101879052606481018690526001608482015260ff851660a482015260c4810184905260e4810183905290516001600160a01b03881691638fcbaf0c9161010480830192600092919082900301818387803b15801561161557600080fd5b505af1158015611629573d6000803e3d6000fd5b50505050505050505050565b60007f00000000000000000000000000000000000000000000000000000000000000006001600160a01b03166370a08231306040518263ffffffff1660e01b815260040180826001600160a01b0316815260200191505060206040518083038186803b1580156116a457600080fd5b505afa1580156116b8573d6000803e3d6000fd5b505050506040513d60208110156116ce57600080fd5b505190508281101561171c576040805162461bcd60e51b8152602060048201526012602482015271496e73756666696369656e7420574554483960701b604482015290519081900360640190fd5b80156108cf5764e8d4a51000810464e8d4a510000290507f00000000000000000000000000000000000000000000000000000000000000006001600160a01b0316632e1a7d4d826040518263ffffffff1660e01b815260040180828152602001915050600060405180830381600087803b15801561179957600080fd5b505af11580156117ad573d6000803e3d6000fd5b505050506108cf8282613278565b7f000000000000000000000000000000000000000000000000000000000000000081565b6000806117ed6002846137d6565b509392505050565b60006113c4826040518060600160405280602981526020016158fd60299139600291906137f4565b606090565b60006001600160a01b0382166118695760405162461bcd60e51b815260040180806020018281038252602a8152602001806158d3602a913960400191505060405180910390fd5b6001600160a01b03821660009081526001602052604090206113c490613367565b8361189361308f565b11156118d7576040805162461bcd60e51b815260206004820152600e60248201526d14195c9b5a5d08195e1c1a5c995960921b604482015290519081900360640190fd5b60006118e16113ee565b7f49ecf333e5b8c95c40fdafc95c1ad136e8914a8fb55e9dc8bb01eaa83a2df9ad888861190d81613801565b604080516020808201969096526001600160a01b03909416848201526060840192909252608083015260a08083018a90528151808403909101815260c08301825280519084012061190160f01b60e084015260e283019490945261010280830194909452805180830390940184526101229091019052815191012090506000611995876117f5565b9050806001600160a01b0316886001600160a01b031614156119e85760405162461bcd60e51b81526004018080602001828103825260278152602001806157fe6027913960400191505060405180910390fd5b6119f181613836565b15611b59576040805160208082018790528183018690526001600160f81b031960f889901b1660608301528251604181840301815260618301808552630b135d3f60e11b90526065830186815260858401948552815160a585015281516001600160a01b03871695631626ba7e958995919260c59091019185019080838360005b83811015611a8a578181015183820152602001611a72565b50505050905090810190601f168015611ab75780820380516001836020036101000a031916815260200191505b50935050505060206040518083038186803b158015611ad557600080fd5b505afa158015611ae9573d6000803e3d6000fd5b505050506040513d6020811015611aff57600080fd5b50516001600160e01b031916630b135d3f60e11b14611b54576040805162461bcd60e51b815260206004820152600c60248201526b155b985d5d1a1bdc9a5e995960a21b604482015290519081900360640190fd5b611c68565b600060018387878760405160008152602001604052604051808581526020018460ff1681526020018381526020018281526020019450505050506020604051602081039080840390855afa158015611bb5573d6000803e3d6000fd5b5050604051601f1901519150506001600160a01b038116611c11576040805162461bcd60e51b8152602060048201526011602482015270496e76616c6964207369676e617475726560781b604482015290519081900360640190fd5b816001600160a01b0316816001600160a01b031614611c66576040805162461bcd60e51b815260206004820152600c60248201526b155b985d5d1a1bdc9a5e995960a21b604482015290519081900360640190fd5b505b611c728888612f7d565b5050505050505050565b60008060008084610140013580611c9161308f565b1115611cda576040805162461bcd60e51b8152602060048201526013602482015272151c985b9cd858dd1a5bdb881d1bdbc81bdb19606a1b604482015290519081900360640190fd5b604080516101408101909152600090611da69080611cfb60208b018b614be2565b6001600160a01b03168152602001896020016020810190611d1c9190614be2565b6001600160a01b03168152602001611d3a60608b0160408c016151b9565b62ffffff168152306020820152604001611d5a60808b0160608c01614f01565b60020b8152602001611d7260a08b0160808c01614f01565b60020b81526020018960a0013581526020018960c0013581526020018960e001358152602001896101000135815250613372565b92975090955093509050611df3611dc561014089016101208a01614be2565b600d80546001600160b01b0319811660016001600160b01b039283169081019092161790915597508761383c565b6000611e1e30611e0960808b0160608c01614f01565b611e1960a08c0160808d01614f01565b613174565b9050600080836001600160a01b031663514ea4bf846040518263ffffffff1660e01b8152600401611e4f9190615425565b60a06040518083038186803b158015611e6757600080fd5b505afa158015611e7b573d6000803e3d6000fd5b505050506040513d601f19601f82011682018060405250810190611e9f91906150c7565b505092509250506000611f188560405180606001604052808e6000016020810190611eca9190614be2565b6001600160a01b031681526020018e6020016020810190611eeb9190614be2565b6001600160a01b031681526020018e6040016020810190611f0c91906151b9565b62ffffff16905261396a565b905060405180610140016040528060006001600160601b0316815260200160006001600160a01b03168152602001826001600160501b031681526020018c6060016020810190611f689190614f01565b60020b8152602001611f8060a08e0160808f01614f01565b60020b81526020018a6001600160801b0316815260200184815260200183815260200160006001600160801b0316815260200160006001600160801b0316815250600c60008c815260200190815260200160002060008201518160000160006101000a8154816001600160601b0302191690836001600160601b03160217905550602082015181600001600c6101000a8154816001600160a01b0302191690836001600160a01b0316021790555060408201518160010160006101000a8154816001600160501b0302191690836001600160501b03160217905550606082015181600101600a6101000a81548162ffffff021916908360020b62ffffff160217905550608082015181600101600d6101000a81548162ffffff021916908360020b62ffffff16021790555060a08201518160010160106101000a8154816001600160801b0302191690836001600160801b0316021790555060c0820151816002015560e082015181600301556101008201518160040160006101000a8154816001600160801b0302191690836001600160801b031602179055506101208201518160040160106101000a8154816001600160801b0302191690836001600160801b03160217905550905050897f3067048beee31b25b2f1681f88dac838c8bba36af25bfb2b7cf7473a5847e35f8a8a8a60405161217f939291906155af565b60405180910390a25050505050509193509193565b60078054604080516020601f60026000196101006001881615020190951694909404938401819004810282018101909252828152606093909290918301828280156107a15780601f10610776576101008083540402835291602001916107a1565b6000818152600c6020908152604080832081516101408101835281546001600160601b03811682526001600160a01b03600160601b909104169381019390935260018101546001600160501b038116928401839052600160501b8104600290810b810b810b6060860152600160681b8204810b810b810b60808601526001600160801b03600160801b92839004811660a08701529083015460c0860152600383015460e0860152600490920154808316610100860152041661012083015282918291829182918291829182918291829182918291906122e65760405162461bcd60e51b81526004016107d290615520565b6000600b600083604001516001600160501b03166001600160501b031681526020019081526020016000206040518060600160405290816000820160009054906101000a90046001600160a01b03166001600160a01b03166001600160a01b031681526020016001820160009054906101000a90046001600160a01b03166001600160a01b03166001600160a01b031681526020016001820160149054906101000a900462ffffff1662ffffff1662ffffff1681525050905081600001518260200151826000015183602001518460400151866060015187608001518860a001518960c001518a60e001518b61010001518c61012001519d509d509d509d509d509d509d509d509d509d509d509d50505091939597999b5091939597999b565b61240e612f79565b6001600160a01b0316826001600160a01b03161415612474576040805162461bcd60e51b815260206004820152601960248201527f4552433732313a20617070726f766520746f2063616c6c657200000000000000604482015290519081900360640190fd5b8060056000612481612f79565b6001600160a01b03908116825260208083019390935260409182016000908120918716808252919093529120805460ff1916921515929092179091556124c5612f79565b6001600160a01b03167f17307eab39ab6107e8899845ad3d59bd9653f200f220920489ca2b5937696c318360405180821515815260200191505060405180910390a35050565b60408051636eb1769f60e11b81523360048201523060248201529051600019916001600160a01b0389169163dd62ed3e91604480820192602092909190829003018186803b15801561255c57600080fd5b505afa158015612570573d6000803e3d6000fd5b505050506040513d602081101561258657600080fd5b5051101561259c5761259c86868686868661159b565b505050505050565b60608167ffffffffffffffff811180156125bd57600080fd5b506040519080825280602002602001820160405280156125f157816020015b60608152602001906001900390816125dc5790505b50905060005b828110156126dd576000803086868581811061260f57fe5b9050602002810190612621919061569c565b60405161262f9291906152ed565b600060405180830381855af49150503d806000811461266a576040519150601f19603f3d011682016040523d82523d6000602084013e61266f565b606091505b5091509150816126bb5760448151101561268857600080fd5b600481019050808060200190518101906126a29190614f1d565b60405162461bcd60e51b81526004016107d2919061546d565b808484815181106126c857fe5b602090810291909101015250506001016125f7565b5092915050565b6126f56126ef612f79565b83612ff3565b6127305760405162461bcd60e51b81526004018080602001828103825260318152602001806159926031913960400191505060405180910390fd5b61273c84848484613a4c565b50505050565b60408051636eb1769f60e11b8152336004820152306024820152905186916001600160a01b0389169163dd62ed3e91604480820192602092909190829003018186803b15801561279157600080fd5b505afa1580156127a5573d6000803e3d6000fd5b505050506040513d60208110156127bb57600080fd5b5051101561259c5761259c868686868686612a2f565b7f000000000000000000000000000000000000000000000000000000000000000081565b606061280082612f6c565b61280957600080fd5b60405163e9dc637560e01b81526001600160a01b037f0000000000000000000000000000000000000000000000000000000000000000169063e9dc637590612857903090869060040161542e565b60006040518083038186803b15801561286f57600080fd5b505afa158015612883573d6000803e3d6000fd5b505050506040513d6000823e601f3d908101601f191682016040526113c49190810190614f1d565b60006128b982840184614fc0565b90506128e97f00000000000000000000000000000000000000000000000000000000000000008260000151613a9e565b50841561290457805151602082015161290491903388613ac1565b83156129225761292281600001516020015182602001513387613ac1565b5050505050565b6000836001600160a01b03166370a08231306040518263ffffffff1660e01b815260040180826001600160a01b0316815260200191505060206040518083038186803b15801561297857600080fd5b505afa15801561298c573d6000803e3d6000fd5b505050506040513d60208110156129a257600080fd5b50519050828110156129f0576040805162461bcd60e51b815260206004820152601260248201527124b739bab33334b1b4b2b73a103a37b5b2b760711b604482015290519081900360640190fd5b801561273c5761273c848383613c51565b6001600160a01b03918216600090815260056020908152604080832093909416825291909152205460ff1690565b6040805163d505accf60e01b8152336004820152306024820152604481018790526064810186905260ff8516608482015260a4810184905260c4810183905290516001600160a01b0388169163d505accf9160e480830192600092919082900301818387803b15801561161557600080fd5b6000808235612ab03382612ff3565b612acc5760405162461bcd60e51b81526004016107d290615480565b6000612ade606086016040870161507d565b6001600160801b03161180612b0b57506000612b00608086016060870161507d565b6001600160801b0316115b612b1457600080fd5b600080612b276040870160208801614be2565b6001600160a01b031614612b4a57612b456040860160208701614be2565b612b4c565b305b85356000908152600c602090815260408083206001808201546001600160501b03168552600b8452828520835160608101855281546001600160a01b039081168252919092015490811694820194909452600160a01b90930462ffffff169183019190915292935090612bdf7f000000000000000000000000000000000000000000000000000000000000000083613095565b600484015460018501549192506001600160801b0380821692600160801b9283900482169290041615612dd557600185015460405163a34123a760e01b81526001600160a01b0385169163a34123a791612c5691600160501b8104600290810b92600160681b909204900b90600090600401615447565b6040805180830381600087803b158015612c6f57600080fd5b505af1158015612c83573d6000803e3d6000fd5b505050506040513d601f19601f82011682018060405250810190612ca7919061520f565b5050600185015460009081906001600160a01b0386169063514ea4bf90612ce5903090600160501b8104600290810b91600160681b9004900b613174565b6040518263ffffffff1660e01b8152600401612d019190615425565b60a06040518083038186803b158015612d1957600080fd5b505afa158015612d2d573d6000803e3d6000fd5b505050506040513d601f19601f82011682018060405250810190612d5191906150c7565b50509250925050612d8d876002015483038860010160109054906101000a90046001600160801b03166001600160801b0316600160801b6131c9565b84019350612dc6876003015482038860010160109054906101000a90046001600160801b03166001600160801b0316600160801b6131c9565b60028801929092556003870155015b6000806001600160801b038416612df260608e0160408f0161507d565b6001600160801b031611612e1557612e1060608d0160408e0161507d565b612e17565b835b836001600160801b03168d6060016020810190612e34919061507d565b6001600160801b031611612e5757612e5260808e0160608f0161507d565b612e59565b835b60018901546040516309e3d67b60e31b81529294509092506001600160a01b03871691634f1eb3d891612eac918c91600160501b8104600290810b92600160681b909204900b9088908890600401615353565b6040805180830381600087803b158015612ec557600080fd5b505af1158015612ed9573d6000803e3d6000fd5b505050506040513d601f19601f82011682018060405250810190612efd9190615099565b6004890180546001600160801b03196001600160801b03918216600160801b878a0384160217168689038216179091556040519281169d50169a508c35907f40d0efd1a53d60ecbf40971b9daf7dc90178c3aadc7aab1765632738fa8b8f0190610d06908b9086908690615390565b60006113c4600283613d98565b3390565b6000818152600c6020526040902080546001600160601b0316600160601b6001600160a01b038516908102919091179091558190612fba826117f5565b6001600160a01b03167f8c5be1e5ebec7d5bd14f71427d1e84f3dd0314c0f7b2291e5b200ac8c7c3b92560405160405180910390a45050565b6000612ffe82612f6c565b6130395760405162461bcd60e51b815260040180806020018281038252602c81526020018061586f602c913960400191505060405180910390fd5b6000613044836117f5565b9050806001600160a01b0316846001600160a01b0316148061307f5750836001600160a01b0316613074846107ab565b6001600160a01b0316145b8061101a575061101a8185612a01565b600e5490565b600081602001516001600160a01b031682600001516001600160a01b0316106130bd57600080fd5b50805160208083015160409384015184516001600160a01b0394851681850152939091168385015262ffffff166060808401919091528351808403820181526080840185528051908301206001600160f81b031960a085015294901b6001600160601b03191660a183015260b58201939093527fd0aea3694b6899e0659f9ac990b71639615601444c2dd3e05521451de0f7ecfe60d5808301919091528251808303909101815260f5909101909152805191012090565b604080516001600160601b0319606086901b16602080830191909152600285810b60e890811b60348501529085900b901b60378301528251601a818403018152603a90920190925280519101205b9392505050565b60008080600019858709868602925082811090839003039050806131ff57600084116131f457600080fd5b5082900490506131c2565b80841161320b57600080fd5b6000848688096000868103871696879004966002600389028118808a02820302808a02820302808a02820302808a02820302808a02820302808a02909103029181900381900460010186841190950394909402919094039290920491909117919091029150509392505050565b604080516000808252602082019092526001600160a01b0384169083906040518082805190602001908083835b602083106132c45780518252601f1990920191602091820191016132a5565b6001836020036101000a03801982511681845116808217855250505050505090500191505060006040518083038185875af1925050503d8060008114613326576040519150601f19603f3d011682016040523d82523d6000602084013e61332b565b606091505b50509050806108cf576040805162461bcd60e51b815260206004820152600360248201526253544560e81b604482015290519081900360640190fd5b60006113c482613da4565b6000806000806000604051806060016040528087600001516001600160a01b0316815260200187602001516001600160a01b03168152602001876040015162ffffff1681525090506133e47f000000000000000000000000000000000000000000000000000000000000000082613095565b91506000826001600160a01b0316633850c7bd6040518163ffffffff1660e01b815260040160e06040518083038186803b15801561342157600080fd5b505afa158015613435573d6000803e3d6000fd5b505050506040513d601f19601f820116820180604052508101906134599190615128565b505050505050905060006134708860800151613da8565b905060006134818960a00151613da8565b90506134988383838c60c001518d60e001516140da565b9750505050816001600160a01b0316633c8a7d8d876060015188608001518960a00151896040518060400160405280888152602001336001600160a01b03168152506040516020016134ea919061556f565b6040516020818303038152906040526040518663ffffffff1660e01b8152600401613519959493929190615311565b6040805180830381600087803b15801561353257600080fd5b505af1158015613546573d6000803e3d6000fd5b505050506040513d601f19601f8201168201806040525081019061356a919061520f565b6101008801519195509350841080159061358957508561012001518310155b6135a55760405162461bcd60e51b81526004016107d2906154f2565b509193509193565b826001600160a01b03166135c0826117f5565b6001600160a01b0316146136055760405162461bcd60e51b81526004018080602001828103825260298152602001806159486029913960400191505060405180910390fd5b6001600160a01b03821661364a5760405162461bcd60e51b81526004018080602001828103825260248152602001806158256024913960400191505060405180910390fd5b6136558383836108cf565b613660600082612f7d565b6001600160a01b0383166000908152600160205260409020613682908261419e565b506001600160a01b03821660009081526001602052604090206136a590826141aa565b506136b2600282846141b6565b5080826001600160a01b0316846001600160a01b03167fddf252ad1be2c89b69c2b068fc378daa952ba7f163c4a11628f55a4df523b3ef60405160405180910390a4505050565b60006113c183836141cc565b4690565b6000613714826117f5565b9050613722816000846108cf565b61372d600083612f7d565b600082815260086020526040902054600260001961010060018416150201909116041561376b57600082815260086020526040812061376b91614b52565b6001600160a01b038116600090815260016020526040902061378d908361419e565b50613799600283614230565b5060405182906000906001600160a01b038416907fddf252ad1be2c89b69c2b068fc378daa952ba7f163c4a11628f55a4df523b3ef908390a45050565b60008080806137e5868661423c565b909450925050505b9250929050565b600061101a8484846142b7565b6000908152600c6020526040902080546001600160601b0319811660016001600160601b039283169081019092161790915590565b3b151590565b6001600160a01b038216613897576040805162461bcd60e51b815260206004820181905260248201527f4552433732313a206d696e7420746f20746865207a65726f2061646472657373604482015290519081900360640190fd5b6138a081612f6c565b156138f2576040805162461bcd60e51b815260206004820152601c60248201527f4552433732313a20746f6b656e20616c7265616479206d696e74656400000000604482015290519081900360640190fd5b6138fe600083836108cf565b6001600160a01b038216600090815260016020526040902061392090826141aa565b5061392d600282846141b6565b5060405181906001600160a01b038416906000907fddf252ad1be2c89b69c2b068fc378daa952ba7f163c4a11628f55a4df523b3ef908290a45050565b6001600160a01b0382166000908152600a60205260409020546001600160501b0316806113c45750600d805460016001600160501b03600160b01b8084048216838101909216026001600160b01b03909316929092179092556001600160a01b038085166000908152600a60209081526040808320805469ffffffffffffffffffff191686179055848352600b825291829020865181549085166001600160a01b031991821617825591870151950180549287015162ffffff16600160a01b0262ffffff60a01b19969094169290911691909117939093161790915592915050565b613a578484846135ad565b613a6384848484614381565b61273c5760405162461bcd60e51b81526004018080602001828103825260328152602001806157cc6032913960400191505060405180910390fd5b6000613aaa8383613095565b9050336001600160a01b038216146113c457600080fd5b7f00000000000000000000000000000000000000000000000000000000000000006001600160a01b0316846001600160a01b0316148015613b025750804710155b15613c24577f00000000000000000000000000000000000000000000000000000000000000006001600160a01b031663d0e30db0826040518263ffffffff1660e01b81526004016000604051808303818588803b158015613b6257600080fd5b505af1158015613b76573d6000803e3d6000fd5b50505050507f00000000000000000000000000000000000000000000000000000000000000006001600160a01b031663a9059cbb83836040518363ffffffff1660e01b815260040180836001600160a01b0316815260200182815260200192505050602060405180830381600087803b158015613bf257600080fd5b505af1158015613c06573d6000803e3d6000fd5b505050506040513d6020811015613c1c57600080fd5b5061273c9050565b6001600160a01b038316301415613c4557613c40848383613c51565b61273c565b61273c848484846144e9565b604080516001600160a01b038481166024830152604480830185905283518084039091018152606490920183526020820180516001600160e01b031663a9059cbb60e01b1781529251825160009485949389169392918291908083835b60208310613ccd5780518252601f199092019160209182019101613cae565b6001836020036101000a0380198251168184511680821785525050505050509050019150506000604051808303816000865af19150503d8060008114613d2f576040519150601f19603f3d011682016040523d82523d6000602084013e613d34565b606091505b5091509150818015613d62575080511580613d625750808060200190516020811015613d5f57600080fd5b50515b612922576040805162461bcd60e51b815260206004820152600260248201526114d560f21b604482015290519081900360640190fd5b60006113c18383614639565b5490565b60008060008360020b12613dbf578260020b613dc7565b8260020b6000035b9050620d89e8811115613e05576040805162461bcd60e51b81526020600482015260016024820152601560fa1b604482015290519081900360640190fd5b600060018216613e1957600160801b613e2b565b6ffffcb933bd6fad37aa2d162d1a5940015b70ffffffffffffffffffffffffffffffffff1690506002821615613e5f576ffff97272373d413259a46990580e213a0260801c5b6004821615613e7e576ffff2e50f5f656932ef12357cf3c7fdcc0260801c5b6008821615613e9d576fffe5caca7e10e4e61c3624eaa0941cd00260801c5b6010821615613ebc576fffcb9843d60f6159c9db58835c9266440260801c5b6020821615613edb576fff973b41fa98c081472e6896dfb254c00260801c5b6040821615613efa576fff2ea16466c96a3843ec78b326b528610260801c5b6080821615613f19576ffe5dee046a99a2a811c461f1969c30530260801c5b610100821615613f39576ffcbe86c7900a88aedcffc83b479aa3a40260801c5b610200821615613f59576ff987a7253ac413176f2b074cf7815e540260801c5b610400821615613f79576ff3392b0822b70005940c7a398e4b70f30260801c5b610800821615613f99576fe7159475a2c29b7443b29c7fa6e889d90260801c5b611000821615613fb9576fd097f3bdfd2022b8845ad8f792aa58250260801c5b612000821615613fd9576fa9f746462d870fdf8a65dc1f90e061e50260801c5b614000821615613ff9576f70d869a156d2a1b890bb3df62baf32f70260801c5b618000821615614019576f31be135f97d08fd981231505542fcfa60260801c5b6201000082161561403a576f09aa508b5b7a84e1c677de54f3e99bc90260801c5b6202000082161561405a576e5d6af8dedb81196699c329225ee6040260801c5b62040000821615614079576d2216e584f5fa1ea926041bedfe980260801c5b62080000821615614096576b048a170391f7dc42444e8fa20260801c5b60008460020b13156140b15780600019816140ad57fe5b0490505b6401000000008106156140c55760016140c8565b60005b60ff16602082901c0192505050919050565b6000836001600160a01b0316856001600160a01b031611156140fa579293925b846001600160a01b0316866001600160a01b0316116141255761411e858585614651565b9050614195565b836001600160a01b0316866001600160a01b0316101561418757600061414c878686614651565b9050600061415b8789866146b4565b9050806001600160801b0316826001600160801b03161061417c578061417e565b815b92505050614195565b6141928585846146b4565b90505b95945050505050565b60006113c183836146f1565b60006113c183836147b7565b600061101a84846001600160a01b038516614801565b8154600090821061420e5760405162461bcd60e51b81526004018080602001828103825260228152602001806157aa6022913960400191505060405180910390fd5b82600001828154811061421d57fe5b9060005260206000200154905092915050565b60006113c18383614898565b8154600090819083106142805760405162461bcd60e51b81526004018080602001828103825260228152602001806159266022913960400191505060405180910390fd5b600084600001848154811061429157fe5b906000526020600020906002020190508060000154816001015492509250509250929050565b600082815260018401602052604081205482816143525760405162461bcd60e51b81526004018080602001828103825283818151815260200191508051906020019080838360005b838110156143175781810151838201526020016142ff565b50505050905090810190601f1680156143445780820380516001836020036101000a031916815260200191505b509250505060405180910390fd5b5084600001600182038154811061436557fe5b9060005260206000209060020201600101549150509392505050565b6000614395846001600160a01b0316613836565b6143a15750600161101a565b60006144af630a85bd0160e11b6143b6612f79565b88878760405160240180856001600160a01b03168152602001846001600160a01b0316815260200183815260200180602001828103825283818151815260200191508051906020019080838360005b8381101561441d578181015183820152602001614405565b50505050905090810190601f16801561444a5780820380516001836020036101000a031916815260200191505b5095505050505050604051602081830303815290604052906001600160e01b0319166020820180516001600160e01b0383818316178352505050506040518060600160405280603281526020016157cc603291396001600160a01b038816919061496c565b905060008180602001905160208110156144c857600080fd5b50516001600160e01b031916630a85bd0160e11b1492505050949350505050565b604080516001600160a01b0385811660248301528481166044830152606480830185905283518084039091018152608490920183526020820180516001600160e01b03166323b872dd60e01b178152925182516000948594938a169392918291908083835b6020831061456d5780518252601f19909201916020918201910161454e565b6001836020036101000a0380198251168184511680821785525050505050509050019150506000604051808303816000865af19150503d80600081146145cf576040519150601f19603f3d011682016040523d82523d6000602084013e6145d4565b606091505b509150915081801561460257508051158061460257508080602001905160208110156145ff57600080fd5b50515b61259c576040805162461bcd60e51b815260206004820152600360248201526229aa2360e91b604482015290519081900360640190fd5b60009081526001919091016020526040902054151590565b6000826001600160a01b0316846001600160a01b03161115614671579192915b6000614694856001600160a01b0316856001600160a01b0316600160601b6131c9565b90506141956146af84838888036001600160a01b03166131c9565b61497b565b6000826001600160a01b0316846001600160a01b031611156146d4579192915b61101a6146af83600160601b8787036001600160a01b03166131c9565b600081815260018301602052604081205480156147ad578354600019808301919081019060009087908390811061472457fe5b906000526020600020015490508087600001848154811061474157fe5b60009182526020808320909101929092558281526001898101909252604090209084019055865487908061477157fe5b600190038181906000526020600020016000905590558660010160008781526020019081526020016000206000905560019450505050506113c4565b60009150506113c4565b60006147c38383614639565b6147f9575081546001818101845560008481526020808220909301849055845484825282860190935260409020919091556113c4565b5060006113c4565b6000828152600184016020526040812054806148665750506040805180820182528381526020808201848152865460018181018955600089815284812095516002909302909501918255915190820155865486845281880190925292909120556131c2565b8285600001600183038154811061487957fe5b90600052602060002090600202016001018190555060009150506131c2565b600081815260018301602052604081205480156147ad57835460001980830191908101906000908790839081106148cb57fe5b90600052602060002090600202019050808760000184815481106148eb57fe5b60009182526020808320845460029093020191825560019384015491840191909155835482528983019052604090209084019055865487908061492a57fe5b60008281526020808220600260001990940193840201828155600190810183905592909355888152898201909252604082209190915594506113c49350505050565b606061101a8484600085614991565b806001600160801b038116811461071057600080fd5b6060824710156149d25760405162461bcd60e51b81526004018080602001828103825260268152602001806158496026913960400191505060405180910390fd5b6149db85613836565b614a2c576040805162461bcd60e51b815260206004820152601d60248201527f416464726573733a2063616c6c20746f206e6f6e2d636f6e7472616374000000604482015290519081900360640190fd5b600080866001600160a01b031685876040518082805190602001908083835b60208310614a6a5780518252601f199092019160209182019101614a4b565b6001836020036101000a03801982511681845116808217855250505050505090500191505060006040518083038185875af1925050503d8060008114614acc576040519150601f19603f3d011682016040523d82523d6000602084013e614ad1565b606091505b5091509150614ae1828286614aec565b979650505050505050565b60608315614afb5750816131c2565b825115614b0b5782518084602001fd5b60405162461bcd60e51b81526020600482018181528451602484015284518593919283926044019190850190808383600083156143175781810151838201526020016142ff565b50805460018160011615610100020316600290046000825580601f10614b785750614b96565b601f016020900490600052602060002090810190614b969190614b99565b50565b5b80821115614bae5760008155600101614b9a565b5090565b803561071081615753565b805161ffff8116811461071057600080fd5b803562ffffff8116811461071057600080fd5b600060208284031215614bf3578081fd5b81356131c281615753565b60008060408385031215614c10578081fd5b8235614c1b81615753565b91506020830135614c2b81615753565b809150509250929050565b60008060008060808587031215614c4b578182fd5b8435614c5681615753565b93506020850135614c6681615753565b9250614c7460408601614bcf565b91506060850135614c8481615753565b939692955090935050565b600080600060608486031215614ca3578081fd5b8335614cae81615753565b92506020840135614cbe81615753565b929592945050506040919091013590565b60008060008060808587031215614ce4578182fd5b8435614cef81615753565b93506020850135614cff81615753565b925060408501359150606085013567ffffffffffffffff811115614d21578182fd5b8501601f81018713614d31578182fd5b8035614d44614d3f82615705565b6156e1565b818152886020838501011115614d58578384fd5b81602084016020830137908101602001929092525092959194509250565b60008060408385031215614d88578182fd5b8235614d9381615753565b91506020830135614c2b81615768565b60008060408385031215614db5578182fd5b8235614dc081615753565b946020939093013593505050565b600080600060608486031215614de2578081fd5b8335614ded81615753565b9250602084013591506040840135614e0481615753565b809150509250925092565b60008060008060008060c08789031215614e27578384fd5b8635614e3281615753565b955060208701359450604087013593506060870135614e508161579a565b9598949750929560808101359460a0909101359350915050565b60008060208385031215614e7c578182fd5b823567ffffffffffffffff80821115614e93578384fd5b818501915085601f830112614ea6578384fd5b813581811115614eb4578485fd5b8660208083028501011115614ec7578485fd5b60209290920196919550909350505050565b600060208284031215614eea578081fd5b81356001600160e01b0319811681146131c2578182fd5b600060208284031215614f12578081fd5b81356131c281615776565b600060208284031215614f2e578081fd5b815167ffffffffffffffff811115614f44578182fd5b8201601f81018413614f54578182fd5b8051614f62614d3f82615705565b818152856020838501011115614f76578384fd5b614195826020830160208601615727565b600060808284031215614f98578081fd5b50919050565b600060a08284031215614f98578081fd5b600060c08284031215614f98578081fd5b60008183036080811215614fd2578182fd5b6040516040810167ffffffffffffffff8282108183111715614ff057fe5b816040526060841215615001578485fd5b60a083019350818410818511171561501557fe5b50826040528435925061502783615753565b91825260208401359161503983615753565b82606083015261504b60408601614bcf565b6080830152815261505e60608501614bb2565b6020820152949350505050565b60006101608284031215614f98578081fd5b60006020828403121561508e578081fd5b81356131c281615785565b600080604083850312156150ab578182fd5b82516150b681615785565b6020840151909250614c2b81615785565b600080600080600060a086880312156150de578283fd5b85516150e981615785565b809550506020860151935060408601519250606086015161510981615785565b608087015190925061511a81615785565b809150509295509295909350565b600080600080600080600060e0888a031215615142578485fd5b875161514d81615753565b602089015190975061515e81615776565b955061516c60408901614bbd565b945061517a60608901614bbd565b935061518860808901614bbd565b925060a08801516151988161579a565b60c08901519092506151a981615768565b8091505092959891949750929550565b6000602082840312156151ca578081fd5b6113c182614bcf565b6000602082840312156151e4578081fd5b5035919050565b600080604083850312156151fd578182fd5b823591506020830135614c2b81615753565b60008060408385031215615221578182fd5b505080516020909101519092909150565b60008060008060608587031215615247578182fd5b8435935060208501359250604085013567ffffffffffffffff8082111561526c578384fd5b818701915087601f83011261527f578384fd5b81358181111561528d578485fd5b88602082850101111561529e578485fd5b95989497505060200194505050565b600081518084526152c5816020860160208601615727565b601f01601f19169290920160200192915050565b60020b9052565b6001600160801b03169052565b6000828483379101908152919050565b6001600160a01b0391909116815260200190565b600060018060a01b03871682528560020b60208301528460020b60408301526001600160801b038416606083015260a06080830152614ae160a08301846152ad565b6001600160a01b03959095168552600293840b60208601529190920b60408401526001600160801b03918216606084015216608082015260a00190565b6001600160a01b039390931683526001600160801b03918216602084015216604082015260600190565b6000602080830181845280855180835260408601915060408482028701019250838701855b8281101561540d57603f198886030184526153fb8583516152ad565b945092850192908501906001016153df565b5092979650505050505050565b901515815260200190565b90815260200190565b6001600160a01b03929092168252602082015260400190565b600293840b81529190920b60208201526001600160801b03909116604082015260600190565b6000602082526113c160208301846152ad565b6020808252600c908201526b139bdd08185c1c1c9bdd995960a21b604082015260600190565b6020808252602c908201527f4552433732313a20617070726f76656420717565727920666f72206e6f6e657860408201526b34b9ba32b73a103a37b5b2b760a11b606082015260800190565b602080825260149082015273507269636520736c69707061676520636865636b60601b604082015260600190565b60208082526010908201526f125b9d985b1a59081d1bdad95b88125160821b604082015260600190565b6020808252600b908201526a139bdd0818db19585c995960aa1b604082015260600190565b815180516001600160a01b03908116835260208083015182168185015260409283015162ffffff1692840192909252920151909116606082015260800190565b6001600160801b039390931683526020830191909152604082015260600190565b9384526001600160801b039290921660208401526040830152606082015260800190565b918252602082015260400190565b6001600160601b038d1681526001600160a01b038c811660208301528b811660408301528a16606082015262ffffff89166080820152600288900b60a0820152610180810161565460c08301896152d9565b61566160e08301886152e0565b856101008301528461012083015261567d6101408301856152e0565b61568b6101608301846152e0565b9d9c50505050505050505050505050565b6000808335601e198436030181126156b2578283fd5b83018035915067ffffffffffffffff8211156156cc578283fd5b6020019150368190038213156137ed57600080fd5b60405181810167ffffffffffffffff811182821017156156fd57fe5b604052919050565b600067ffffffffffffffff82111561571957fe5b50601f01601f191660200190565b60005b8381101561574257818101518382015260200161572a565b8381111561273c5750506000910152565b6001600160a01b0381168114614b9657600080fd5b8015158114614b9657600080fd5b8060020b8114614b9657600080fd5b6001600160801b0381168114614b9657600080fd5b60ff81168114614b9657600080fdfe456e756d657261626c655365743a20696e646578206f7574206f6620626f756e64734552433732313a207472616e7366657220746f206e6f6e20455243373231526563656976657220696d706c656d656e7465724552433732315065726d69743a20617070726f76616c20746f2063757272656e74206f776e65724552433732313a207472616e7366657220746f20746865207a65726f2061646472657373416464726573733a20696e73756666696369656e742062616c616e636520666f722063616c6c4552433732313a206f70657261746f7220717565727920666f72206e6f6e6578697374656e7420746f6b656e4552433732313a20617070726f76652063616c6c6572206973206e6f74206f776e6572206e6f7220617070726f76656420666f7220616c6c4552433732313a2062616c616e636520717565727920666f7220746865207a65726f20616464726573734552433732313a206f776e657220717565727920666f72206e6f6e6578697374656e7420746f6b656e456e756d657261626c654d61703a20696e646578206f7574206f6620626f756e64734552433732313a207472616e73666572206f6620746f6b656e2074686174206973206e6f74206f776e4552433732313a20617070726f76616c20746f2063757272656e74206f776e65724552433732313a207472616e736665722063616c6c6572206973206e6f74206f776e6572206e6f7220617070726f766564a2646970667358221220aab057b06dae4f67fc719a665acab46b1acffdbc36f36f5bc3f5aab6d79ced7b64736f6c63430007060033",
  "linkReferences": {},
  "deployedLinkReferences": {}
}