{
  "_format": "hh-sol-artifact-1",
  "contractName": "NonfungiblePositionManagerPositionsGasTest",
  "sourceName": "contracts/test/NonfungiblePositionManagerPositionsGasTest.sol",
  "abi": [
    {
      "inputs": [
        {
          "internalType": "contract INonfungiblePositionManager",
          "name": "_nonfungiblePositionManager",
          "type": "address"
        }
      ],
      "stateMutability": "nonpayable",
      "type": "constructor"
    },
    {
      "inputs": [
        {
          "internalType": "uint256",
          "name": "tokenId",
          "type": "uint256"
        }
      ],
      "name": "getGasCostOfPositions",
      "outputs": [
        {
          "internalType": "uint256",
          "name": "",
          "type": "uint256"
        }
      ],
      "stateMutability": "view",
      "type": "function"
    }
  ],
  "bytecode": "0x60a060405234801561001057600080fd5b506040516101933803806101938339818101604052602081101561003357600080fd5b5051606081901b6001600160601b0319166080526001600160a01b031661012d610066600039806061525061012d6000f3fe6080604052348015600f57600080fd5b506004361060285760003560e01c8063994ea42c14602d575b600080fd5b604760048036036020811015604157600080fd5b50356059565b60408051918252519081900360200190f35b6000805a90507f00000000000000000000000000000000000000000000000000000000000000006001600160a01b03166399fbab88846040518263ffffffff1660e01b8152600401808281526020019150506101806040518083038186803b15801560c357600080fd5b505afa15801560d6573d6000803e3d6000fd5b505050506040513d61018081101560ec57600080fd5b50505a90039291505056fea2646970667358221220ffce23a0561477e176f51ab2b7a4b0c7dfd73877debe48acc1cded1ba74bb2fc64736f6c63430007060033",
  "linkReferences": {},
  "deployedLinkReferences": {}
}