{
  "_format": "hh-sol-artifact-1",
  "contractName": "TickLens",
  "sourceName": "contracts/lens/TickLens.sol",
  "abi": [
    {
      "inputs": [
        {
          "internalType": "address",
          "name": "pool",
          "type": "address"
        },
        {
          "internalType": "int16",
          "name": "tickBitmapIndex",
          "type": "int16"
        }
      ],
      "name": "getPopulatedTicksInWord",
      "outputs": [
        {
          "components": [
            {
              "internalType": "int24",
              "name": "tick",
              "type": "int24"
            },
            {
              "internalType": "int128",
              "name": "liquidityNet",
              "type": "int128"
            },
            {
              "internalType": "uint128",
              "name": "liquidityGross",
              "type": "uint128"
            }
          ],
          "internalType": "struct ITickLens.PopulatedTick[]",
          "name": "populatedTicks",
          "type": "tuple[]"
        },
        {
          "internalType": "uint256",
          "name": "height",
          "type": "uint256"
        }
      ],
      "stateMutability": "view",
      "type": "function"
    },
    {
      "inputs": [
        {
          "internalType": "address",
          "name": "pool",
          "type": "address"
        },
        {
          "internalType": "int24",
          "name": "tick",
          "type": "int24"
        }
      ],
      "name": "ticks",
      "outputs": [
        {
          "internalType": "uint128",
          "name": "",
          "type": "uint128"
        },
        {
          "internalType": "int128",
          "name": "",
          "type": "int128"
        },
        {
          "internalType": "uint256",
          "name": "",
          "type": "uint256"
        }
      ],
      "stateMutability": "view",
      "type": "function"
    }
  ],
  "bytecode": "0x608060405234801561001057600080fd5b5061065b806100206000396000f3fe608060405234801561001057600080fd5b50600436106100365760003560e01c80630fc142f31461003b578063351fb47814610066575b600080fd5b61004e610049366004610440565b610087565b60405161005d939291906105da565b60405180910390f35b610079610074366004610402565b610123565b60405161005d92919061054f565b6000806000806000866001600160a01b031663f30dba93876040518263ffffffff1660e01b81526004016100bb91906105cc565b6101006040518083038186803b1580156100d457600080fd5b505afa1580156100e8573d6000803e3d6000fd5b505050506040513d601f19601f8201168201806040525081019061010c9190610490565b50959d949c50439b50939950505050505050505050565b6060600080846001600160a01b0316635339c296856040518263ffffffff1660e01b815260040161015491906105be565b60206040518083038186803b15801561016c57600080fd5b505afa158015610180573d6000803e3d6000fd5b505050506040513d601f19601f820116820180604052508101906101a49190610537565b90506000805b6101008110156101ce576001811b8316156101c6576001909101905b6001016101aa565b506000866001600160a01b031663d0c93a7c6040518163ffffffff1660e01b815260040160206040518083038186803b15801561020a57600080fd5b505afa15801561021e573d6000803e3d6000fd5b505050506040513d601f19601f82011682018060405250810190610242919061046d565b90508167ffffffffffffffff8111801561025b57600080fd5b5060405190808252806020026020018201604052801561029557816020015b6102826103ae565b81526020019060019003908161027a5790505b50945060005b6101008110156103a0576001811b8416156103985760405163f30dba9360e01b8152600188900b60020b60081b820183029060009081906001600160a01b038c169063f30dba93906102f19086906004016105cc565b6101006040518083038186803b15801561030a57600080fd5b505afa15801561031e573d6000803e3d6000fd5b505050506040513d601f19601f820116820180604052508101906103429190610490565b5050505050509150915060405180606001604052808460020b815260200182600f0b8152602001836001600160801b03168152508987600190039750878151811061038957fe5b60200260200101819052505050505b60010161029b565b504393505050509250929050565b604080516060810182526000808252602082018190529181019190915290565b805180151581146103de57600080fd5b919050565b80516103de816105fe565b805163ffffffff811681146103de57600080fd5b60008060408385031215610414578182fd5b823561041f816105fe565b91506020830135600181900b8114610435578182fd5b809150509250929050565b60008060408385031215610452578182fd5b823561045d816105fe565b9150602083013561043581610616565b60006020828403121561047e578081fd5b815161048981610616565b9392505050565b600080600080600080600080610100898b0312156104ac578384fd5b88516001600160801b03811681146104c2578485fd5b80985050602089015180600f0b81146104d9578485fd5b80975050604089015195506060890151945060808901518060060b81146104fe578485fd5b935061050c60a08a016103e3565b925061051a60c08a016103ee565b915061052860e08a016103ce565b90509295985092959890939650565b600060208284031215610548578081fd5b5051919050565b6040808252835182820181905260009190606090818501906020808901865b838110156105aa578151805160020b865283810151600f0b848701528701516001600160801b031687860152938501939082019060010161056e565b505095909501959095525092949350505050565b60019190910b815260200190565b60029190910b815260200190565b6001600160801b03939093168352600f9190910b6020830152604082015260600190565b6001600160a01b038116811461061357600080fd5b50565b8060020b811461061357600080fdfea264697066735822122069c3d4f9c99c6a48973a7b596982189f53ceb3d6c5eb59202c9181d16619c7a964736f6c63430007060033",
  "linkReferences": {},
  "deployedLinkReferences": {}
}