{
  "_format": "hh-sol-artifact-1",
  "contractName": "TickLens",
  "sourceName": "contracts/lens/TickLens.sol",
  "abi": [
    {
      "inputs": [
        {
          "internalType": "address",
          "name": "pool",
          "type": "address"
        },
        {
          "internalType": "int16",
          "name": "tickBitmapIndex",
          "type": "int16"
        }
      ],
      "name": "getPopulatedTicksInWord",
      "outputs": [
        {
          "components": [
            {
              "internalType": "int24",
              "name": "tick",
              "type": "int24"
            },
            {
              "internalType": "int128",
              "name": "liquidityNet",
              "type": "int128"
            },
            {
              "internalType": "uint128",
              "name": "liquidityGross",
              "type": "uint128"
            }
          ],
          "internalType": "struct ITickLens.PopulatedTick[]",
          "name": "populatedTicks",
          "type": "tuple[]"
        },
        {
          "internalType": "uint256",
          "name": "height",
          "type": "uint256"
        }
      ],
      "stateMutability": "view",
      "type": "function"
    },
    {
      "inputs": [
        {
          "internalType": "address",
          "name": "pool",
          "type": "address"
        }
      ],
      "name": "tickLiquidity",
      "outputs": [
        {
          "internalType": "uint160",
          "name": "",
          "type": "uint160"
        },
        {
          "internalType": "int24",
          "name": "",
          "type": "int24"
        },
        {
          "internalType": "uint128",
          "name": "",
          "type": "uint128"
        },
        {
          "internalType": "uint256",
          "name": "",
          "type": "uint256"
        }
      ],
      "stateMutability": "view",
      "type": "function"
    },
    {
      "inputs": [
        {
          "internalType": "address",
          "name": "pool",
          "type": "address"
        },
        {
          "internalType": "int24",
          "name": "tick",
          "type": "int24"
        }
      ],
      "name": "ticks",
      "outputs": [
        {
          "internalType": "uint128",
          "name": "",
          "type": "uint128"
        },
        {
          "internalType": "int128",
          "name": "",
          "type": "int128"
        },
        {
          "internalType": "uint256",
          "name": "",
          "type": "uint256"
        }
      ],
      "stateMutability": "view",
      "type": "function"
    }
  ],
  "bytecode": "0x608060405234801561001057600080fd5b50610892806100206000396000f3fe608060405234801561001057600080fd5b50600436106100415760003560e01c806309dd705b146100465780630fc142f314610072578063351fb47814610094575b600080fd5b610059610054366004610541565b6100b5565b6040516100699493929190610803565b60405180910390f35b6100856100803660046105a2565b6101bc565b604051610069939291906107df565b6100a76100a2366004610564565b610258565b604051610069929190610754565b600080600080600080866001600160a01b0316633850c7bd6040518163ffffffff1660e01b815260040160e06040518083038186803b1580156100f757600080fd5b505afa15801561010b573d6000803e3d6000fd5b505050506040513d601f19601f8201168201806040525081019061012f91906106ab565b5050505050915091506000876001600160a01b0316631a6865026040518163ffffffff1660e01b815260040160206040518083038186803b15801561017357600080fd5b505afa158015610187573d6000803e3d6000fd5b505050506040513d601f19601f820116820180604052508101906101ab91906105eb565b929891975091955043945092505050565b6000806000806000866001600160a01b031663f30dba93876040518263ffffffff1660e01b81526004016101f091906107d1565b6101006040518083038186803b15801561020957600080fd5b505afa15801561021d573d6000803e3d6000fd5b505050506040513d601f19601f820116820180604052508101906102419190610605565b50959d949c50439b50939950505050505050505050565b6060600080846001600160a01b0316635339c296856040518263ffffffff1660e01b815260040161028991906107c3565b60206040518083038186803b1580156102a157600080fd5b505afa1580156102b5573d6000803e3d6000fd5b505050506040513d601f19601f820116820180604052508101906102d9919061073c565b90506000805b610100811015610303576001811b8316156102fb576001909101905b6001016102df565b506000866001600160a01b031663d0c93a7c6040518163ffffffff1660e01b815260040160206040518083038186803b15801561033f57600080fd5b505afa158015610353573d6000803e3d6000fd5b505050506040513d601f19601f8201168201806040525081019061037791906105cf565b90508167ffffffffffffffff8111801561039057600080fd5b506040519080825280602002602001820160405280156103ca57816020015b6103b76104e3565b8152602001906001900390816103af5790505b50945060005b6101008110156104d5576001811b8416156104cd5760405163f30dba9360e01b8152600188900b60020b60081b820183029060009081906001600160a01b038c169063f30dba93906104269086906004016107d1565b6101006040518083038186803b15801561043f57600080fd5b505afa158015610453573d6000803e3d6000fd5b505050506040513d601f19601f820116820180604052508101906104779190610605565b5050505050509150915060405180606001604052808460020b815260200182600f0b8152602001836001600160801b0316815250898760019003975087815181106104be57fe5b60200260200101819052505050505b6001016103d0565b504393505050509250929050565b604080516060810182526000808252602082018190529181019190915290565b8051801515811461051357600080fd5b919050565b80516001600160801b038116811461051357600080fd5b805161ffff8116811461051357600080fd5b600060208284031215610552578081fd5b813561055d81610835565b9392505050565b60008060408385031215610576578081fd5b823561058181610835565b91506020830135600181900b8114610597578182fd5b809150509250929050565b600080604083850312156105b4578182fd5b82356105bf81610835565b915060208301356105978161084d565b6000602082840312156105e0578081fd5b815161055d8161084d565b6000602082840312156105fc578081fd5b61055d82610518565b600080600080600080600080610100898b031215610621578384fd5b61062a89610518565b9750602089015180600f0b811461063f578485fd5b80975050604089015195506060890151945060808901518060060b8114610664578485fd5b60a08a015190945061067581610835565b60c08a015190935063ffffffff8116811461068e578283fd5b915061069c60e08a01610503565b90509295985092959890939650565b600080600080600080600060e0888a0312156106c5578283fd5b87516106d081610835565b60208901519097506106e18161084d565b95506106ef6040890161052f565b94506106fd6060890161052f565b935061070b6080890161052f565b925060a088015160ff81168114610720578283fd5b915061072e60c08901610503565b905092959891949750929550565b60006020828403121561074d578081fd5b5051919050565b6040808252835182820181905260009190606090818501906020808901865b838110156107af578151805160020b865283810151600f0b848701528701516001600160801b0316878601529385019390820190600101610773565b505095909501959095525092949350505050565b60019190910b815260200190565b60029190910b815260200190565b6001600160801b03939093168352600f9190910b6020830152604082015260600190565b6001600160a01b0394909416845260029290920b60208401526001600160801b03166040830152606082015260800190565b6001600160a01b038116811461084a57600080fd5b50565b8060020b811461084a57600080fdfea264697066735822122009c62abb54ab21d5dde6f607d7f8c10b5be4a307a76d65fbc6885c242580448964736f6c63430007060033",
  "linkReferences": {},
  "deployedLinkReferences": {}
}