{
  "_format": "hh-sol-artifact-1",
  "contractName": "Quoter",
  "sourceName": "contracts/lens/Quoter.sol",
  "abi": [
    {
      "inputs": [
        {
          "internalType": "address",
          "name": "_factory",
          "type": "address"
        },
        {
          "internalType": "address",
          "name": "_WETH9",
          "type": "address"
        },
        {
          "internalType": "address",
          "name": "_nft",
          "type": "address"
        }
      ],
      "stateMutability": "nonpayable",
      "type": "constructor"
    },
    {
      "inputs": [],
      "name": "WETH9",
      "outputs": [
        {
          "internalType": "address",
          "name": "",
          "type": "address"
        }
      ],
      "stateMutability": "view",
      "type": "function"
    },
    {
      "inputs": [],
      "name": "factory",
      "outputs": [
        {
          "internalType": "address",
          "name": "",
          "type": "address"
        }
      ],
      "stateMutability": "view",
      "type": "function"
    },
    {
      "inputs": [],
      "name": "nft",
      "outputs": [
        {
          "internalType": "contract INonfungiblePositionManager",
          "name": "",
          "type": "address"
        }
      ],
      "stateMutability": "view",
      "type": "function"
    },
    {
      "inputs": [
        {
          "internalType": "uint256",
          "name": "tokenId",
          "type": "uint256"
        }
      ],
      "name": "queryFee",
      "outputs": [
        {
          "internalType": "uint256",
          "name": "",
          "type": "uint256"
        },
        {
          "internalType": "uint256",
          "name": "",
          "type": "uint256"
        }
      ],
      "stateMutability": "view",
      "type": "function"
    },
    {
      "inputs": [
        {
          "internalType": "bytes",
          "name": "path",
          "type": "bytes"
        },
        {
          "internalType": "uint256",
          "name": "amountIn",
          "type": "uint256"
        }
      ],
      "name": "quoteExactInput",
      "outputs": [
        {
          "internalType": "uint256",
          "name": "amountOut",
          "type": "uint256"
        }
      ],
      "stateMutability": "nonpayable",
      "type": "function"
    },
    {
      "inputs": [
        {
          "internalType": "address",
          "name": "tokenIn",
          "type": "address"
        },
        {
          "internalType": "address",
          "name": "tokenOut",
          "type": "address"
        },
        {
          "internalType": "uint24",
          "name": "fee",
          "type": "uint24"
        },
        {
          "internalType": "uint256",
          "name": "amountIn",
          "type": "uint256"
        },
        {
          "internalType": "uint160",
          "name": "sqrtPriceLimitX96",
          "type": "uint160"
        }
      ],
      "name": "quoteExactInputSingle",
      "outputs": [
        {
          "internalType": "uint256",
          "name": "amountOut",
          "type": "uint256"
        }
      ],
      "stateMutability": "nonpayable",
      "type": "function"
    },
    {
      "inputs": [
        {
          "internalType": "bytes",
          "name": "path",
          "type": "bytes"
        },
        {
          "internalType": "uint256",
          "name": "amountOut",
          "type": "uint256"
        }
      ],
      "name": "quoteExactOutput",
      "outputs": [
        {
          "internalType": "uint256",
          "name": "amountIn",
          "type": "uint256"
        }
      ],
      "stateMutability": "nonpayable",
      "type": "function"
    },
    {
      "inputs": [
        {
          "internalType": "address",
          "name": "tokenIn",
          "type": "address"
        },
        {
          "internalType": "address",
          "name": "tokenOut",
          "type": "address"
        },
        {
          "internalType": "uint24",
          "name": "fee",
          "type": "uint24"
        },
        {
          "internalType": "uint256",
          "name": "amountOut",
          "type": "uint256"
        },
        {
          "internalType": "uint160",
          "name": "sqrtPriceLimitX96",
          "type": "uint160"
        }
      ],
      "name": "quoteExactOutputSingle",
      "outputs": [
        {
          "internalType": "uint256",
          "name": "amountIn",
          "type": "uint256"
        }
      ],
      "stateMutability": "nonpayable",
      "type": "function"
    },
    {
      "inputs": [
        {
          "internalType": "int256",
          "name": "amount0Delta",
          "type": "int256"
        },
        {
          "internalType": "int256",
          "name": "amount1Delta",
          "type": "int256"
        },
        {
          "internalType": "bytes",
          "name": "path",
          "type": "bytes"
        }
      ],
      "name": "uniswapV3SwapCallback",
      "outputs": [],
      "stateMutability": "view",
      "type": "function"
    }
  ],
  "bytecode": "0x60e060405234801561001057600080fd5b50604051620014843803806200148483398101604081905261003191610074565b6001600160601b0319606093841b811660805291831b821660a05290911b1660c0526100b6565b80516001600160a01b038116811461006f57600080fd5b919050565b600080600060608486031215610088578283fd5b61009184610058565b925061009f60208501610058565b91506100ad60408501610058565b90509250925092565b60805160601c60a05160601c60c05160601c611384620001006000398061033e528061041352806104ff5250806105235250806105475280610722528061082352506113846000f3fe608060405234801561001057600080fd5b50600436106100935760003560e01c80634aa4a4fc116100665780634aa4a4fc1461010a578063c45a015514610112578063cdca17531461011a578063f7729d431461012d578063fa461e331461014057610093565b80632f80bb1d1461009857806330d07f21146100c1578063466d4742146100d457806347ccca02146100f5575b600080fd5b6100ab6100a6366004610f1c565b610155565b6040516100b8919061125b565b60405180910390f35b6100ab6100cf366004610eb5565b6101ba565b6100e76100e2366004611090565b61032d565b6040516100b89291906112a1565b6100fd6104fd565b6040516100b89190611201565b6100fd610521565b6100fd610545565b6100ab610128366004610f1c565b610569565b6100ab61013b366004610eb5565b6105b7565b61015361014e366004610f82565b6106f1565b005b60005b6000610163846107c8565b90506000806000610173876107d4565b9250925092506101878284838960006101ba565b9550831561019f5761019887610805565b96506101ab565b859450505050506101b4565b50505050610158565b92915050565b60006001600160a01b03808616878216109083166101d85760008490555b6101e387878761081c565b6001600160a01b031663128acb0830836101fc8861085c565b6000036001600160a01b03881615610214578761023a565b856102335773fffd8963efd1fc6a506488495d951d5263988d2561023a565b6401000276a45b8b8b8e60405160200161024f939291906111cb565b6040516020818303038152906040526040518663ffffffff1660e01b815260040161027e959493929190611215565b6040805180830381600087803b15801561029757600080fd5b505af19250505080156102c7575060408051601f3d908101601f191682019092526102c491810190610f5f565b60015b610320573d8080156102f5576040519150601f19603f3d011682016040523d82523d6000602084013e6102fa565b606091505b506001600160a01b03841661030e57600080555b61031781610872565b92505050610324565b5050505b95945050505050565b6000806000806000806000806000807f00000000000000000000000000000000000000000000000000000000000000006001600160a01b03166399fbab888c6040518263ffffffff1660e01b8152600401610388919061125b565b6101806040518083038186803b1580156103a157600080fd5b505afa1580156103b5573d6000803e3d6000fd5b505050506040513d601f19601f820116820180604052508101906103d991906110c0565b505099509950995099509950995099509950505060006103fa89898961081c565b9050600080826001600160a01b031663514ea4bf6104397f00000000000000000000000000000000000000000000000000000000000000008b8b6108ef565b6040518263ffffffff1660e01b8152600401610455919061125b565b60a06040518083038186803b15801561046d57600080fd5b505afa158015610481573d6000803e3d6000fd5b505050506040513d601f19601f820116820180604052508101906104a5919061103a565b5050925092505060006104c8868403886001600160801b0316600160801b610940565b905060006104e6868403896001600160801b0316600160801b610940565b919e50909c50505050505050505050505050915091565b7f000000000000000000000000000000000000000000000000000000000000000081565b7f000000000000000000000000000000000000000000000000000000000000000081565b7f000000000000000000000000000000000000000000000000000000000000000081565b60005b6000610577846107c8565b90506000806000610587876107d4565b92509250925061059b8383838960006105b7565b9550831561019f576105ac87610805565b96505050505061056c565b60006001600160a01b03808616908716106105d387878761081c565b6001600160a01b031663128acb0830836105ec8861085c565b6001600160a01b038816156106015787610627565b856106205773fffd8963efd1fc6a506488495d951d5263988d25610627565b6401000276a45b8c8b8d60405160200161063c939291906111cb565b6040516020818303038152906040526040518663ffffffff1660e01b815260040161066b959493929190611215565b6040805180830381600087803b15801561068457600080fd5b505af19250505080156106b4575060408051601f3d908101601f191682019092526106b191810190610f5f565b60015b610320573d8080156106e2576040519150601f19603f3d011682016040523d82523d6000602084013e6106e7565b606091505b5061031781610872565b60008313806107005750600082135b61070957600080fd5b6000806000610717846107d4565b9250925092506107497f00000000000000000000000000000000000000000000000000000000000000008484846109ef565b50600080600080891361077557856001600160a01b0316856001600160a01b031610888a600003610790565b846001600160a01b0316866001600160a01b03161089896000035b92509250925082156107a757604051818152602081fd5b600054156107bd5760005481146107bd57600080fd5b604051828152602081fd5b8051604211155b919050565b600080806107e28482610a05565b92506107ef846014610ab5565b90506107fc846017610a05565b91509193909250565b80516060906101b490839060179060161901610b5c565b60006108527f000000000000000000000000000000000000000000000000000000000000000061084d868686610cad565b610d03565b90505b9392505050565b6000600160ff1b821061086e57600080fd5b5090565b600081516020146108db576044825110156108a85760405162461bcd60e51b815260040161089f90611277565b60405180910390fd5b600482019150818060200190518101906108c29190610fd0565b60405162461bcd60e51b815260040161089f9190611264565b818060200190518101906101b491906110a8565b6040805160609490941b6001600160601b031916602080860191909152600293840b60e890811b60348701529290930b90911b60378401528051808403601a018152603a9093019052815191012090565b6000808060001985870986860292508281109083900303905080610976576000841161096b57600080fd5b508290049050610855565b80841161098257600080fd5b6000848688096000868103871696879004966002600389028118808a02820302808a02820302808a02820302808a02820302808a02820302808a02909103029181900381900460010186841190950394909402919094039290920491909117919091029150509392505050565b600061032485610a00868686610cad565b610de2565b600081826014011015610a54576040805162461bcd60e51b8152602060048201526012602482015271746f416464726573735f6f766572666c6f7760701b604482015290519081900360640190fd5b8160140183511015610aa5576040805162461bcd60e51b8152602060048201526015602482015274746f416464726573735f6f75744f66426f756e647360581b604482015290519081900360640190fd5b500160200151600160601b900490565b600081826003011015610b03576040805162461bcd60e51b8152602060048201526011602482015270746f55696e7432345f6f766572666c6f7760781b604482015290519081900360640190fd5b8160030183511015610b53576040805162461bcd60e51b8152602060048201526014602482015273746f55696e7432345f6f75744f66426f756e647360601b604482015290519081900360640190fd5b50016003015190565b60608182601f011015610ba7576040805162461bcd60e51b815260206004820152600e60248201526d736c6963655f6f766572666c6f7760901b604482015290519081900360640190fd5b828284011015610bef576040805162461bcd60e51b815260206004820152600e60248201526d736c6963655f6f766572666c6f7760901b604482015290519081900360640190fd5b81830184511015610c3b576040805162461bcd60e51b8152602060048201526011602482015270736c6963655f6f75744f66426f756e647360781b604482015290519081900360640190fd5b606082158015610c5a5760405191506000825260208201604052610ca4565b6040519150601f8416801560200281840101858101878315602002848b0101015b81831015610c93578051835260209283019201610c7b565b5050858452601f01601f1916604052505b50949350505050565b610cb5610e05565b826001600160a01b0316846001600160a01b03161115610cd3579192915b50604080516060810182526001600160a01b03948516815292909316602083015262ffffff169181019190915290565b600081602001516001600160a01b031682600001516001600160a01b031610610d2b57600080fd5b50805160208083015160409384015184516001600160a01b0394851681850152939091168385015262ffffff166060808401919091528351808403820181526080840185528051908301206001600160f81b031960a085015294901b6001600160601b03191660a183015260b58201939093527fd0aea3694b6899e0659f9ac990b71639615601444c2dd3e05521451de0f7ecfe60d5808301919091528251808303909101815260f5909101909152805191012090565b6000610dee8383610d03565b9050336001600160a01b038216146101b457600080fd5b604080516060810182526000808252602082018190529181019190915290565b80516107cf81611325565b600082601f830112610e40578081fd5b8135610e53610e4e826112d3565b6112af565b818152846020838601011115610e67578283fd5b816020850160208301379081016020019190915292915050565b8051600281900b81146107cf57600080fd5b80516001600160801b03811681146107cf57600080fd5b80516107cf8161133d565b600080600080600060a08688031215610ecc578081fd5b8535610ed781611325565b94506020860135610ee781611325565b93506040860135610ef78161133d565b9250606086013591506080860135610f0e81611325565b809150509295509295909350565b60008060408385031215610f2e578182fd5b823567ffffffffffffffff811115610f44578283fd5b610f5085828601610e30565b95602094909401359450505050565b60008060408385031215610f71578182fd5b505080516020909101519092909150565b600080600060608486031215610f96578283fd5b8335925060208401359150604084013567ffffffffffffffff811115610fba578182fd5b610fc686828701610e30565b9150509250925092565b600060208284031215610fe1578081fd5b815167ffffffffffffffff811115610ff7578182fd5b8201601f81018413611007578182fd5b8051611015610e4e826112d3565b818152856020838501011115611029578384fd5b6103248260208301602086016112f5565b600080600080600060a08688031215611051578081fd5b61105a86610e93565b9450602086015193506040860151925061107660608701610e93565b915061108460808701610e93565b90509295509295909350565b6000602082840312156110a1578081fd5b5035919050565b6000602082840312156110b9578081fd5b5051919050565b6000806000806000806000806000806000806101808d8f0312156110e257898afd5b8c516bffffffffffffffffffffffff811681146110fd578a8bfd5b9b5061110b60208e01610e25565b9a5061111960408e01610e25565b995061112760608e01610e25565b985061113560808e01610eaa565b975061114360a08e01610e81565b965061115160c08e01610e81565b955061115f60e08e01610e93565b94506101008d015193506101208d0151925061117e6101408e01610e93565b915061118d6101608e01610e93565b90509295989b509295989b509295989b565b600081518084526111b78160208601602086016112f5565b601f01601f19169290920160200192915050565b606093841b6001600160601b0319908116825260e89390931b6001600160e81b0319166014820152921b166017820152602b0190565b6001600160a01b0391909116815260200190565b6001600160a01b0386811682528515156020830152604082018590528316606082015260a0608082018190526000906112509083018461119f565b979650505050505050565b90815260200190565b600060208252610855602083018461119f565b60208082526010908201526f2ab732bc3832b1ba32b21032b93937b960811b604082015260600190565b918252602082015260400190565b60405181810167ffffffffffffffff811182821017156112cb57fe5b604052919050565b600067ffffffffffffffff8211156112e757fe5b50601f01601f191660200190565b60005b838110156113105781810151838201526020016112f8565b8381111561131f576000848401525b50505050565b6001600160a01b038116811461133a57600080fd5b50565b62ffffff8116811461133a57600080fdfea2646970667358221220d869dd9d73174d6742198489e6e37289ac7ff8a37301ce595f184587ae9a580264736f6c63430007060033",
  "linkReferences": {},
  "deployedLinkReferences": {}
}