{
  "_format": "hh-sol-artifact-1",
  "contractName": "SwapRouter",
  "sourceName": "contracts/SwapRouter.sol",
  "abi": [
    {
      "inputs": [
        {
          "internalType": "address",
          "name": "_factory",
          "type": "address"
        },
        {
          "internalType": "address",
          "name": "_WETH9",
          "type": "address"
        }
      ],
      "stateMutability": "nonpayable",
      "type": "constructor"
    },
    {
      "inputs": [],
      "name": "WETH9",
      "outputs": [
        {
          "internalType": "address",
          "name": "",
          "type": "address"
        }
      ],
      "stateMutability": "view",
      "type": "function"
    },
    {
      "inputs": [
        {
          "components": [
            {
              "internalType": "bytes",
              "name": "path",
              "type": "bytes"
            },
            {
              "internalType": "address",
              "name": "recipient",
              "type": "address"
            },
            {
              "internalType": "uint256",
              "name": "deadline",
              "type": "uint256"
            },
            {
              "internalType": "uint256",
              "name": "amountIn",
              "type": "uint256"
            },
            {
              "internalType": "uint256",
              "name": "amountOutMinimum",
              "type": "uint256"
            }
          ],
          "internalType": "struct ISwapRouter.ExactInputParams",
          "name": "params",
          "type": "tuple"
        }
      ],
      "name": "exactInput",
      "outputs": [
        {
          "internalType": "uint256",
          "name": "amountOut",
          "type": "uint256"
        }
      ],
      "stateMutability": "payable",
      "type": "function"
    },
    {
      "inputs": [
        {
          "components": [
            {
              "internalType": "address",
              "name": "tokenIn",
              "type": "address"
            },
            {
              "internalType": "address",
              "name": "tokenOut",
              "type": "address"
            },
            {
              "internalType": "uint24",
              "name": "fee",
              "type": "uint24"
            },
            {
              "internalType": "address",
              "name": "recipient",
              "type": "address"
            },
            {
              "internalType": "uint256",
              "name": "deadline",
              "type": "uint256"
            },
            {
              "internalType": "uint256",
              "name": "amountIn",
              "type": "uint256"
            },
            {
              "internalType": "uint256",
              "name": "amountOutMinimum",
              "type": "uint256"
            },
            {
              "internalType": "uint160",
              "name": "sqrtPriceLimitX96",
              "type": "uint160"
            }
          ],
          "internalType": "struct ISwapRouter.ExactInputSingleParams",
          "name": "params",
          "type": "tuple"
        }
      ],
      "name": "exactInputSingle",
      "outputs": [
        {
          "internalType": "uint256",
          "name": "amountOut",
          "type": "uint256"
        }
      ],
      "stateMutability": "payable",
      "type": "function"
    },
    {
      "inputs": [
        {
          "components": [
            {
              "internalType": "bytes",
              "name": "path",
              "type": "bytes"
            },
            {
              "internalType": "address",
              "name": "recipient",
              "type": "address"
            },
            {
              "internalType": "uint256",
              "name": "deadline",
              "type": "uint256"
            },
            {
              "internalType": "uint256",
              "name": "amountOut",
              "type": "uint256"
            },
            {
              "internalType": "uint256",
              "name": "amountInMaximum",
              "type": "uint256"
            }
          ],
          "internalType": "struct ISwapRouter.ExactOutputParams",
          "name": "params",
          "type": "tuple"
        }
      ],
      "name": "exactOutput",
      "outputs": [
        {
          "internalType": "uint256",
          "name": "amountIn",
          "type": "uint256"
        }
      ],
      "stateMutability": "payable",
      "type": "function"
    },
    {
      "inputs": [
        {
          "components": [
            {
              "internalType": "address",
              "name": "tokenIn",
              "type": "address"
            },
            {
              "internalType": "address",
              "name": "tokenOut",
              "type": "address"
            },
            {
              "internalType": "uint24",
              "name": "fee",
              "type": "uint24"
            },
            {
              "internalType": "address",
              "name": "recipient",
              "type": "address"
            },
            {
              "internalType": "uint256",
              "name": "deadline",
              "type": "uint256"
            },
            {
              "internalType": "uint256",
              "name": "amountOut",
              "type": "uint256"
            },
            {
              "internalType": "uint256",
              "name": "amountInMaximum",
              "type": "uint256"
            },
            {
              "internalType": "uint160",
              "name": "sqrtPriceLimitX96",
              "type": "uint160"
            }
          ],
          "internalType": "struct ISwapRouter.ExactOutputSingleParams",
          "name": "params",
          "type": "tuple"
        }
      ],
      "name": "exactOutputSingle",
      "outputs": [
        {
          "internalType": "uint256",
          "name": "amountIn",
          "type": "uint256"
        }
      ],
      "stateMutability": "payable",
      "type": "function"
    },
    {
      "inputs": [],
      "name": "factory",
      "outputs": [
        {
          "internalType": "address",
          "name": "",
          "type": "address"
        }
      ],
      "stateMutability": "view",
      "type": "function"
    },
    {
      "inputs": [
        {
          "internalType": "bytes[]",
          "name": "data",
          "type": "bytes[]"
        }
      ],
      "name": "multicall",
      "outputs": [
        {
          "internalType": "bytes[]",
          "name": "results",
          "type": "bytes[]"
        }
      ],
      "stateMutability": "payable",
      "type": "function"
    },
    {
      "inputs": [],
      "name": "refundETH",
      "outputs": [],
      "stateMutability": "payable",
      "type": "function"
    },
    {
      "inputs": [
        {
          "internalType": "address",
          "name": "token",
          "type": "address"
        },
        {
          "internalType": "uint256",
          "name": "value",
          "type": "uint256"
        },
        {
          "internalType": "uint256",
          "name": "deadline",
          "type": "uint256"
        },
        {
          "internalType": "uint8",
          "name": "v",
          "type": "uint8"
        },
        {
          "internalType": "bytes32",
          "name": "r",
          "type": "bytes32"
        },
        {
          "internalType": "bytes32",
          "name": "s",
          "type": "bytes32"
        }
      ],
      "name": "selfPermit",
      "outputs": [],
      "stateMutability": "payable",
      "type": "function"
    },
    {
      "inputs": [
        {
          "internalType": "address",
          "name": "token",
          "type": "address"
        },
        {
          "internalType": "uint256",
          "name": "nonce",
          "type": "uint256"
        },
        {
          "internalType": "uint256",
          "name": "expiry",
          "type": "uint256"
        },
        {
          "internalType": "uint8",
          "name": "v",
          "type": "uint8"
        },
        {
          "internalType": "bytes32",
          "name": "r",
          "type": "bytes32"
        },
        {
          "internalType": "bytes32",
          "name": "s",
          "type": "bytes32"
        }
      ],
      "name": "selfPermitAllowed",
      "outputs": [],
      "stateMutability": "payable",
      "type": "function"
    },
    {
      "inputs": [
        {
          "internalType": "address",
          "name": "token",
          "type": "address"
        },
        {
          "internalType": "uint256",
          "name": "nonce",
          "type": "uint256"
        },
        {
          "internalType": "uint256",
          "name": "expiry",
          "type": "uint256"
        },
        {
          "internalType": "uint8",
          "name": "v",
          "type": "uint8"
        },
        {
          "internalType": "bytes32",
          "name": "r",
          "type": "bytes32"
        },
        {
          "internalType": "bytes32",
          "name": "s",
          "type": "bytes32"
        }
      ],
      "name": "selfPermitAllowedIfNecessary",
      "outputs": [],
      "stateMutability": "payable",
      "type": "function"
    },
    {
      "inputs": [
        {
          "internalType": "address",
          "name": "token",
          "type": "address"
        },
        {
          "internalType": "uint256",
          "name": "value",
          "type": "uint256"
        },
        {
          "internalType": "uint256",
          "name": "deadline",
          "type": "uint256"
        },
        {
          "internalType": "uint8",
          "name": "v",
          "type": "uint8"
        },
        {
          "internalType": "bytes32",
          "name": "r",
          "type": "bytes32"
        },
        {
          "internalType": "bytes32",
          "name": "s",
          "type": "bytes32"
        }
      ],
      "name": "selfPermitIfNecessary",
      "outputs": [],
      "stateMutability": "payable",
      "type": "function"
    },
    {
      "inputs": [
        {
          "internalType": "address",
          "name": "token",
          "type": "address"
        },
        {
          "internalType": "uint256",
          "name": "amountMinimum",
          "type": "uint256"
        },
        {
          "internalType": "address",
          "name": "recipient",
          "type": "address"
        }
      ],
      "name": "sweepToken",
      "outputs": [],
      "stateMutability": "payable",
      "type": "function"
    },
    {
      "inputs": [
        {
          "internalType": "address",
          "name": "token",
          "type": "address"
        },
        {
          "internalType": "uint256",
          "name": "amountMinimum",
          "type": "uint256"
        },
        {
          "internalType": "address",
          "name": "recipient",
          "type": "address"
        },
        {
          "internalType": "uint256",
          "name": "feeBips",
          "type": "uint256"
        },
        {
          "internalType": "address",
          "name": "feeRecipient",
          "type": "address"
        }
      ],
      "name": "sweepTokenWithFee",
      "outputs": [],
      "stateMutability": "payable",
      "type": "function"
    },
    {
      "inputs": [
        {
          "internalType": "int256",
          "name": "amount0Delta",
          "type": "int256"
        },
        {
          "internalType": "int256",
          "name": "amount1Delta",
          "type": "int256"
        },
        {
          "internalType": "bytes",
          "name": "_data",
          "type": "bytes"
        }
      ],
      "name": "uniswapV3SwapCallback",
      "outputs": [],
      "stateMutability": "nonpayable",
      "type": "function"
    },
    {
      "inputs": [
        {
          "internalType": "uint256",
          "name": "amountMinimum",
          "type": "uint256"
        },
        {
          "internalType": "address",
          "name": "recipient",
          "type": "address"
        }
      ],
      "name": "unwrapWETH9",
      "outputs": [],
      "stateMutability": "payable",
      "type": "function"
    },
    {
      "inputs": [
        {
          "internalType": "uint256",
          "name": "amountMinimum",
          "type": "uint256"
        },
        {
          "internalType": "address",
          "name": "recipient",
          "type": "address"
        },
        {
          "internalType": "uint256",
          "name": "feeBips",
          "type": "uint256"
        },
        {
          "internalType": "address",
          "name": "feeRecipient",
          "type": "address"
        }
      ],
      "name": "unwrapWETH9WithFee",
      "outputs": [],
      "stateMutability": "payable",
      "type": "function"
    },
    {
      "stateMutability": "payable",
      "type": "receive"
    }
  ],
  "bytecode": "0x60c06040526000196000553480156200001757600080fd5b50604051620027b2380380620027b28339810160408190526200003a9162000076565b6001600160601b0319606092831b8116608052911b1660a052620000ad565b80516001600160a01b03811681146200007157600080fd5b919050565b6000806040838503121562000089578182fd5b620000948362000059565b9150620000a46020840162000059565b90509250929050565b60805160601c60a05160601c6126a9620001096000398061011252806104c752806105c352806106505280610690528061077b5280611732528061177852806117ec525080610bb452806110af52806118c752506126a96000f3fe6080604052600436106101025760003560e01c8063c04b8d5911610095578063df2ab5bb11610064578063df2ab5bb14610284578063e0e189a014610297578063f28c0498146102aa578063f3995c67146102bd578063fa461e33146102d057610172565b8063c04b8d5914610236578063c2e3140a14610249578063c45a01551461025c578063db3e21981461027157610172565b80634aa4a4fc116100d15780634aa4a4fc146101ce5780639b2c0a37146101f0578063a4a78f0c14610203578063ac9650d81461021657610172565b806312210e8a14610177578063414bf3891461017f5780634659a494146101a857806349404b7c146101bb57610172565b3661017257336001600160a01b037f00000000000000000000000000000000000000000000000000000000000000001614610170576040805162461bcd60e51b81526020600482015260096024820152684e6f7420574554483960b81b604482015290519081900360640190fd5b005b600080fd5b6101706102f0565b61019261018d36600461223b565b610302565b60405161019f9190612594565b60405180910390f35b6101706101b6366004611fb9565b610429565b6101706101c9366004612342565b6104c3565b3480156101da57600080fd5b506101e361064e565b60405161019f9190612431565b6101706101fe366004612371565b610672565b610170610211366004611fb9565b61083e565b610229610224366004612019565b6108cf565b60405161019f919061248b565b610192610244366004612190565b610a0f565b610170610257366004611fb9565b610b23565b34801561026857600080fd5b506101e3610bb2565b61019261027f36600461223b565b610bd6565b610170610292366004611f1a565b610cfd565b6101706102a5366004611f5b565b610ddb565b6101926102b8366004612257565b610f02565b6101706102cb366004611fb9565b610ff8565b3480156102dc57600080fd5b506101706102eb3660046120ab565b61106a565b471561030057610300334761117d565b565b600081608001358061031261126c565b111561035b576040805162461bcd60e51b8152602060048201526013602482015272151c985b9cd858dd1a5bdb881d1bdbc81bdb19606a1b604482015290519081900360640190fd5b6103f460a08401356103736080860160608701611ef7565b610384610100870160e08801611ef7565b604080518082019091528061039c60208a018a611ef7565b6103ac60608b0160408c0161231f565b6103bc60408c0160208d01611ef7565b6040516020016103ce939291906123e6565b6040516020818303038152906040528152602001336001600160a01b0316815250611270565b91508260c001358210156104235760405162461bcd60e51b815260040161041a9061252a565b60405180910390fd5b50919050565b604080516323f2ebc360e21b815233600482015230602482015260448101879052606481018690526001608482015260ff851660a482015260c4810184905260e4810183905290516001600160a01b03881691638fcbaf0c9161010480830192600092919082900301818387803b1580156104a357600080fd5b505af11580156104b7573d6000803e3d6000fd5b50505050505050505050565b60007f00000000000000000000000000000000000000000000000000000000000000006001600160a01b03166370a08231306040518263ffffffff1660e01b815260040180826001600160a01b0316815260200191505060206040518083038186803b15801561053257600080fd5b505afa158015610546573d6000803e3d6000fd5b505050506040513d602081101561055c57600080fd5b50519050828110156105aa576040805162461bcd60e51b8152602060048201526012602482015271496e73756666696369656e7420574554483960701b604482015290519081900360640190fd5b80156106495764e8d4a51000810464e8d4a510000290507f00000000000000000000000000000000000000000000000000000000000000006001600160a01b0316632e1a7d4d826040518263ffffffff1660e01b815260040180828152602001915050600060405180830381600087803b15801561062757600080fd5b505af115801561063b573d6000803e3d6000fd5b50505050610649828261117d565b505050565b7f000000000000000000000000000000000000000000000000000000000000000081565b600082118015610683575060648211155b61068c57600080fd5b60007f00000000000000000000000000000000000000000000000000000000000000006001600160a01b03166370a08231306040518263ffffffff1660e01b815260040180826001600160a01b0316815260200191505060206040518083038186803b1580156106fb57600080fd5b505afa15801561070f573d6000803e3d6000fd5b505050506040513d602081101561072557600080fd5b5051905084811015610773576040805162461bcd60e51b8152602060048201526012602482015271496e73756666696369656e7420574554483960701b604482015290519081900360640190fd5b8015610837577f00000000000000000000000000000000000000000000000000000000000000006001600160a01b0316632e1a7d4d826040518263ffffffff1660e01b815260040180828152602001915050600060405180830381600087803b1580156107df57600080fd5b505af11580156107f3573d6000803e3d6000fd5b50505050600061271061080f85846113c290919063ffffffff16565b8161081657fe5b049050801561082957610829838261117d565b6108358582840361117d565b505b5050505050565b60408051636eb1769f60e11b81523360048201523060248201529051600019916001600160a01b0389169163dd62ed3e91604480820192602092909190829003018186803b15801561088f57600080fd5b505afa1580156108a3573d6000803e3d6000fd5b505050506040513d60208110156108b957600080fd5b5051101561083557610835868686868686610429565b60608167ffffffffffffffff811180156108e857600080fd5b5060405190808252806020026020018201604052801561091c57816020015b60608152602001906001900390816109075790505b50905060005b82811015610a08576000803086868581811061093a57fe5b905060200281019061094c919061259d565b60405161095a929190612421565b600060405180830381855af49150503d8060008114610995576040519150601f19603f3d011682016040523d82523d6000602084013e61099a565b606091505b5091509150816109e6576044815110156109b357600080fd5b600481019050808060200190518101906109cd9190612126565b60405162461bcd60e51b815260040161041a91906124eb565b808484815181106109f357fe5b60209081029190910101525050600101610922565b5092915050565b6000816040015180610a1f61126c565b1115610a68576040805162461bcd60e51b8152602060048201526013602482015272151c985b9cd858dd1a5bdb881d1bdbc81bdb19606a1b604482015290519081900360640190fd5b335b6000610a7985600001516113ec565b9050610ac5856060015182610a92578660200151610a94565b305b60006040518060400160405280610aae8b600001516113f8565b8152602001876001600160a01b0316815250611270565b60608601528015610ae5578451309250610ade90611407565b8552610af2565b8460600151935050610af8565b50610a6a565b8360800151831015610b1c5760405162461bcd60e51b815260040161041a9061252a565b5050919050565b60408051636eb1769f60e11b8152336004820152306024820152905186916001600160a01b0389169163dd62ed3e91604480820192602092909190829003018186803b158015610b7257600080fd5b505afa158015610b86573d6000803e3d6000fd5b505050506040513d6020811015610b9c57600080fd5b5051101561083557610835868686868686610ff8565b7f000000000000000000000000000000000000000000000000000000000000000081565b6000816080013580610be661126c565b1115610c2f576040805162461bcd60e51b8152602060048201526013602482015272151c985b9cd858dd1a5bdb881d1bdbc81bdb19606a1b604482015290519081900360640190fd5b610ccb60a0840135610c476080860160608701611ef7565b610c58610100870160e08801611ef7565b6040518060400160405280886020016020810190610c769190611ef7565b610c8660608b0160408c0161231f565b610c9360208c018c611ef7565b604051602001610ca5939291906123e6565b6040516020818303038152906040528152602001336001600160a01b031681525061141e565b91508260c00135821115610cf15760405162461bcd60e51b815260040161041a906124fe565b50600019600055919050565b6000836001600160a01b03166370a08231306040518263ffffffff1660e01b815260040180826001600160a01b0316815260200191505060206040518083038186803b158015610d4c57600080fd5b505afa158015610d60573d6000803e3d6000fd5b505050506040513d6020811015610d7657600080fd5b5051905082811015610dc4576040805162461bcd60e51b815260206004820152601260248201527124b739bab33334b1b4b2b73a103a37b5b2b760711b604482015290519081900360640190fd5b8015610dd557610dd5848383611599565b50505050565b600082118015610dec575060648211155b610df557600080fd5b6000856001600160a01b03166370a08231306040518263ffffffff1660e01b815260040180826001600160a01b0316815260200191505060206040518083038186803b158015610e4457600080fd5b505afa158015610e58573d6000803e3d6000fd5b505050506040513d6020811015610e6e57600080fd5b5051905084811015610ebc576040805162461bcd60e51b815260206004820152601260248201527124b739bab33334b1b4b2b73a103a37b5b2b760711b604482015290519081900360640190fd5b8015610835576000612710610ed183866113c2565b81610ed857fe5b0490508015610eec57610eec878483611599565b610ef98786838503611599565b50505050505050565b6000816040013580610f1261126c565b1115610f5b576040805162461bcd60e51b8152602060048201526013602482015272151c985b9cd858dd1a5bdb881d1bdbc81bdb19606a1b604482015290519081900360640190fd5b610fce6060840135610f736040860160208701611ef7565b6040805180820190915260009080610f8b898061259d565b8080601f0160208091040260200160405190810160405280939291908181526020018383808284376000920191909152505050908252503360209091015261141e565b5060005491508260800135821115610cf15760405162461bcd60e51b815260040161041a906124fe565b6040805163d505accf60e01b8152336004820152306024820152604481018790526064810186905260ff8516608482015260a4810184905260c4810183905290516001600160a01b0388169163d505accf9160e480830192600092919082900301818387803b1580156104a357600080fd5b60008413806110795750600083135b61108257600080fd5b60006110908284018461228f565b905060008060006110a484600001516116e0565b9250925092506110d67f0000000000000000000000000000000000000000000000000000000000000000848484611711565b5060008060008a136110fd57846001600160a01b0316846001600160a01b03161089611114565b836001600160a01b0316856001600160a01b0316108a5b9150915081156111335761112e8587602001513384611730565b6104b7565b855161113e906113ec565b1561116357855161114e90611407565b865261115d813360008961141e565b506104b7565b806000819055508394506104b78587602001513384611730565b604080516000808252602082019092526001600160a01b0384169083906040518082805190602001908083835b602083106111c95780518252601f1990920191602091820191016111aa565b6001836020036101000a03801982511681845116808217855250505050505090500191505060006040518083038185875af1925050503d806000811461122b576040519150601f19603f3d011682016040523d82523d6000602084013e611230565b606091505b5050905080610649576040805162461bcd60e51b815260206004820152600360248201526253544560e81b604482015290519081900360640190fd5b4290565b60006001600160a01b038416611284573093505b600080600061129685600001516116e0565b919450925090506001600160a01b03808316908416106000806112ba8686866118c0565b6001600160a01b031663128acb088b856112d38f6118fe565b6001600160a01b038e16156112e8578d61130e565b876113075773fffd8963efd1fc6a506488495d951d5263988d2561130e565b6401000276a45b8d60405160200161131f9190612557565b6040516020818303038152906040526040518663ffffffff1660e01b815260040161134e959493929190612445565b6040805180830381600087803b15801561136757600080fd5b505af115801561137b573d6000803e3d6000fd5b505050506040513d601f19601f8201168201806040525081019061139f9190612088565b91509150826113ae57816113b0565b805b6000039b9a5050505050505050505050565b60008215806113dd575050818102818382816113da57fe5b04145b6113e657600080fd5b92915050565b8051604211155b919050565b60606113e6826000602b611914565b80516060906113e690839060179060161901611914565b60006001600160a01b038416611432573093505b600080600061144485600001516116e0565b919450925090506001600160a01b03808416908316106000806114688587866118c0565b6001600160a01b031663128acb088b856114818f6118fe565b6000036001600160a01b038e1615611499578d6114bf565b876114b85773fffd8963efd1fc6a506488495d951d5263988d256114bf565b6401000276a45b8d6040516020016114d09190612557565b6040516020818303038152906040526040518663ffffffff1660e01b81526004016114ff959493929190612445565b6040805180830381600087803b15801561151857600080fd5b505af115801561152c573d6000803e3d6000fd5b505050506040513d601f19601f820116820180604052508101906115509190612088565b9150915060008361156557818360000361156b565b82826000035b90985090506001600160a01b038a1661158a578b811461158a57600080fd5b50505050505050949350505050565b604080516001600160a01b038481166024830152604480830185905283518084039091018152606490920183526020820180516001600160e01b031663a9059cbb60e01b1781529251825160009485949389169392918291908083835b602083106116155780518252601f1990920191602091820191016115f6565b6001836020036101000a0380198251168184511680821785525050505050509050019150506000604051808303816000865af19150503d8060008114611677576040519150601f19603f3d011682016040523d82523d6000602084013e61167c565b606091505b50915091508180156116aa5750805115806116aa57508080602001905160208110156116a757600080fd5b50515b610837576040805162461bcd60e51b815260206004820152600260248201526114d560f21b604482015290519081900360640190fd5b600080806116ee8482611a65565b92506116fb846014611b15565b9050611708846017611a65565b91509193909250565b600061172785611722868686611bbc565b611c12565b95945050505050565b7f00000000000000000000000000000000000000000000000000000000000000006001600160a01b0316846001600160a01b03161480156117715750804710155b15611893577f00000000000000000000000000000000000000000000000000000000000000006001600160a01b031663d0e30db0826040518263ffffffff1660e01b81526004016000604051808303818588803b1580156117d157600080fd5b505af11580156117e5573d6000803e3d6000fd5b50505050507f00000000000000000000000000000000000000000000000000000000000000006001600160a01b031663a9059cbb83836040518363ffffffff1660e01b815260040180836001600160a01b0316815260200182815260200192505050602060405180830381600087803b15801561186157600080fd5b505af1158015611875573d6000803e3d6000fd5b505050506040513d602081101561188b57600080fd5b50610dd59050565b6001600160a01b0383163014156118b4576118af848383611599565b610dd5565b610dd584848484611c35565b60006118f67f00000000000000000000000000000000000000000000000000000000000000006118f1868686611bbc565b611d85565b949350505050565b6000600160ff1b821061191057600080fd5b5090565b60608182601f01101561195f576040805162461bcd60e51b815260206004820152600e60248201526d736c6963655f6f766572666c6f7760901b604482015290519081900360640190fd5b8282840110156119a7576040805162461bcd60e51b815260206004820152600e60248201526d736c6963655f6f766572666c6f7760901b604482015290519081900360640190fd5b818301845110156119f3576040805162461bcd60e51b8152602060048201526011602482015270736c6963655f6f75744f66426f756e647360781b604482015290519081900360640190fd5b606082158015611a125760405191506000825260208201604052611a5c565b6040519150601f8416801560200281840101858101878315602002848b0101015b81831015611a4b578051835260209283019201611a33565b5050858452601f01601f1916604052505b50949350505050565b600081826014011015611ab4576040805162461bcd60e51b8152602060048201526012602482015271746f416464726573735f6f766572666c6f7760701b604482015290519081900360640190fd5b8160140183511015611b05576040805162461bcd60e51b8152602060048201526015602482015274746f416464726573735f6f75744f66426f756e647360581b604482015290519081900360640190fd5b500160200151600160601b900490565b600081826003011015611b63576040805162461bcd60e51b8152602060048201526011602482015270746f55696e7432345f6f766572666c6f7760781b604482015290519081900360640190fd5b8160030183511015611bb3576040805162461bcd60e51b8152602060048201526014602482015273746f55696e7432345f6f75744f66426f756e647360601b604482015290519081900360640190fd5b50016003015190565b611bc4611e69565b826001600160a01b0316846001600160a01b03161115611be2579192915b50604080516060810182526001600160a01b03948516815292909316602083015262ffffff169181019190915290565b6000611c1e8383611d85565b9050336001600160a01b038216146113e657600080fd5b604080516001600160a01b0385811660248301528481166044830152606480830185905283518084039091018152608490920183526020820180516001600160e01b03166323b872dd60e01b178152925182516000948594938a169392918291908083835b60208310611cb95780518252601f199092019160209182019101611c9a565b6001836020036101000a0380198251168184511680821785525050505050509050019150506000604051808303816000865af19150503d8060008114611d1b576040519150601f19603f3d011682016040523d82523d6000602084013e611d20565b606091505b5091509150818015611d4e575080511580611d4e5750808060200190516020811015611d4b57600080fd5b50515b610835576040805162461bcd60e51b815260206004820152600360248201526229aa2360e91b604482015290519081900360640190fd5b600081602001516001600160a01b031682600001516001600160a01b031610611dad57600080fd5b50805160208083015160409384015184516001600160a01b0394851681850152939091168385015262ffffff166060808401919091528351808403820181526080840185528051908301206001600160f81b031960a085015294901b6bffffffffffffffffffffffff191660a183015260b58201939093527fd0aea3694b6899e0659f9ac990b71639615601444c2dd3e05521451de0f7ecfe60d5808301919091528251808303909101815260f5909101909152805191012090565b604080516060810182526000808252602082018190529181019190915290565b80356113f38161265b565b600082601f830112611ea4578081fd5b8135611eb7611eb28261260d565b6125e9565b818152846020838601011115611ecb578283fd5b816020850160208301379081016020019190915292915050565b60006101008284031215610423578081fd5b600060208284031215611f08578081fd5b8135611f138161265b565b9392505050565b600080600060608486031215611f2e578182fd5b8335611f398161265b565b9250602084013591506040840135611f508161265b565b809150509250925092565b600080600080600060a08688031215611f72578081fd5b8535611f7d8161265b565b9450602086013593506040860135611f948161265b565b9250606086013591506080860135611fab8161265b565b809150509295509295909350565b60008060008060008060c08789031215611fd1578081fd5b8635611fdc8161265b565b95506020870135945060408701359350606087013560ff81168114611fff578182fd5b9598949750929560808101359460a0909101359350915050565b6000806020838503121561202b578182fd5b823567ffffffffffffffff80821115612042578384fd5b818501915085601f830112612055578384fd5b813581811115612063578485fd5b8660208083028501011115612076578485fd5b60209290920196919550909350505050565b6000806040838503121561209a578182fd5b505080516020909101519092909150565b600080600080606085870312156120c0578182fd5b8435935060208501359250604085013567ffffffffffffffff808211156120e5578384fd5b818701915087601f8301126120f8578384fd5b813581811115612106578485fd5b886020828501011115612117578485fd5b95989497505060200194505050565b600060208284031215612137578081fd5b815167ffffffffffffffff81111561214d578182fd5b8201601f8101841361215d578182fd5b805161216b611eb28261260d565b81815285602083850101111561217f578384fd5b61172782602083016020860161262f565b6000602082840312156121a1578081fd5b813567ffffffffffffffff808211156121b8578283fd5b9083019060a082860312156121cb578283fd5b60405160a0810181811083821117156121e057fe5b6040528235828111156121f1578485fd5b6121fd87828601611e94565b82525061220c60208401611e89565b602082015260408301356040820152606083013560608201526080830135608082015280935050505092915050565b6000610100828403121561224d578081fd5b611f138383611ee5565b600060208284031215612268578081fd5b813567ffffffffffffffff81111561227e578182fd5b820160a08185031215611f13578182fd5b6000602082840312156122a0578081fd5b813567ffffffffffffffff808211156122b7578283fd5b90830190604082860312156122ca578283fd5b6040516040810181811083821117156122df57fe5b6040528235828111156122f0578485fd5b6122fc87828601611e94565b8252506020830135925061230f8361265b565b6020810192909252509392505050565b600060208284031215612330578081fd5b813562ffffff81168114611f13578182fd5b60008060408385031215612354578182fd5b8235915060208301356123668161265b565b809150509250929050565b60008060008060808587031215612386578182fd5b8435935060208501356123988161265b565b92506040850135915060608501356123af8161265b565b939692955090935050565b600081518084526123d281602086016020860161262f565b601f01601f19169290920160200192915050565b606093841b6bffffffffffffffffffffffff19908116825260e89390931b6001600160e81b0319166014820152921b166017820152602b0190565b6000828483379101908152919050565b6001600160a01b0391909116815260200190565b6001600160a01b0386811682528515156020830152604082018590528316606082015260a060808201819052600090612480908301846123ba565b979650505050505050565b6000602080830181845280855180835260408601915060408482028701019250838701855b828110156124de57603f198886030184526124cc8583516123ba565b945092850192908501906001016124b0565b5092979650505050505050565b600060208252611f1360208301846123ba565b602080825260129082015271151bdbc81b5d58da081c995c5d595cdd195960721b604082015260600190565b602080825260139082015272151bdbc81b1a5d1d1b19481c9958d95a5d9959606a1b604082015260600190565b60006020825282516040602084015261257360608401826123ba565b602094909401516001600160a01b0316604093909301929092525090919050565b90815260200190565b6000808335601e198436030181126125b3578283fd5b83018035915067ffffffffffffffff8211156125cd578283fd5b6020019150368190038213156125e257600080fd5b9250929050565b60405181810167ffffffffffffffff8111828210171561260557fe5b604052919050565b600067ffffffffffffffff82111561262157fe5b50601f01601f191660200190565b60005b8381101561264a578181015183820152602001612632565b83811115610dd55750506000910152565b6001600160a01b038116811461267057600080fd5b5056fea26469706673582212203ac2fde912f29c5fae6ccfeb67386e5ded55e207db3a67c5ea4f954f2308d60b64736f6c63430007060033",
  "linkReferences": {},
  "deployedLinkReferences": {}
}