{
  "_format": "hh-sol-artifact-1",
  "contractName": "NonfungiblePositionManager",
  "sourceName": "contracts/NonfungiblePositionManager.sol",
  "abi": [
    {
      "inputs": [
        {
          "internalType": "address",
          "name": "_factory",
          "type": "address"
        },
        {
          "internalType": "address",
          "name": "_WETH9",
          "type": "address"
        },
        {
          "internalType": "address",
          "name": "_tokenDescriptor_",
          "type": "address"
        }
      ],
      "stateMutability": "nonpayable",
      "type": "constructor"
    },
    {
      "anonymous": false,
      "inputs": [
        {
          "indexed": true,
          "internalType": "address",
          "name": "owner",
          "type": "address"
        },
        {
          "indexed": true,
          "internalType": "address",
          "name": "approved",
          "type": "address"
        },
        {
          "indexed": true,
          "internalType": "uint256",
          "name": "tokenId",
          "type": "uint256"
        }
      ],
      "name": "Approval",
      "type": "event"
    },
    {
      "anonymous": false,
      "inputs": [
        {
          "indexed": true,
          "internalType": "address",
          "name": "owner",
          "type": "address"
        },
        {
          "indexed": true,
          "internalType": "address",
          "name": "operator",
          "type": "address"
        },
        {
          "indexed": false,
          "internalType": "bool",
          "name": "approved",
          "type": "bool"
        }
      ],
      "name": "ApprovalForAll",
      "type": "event"
    },
    {
      "anonymous": false,
      "inputs": [
        {
          "indexed": true,
          "internalType": "uint256",
          "name": "tokenId",
          "type": "uint256"
        },
        {
          "indexed": false,
          "internalType": "address",
          "name": "recipient",
          "type": "address"
        },
        {
          "indexed": false,
          "internalType": "uint256",
          "name": "amount0",
          "type": "uint256"
        },
        {
          "indexed": false,
          "internalType": "uint256",
          "name": "amount1",
          "type": "uint256"
        }
      ],
      "name": "Collect",
      "type": "event"
    },
    {
      "anonymous": false,
      "inputs": [
        {
          "indexed": true,
          "internalType": "uint256",
          "name": "tokenId",
          "type": "uint256"
        },
        {
          "indexed": false,
          "internalType": "uint128",
          "name": "liquidity",
          "type": "uint128"
        },
        {
          "indexed": false,
          "internalType": "uint256",
          "name": "amount0",
          "type": "uint256"
        },
        {
          "indexed": false,
          "internalType": "uint256",
          "name": "amount1",
          "type": "uint256"
        }
      ],
      "name": "DecreaseLiquidity",
      "type": "event"
    },
    {
      "anonymous": false,
      "inputs": [
        {
          "indexed": true,
          "internalType": "uint256",
          "name": "tokenId",
          "type": "uint256"
        },
        {
          "indexed": false,
          "internalType": "uint128",
          "name": "liquidity",
          "type": "uint128"
        },
        {
          "indexed": false,
          "internalType": "uint256",
          "name": "amount0",
          "type": "uint256"
        },
        {
          "indexed": false,
          "internalType": "uint256",
          "name": "amount1",
          "type": "uint256"
        }
      ],
      "name": "IncreaseLiquidity",
      "type": "event"
    },
    {
      "anonymous": false,
      "inputs": [
        {
          "indexed": true,
          "internalType": "address",
          "name": "from",
          "type": "address"
        },
        {
          "indexed": true,
          "internalType": "address",
          "name": "to",
          "type": "address"
        },
        {
          "indexed": true,
          "internalType": "uint256",
          "name": "tokenId",
          "type": "uint256"
        }
      ],
      "name": "Transfer",
      "type": "event"
    },
    {
      "inputs": [],
      "name": "DOMAIN_SEPARATOR",
      "outputs": [
        {
          "internalType": "bytes32",
          "name": "",
          "type": "bytes32"
        }
      ],
      "stateMutability": "view",
      "type": "function"
    },
    {
      "inputs": [],
      "name": "PERMIT_TYPEHASH",
      "outputs": [
        {
          "internalType": "bytes32",
          "name": "",
          "type": "bytes32"
        }
      ],
      "stateMutability": "view",
      "type": "function"
    },
    {
      "inputs": [],
      "name": "WETH9",
      "outputs": [
        {
          "internalType": "address",
          "name": "",
          "type": "address"
        }
      ],
      "stateMutability": "view",
      "type": "function"
    },
    {
      "inputs": [
        {
          "internalType": "address",
          "name": "to",
          "type": "address"
        },
        {
          "internalType": "uint256",
          "name": "tokenId",
          "type": "uint256"
        }
      ],
      "name": "approve",
      "outputs": [],
      "stateMutability": "nonpayable",
      "type": "function"
    },
    {
      "inputs": [
        {
          "internalType": "address",
          "name": "owner",
          "type": "address"
        }
      ],
      "name": "balanceOf",
      "outputs": [
        {
          "internalType": "uint256",
          "name": "",
          "type": "uint256"
        }
      ],
      "stateMutability": "view",
      "type": "function"
    },
    {
      "inputs": [],
      "name": "baseURI",
      "outputs": [
        {
          "internalType": "string",
          "name": "",
          "type": "string"
        }
      ],
      "stateMutability": "pure",
      "type": "function"
    },
    {
      "inputs": [
        {
          "internalType": "uint256",
          "name": "tokenId",
          "type": "uint256"
        }
      ],
      "name": "burn",
      "outputs": [],
      "stateMutability": "payable",
      "type": "function"
    },
    {
      "inputs": [
        {
          "components": [
            {
              "internalType": "uint256",
              "name": "tokenId",
              "type": "uint256"
            },
            {
              "internalType": "address",
              "name": "recipient",
              "type": "address"
            },
            {
              "internalType": "uint128",
              "name": "amount0Max",
              "type": "uint128"
            },
            {
              "internalType": "uint128",
              "name": "amount1Max",
              "type": "uint128"
            }
          ],
          "internalType": "struct INonfungiblePositionManager.CollectParams",
          "name": "params",
          "type": "tuple"
        }
      ],
      "name": "collect",
      "outputs": [
        {
          "internalType": "uint256",
          "name": "amount0",
          "type": "uint256"
        },
        {
          "internalType": "uint256",
          "name": "amount1",
          "type": "uint256"
        }
      ],
      "stateMutability": "payable",
      "type": "function"
    },
    {
      "inputs": [
        {
          "internalType": "address",
          "name": "token0",
          "type": "address"
        },
        {
          "internalType": "address",
          "name": "token1",
          "type": "address"
        },
        {
          "internalType": "uint24",
          "name": "fee",
          "type": "uint24"
        },
        {
          "internalType": "uint160",
          "name": "sqrtPriceX96",
          "type": "uint160"
        }
      ],
      "name": "createAndInitializePoolIfNecessary",
      "outputs": [
        {
          "internalType": "address",
          "name": "pool",
          "type": "address"
        }
      ],
      "stateMutability": "payable",
      "type": "function"
    },
    {
      "inputs": [
        {
          "components": [
            {
              "internalType": "uint256",
              "name": "tokenId",
              "type": "uint256"
            },
            {
              "internalType": "uint128",
              "name": "liquidity",
              "type": "uint128"
            },
            {
              "internalType": "uint256",
              "name": "amount0Min",
              "type": "uint256"
            },
            {
              "internalType": "uint256",
              "name": "amount1Min",
              "type": "uint256"
            },
            {
              "internalType": "uint256",
              "name": "deadline",
              "type": "uint256"
            }
          ],
          "internalType": "struct INonfungiblePositionManager.DecreaseLiquidityParams",
          "name": "params",
          "type": "tuple"
        }
      ],
      "name": "decreaseLiquidity",
      "outputs": [
        {
          "internalType": "uint256",
          "name": "amount0",
          "type": "uint256"
        },
        {
          "internalType": "uint256",
          "name": "amount1",
          "type": "uint256"
        }
      ],
      "stateMutability": "payable",
      "type": "function"
    },
    {
      "inputs": [],
      "name": "factory",
      "outputs": [
        {
          "internalType": "address",
          "name": "",
          "type": "address"
        }
      ],
      "stateMutability": "view",
      "type": "function"
    },
    {
      "inputs": [
        {
          "internalType": "uint256",
          "name": "tokenId",
          "type": "uint256"
        }
      ],
      "name": "getApproved",
      "outputs": [
        {
          "internalType": "address",
          "name": "",
          "type": "address"
        }
      ],
      "stateMutability": "view",
      "type": "function"
    },
    {
      "inputs": [
        {
          "components": [
            {
              "internalType": "uint256",
              "name": "tokenId",
              "type": "uint256"
            },
            {
              "internalType": "uint256",
              "name": "amount0Desired",
              "type": "uint256"
            },
            {
              "internalType": "uint256",
              "name": "amount1Desired",
              "type": "uint256"
            },
            {
              "internalType": "uint256",
              "name": "amount0Min",
              "type": "uint256"
            },
            {
              "internalType": "uint256",
              "name": "amount1Min",
              "type": "uint256"
            },
            {
              "internalType": "uint256",
              "name": "deadline",
              "type": "uint256"
            }
          ],
          "internalType": "struct INonfungiblePositionManager.IncreaseLiquidityParams",
          "name": "params",
          "type": "tuple"
        }
      ],
      "name": "increaseLiquidity",
      "outputs": [
        {
          "internalType": "uint128",
          "name": "liquidity",
          "type": "uint128"
        },
        {
          "internalType": "uint256",
          "name": "amount0",
          "type": "uint256"
        },
        {
          "internalType": "uint256",
          "name": "amount1",
          "type": "uint256"
        }
      ],
      "stateMutability": "payable",
      "type": "function"
    },
    {
      "inputs": [
        {
          "internalType": "address",
          "name": "owner",
          "type": "address"
        },
        {
          "internalType": "address",
          "name": "operator",
          "type": "address"
        }
      ],
      "name": "isApprovedForAll",
      "outputs": [
        {
          "internalType": "bool",
          "name": "",
          "type": "bool"
        }
      ],
      "stateMutability": "view",
      "type": "function"
    },
    {
      "inputs": [
        {
          "components": [
            {
              "internalType": "address",
              "name": "token0",
              "type": "address"
            },
            {
              "internalType": "address",
              "name": "token1",
              "type": "address"
            },
            {
              "internalType": "uint24",
              "name": "fee",
              "type": "uint24"
            },
            {
              "internalType": "int24",
              "name": "tickLower",
              "type": "int24"
            },
            {
              "internalType": "int24",
              "name": "tickUpper",
              "type": "int24"
            },
            {
              "internalType": "uint256",
              "name": "amount0Desired",
              "type": "uint256"
            },
            {
              "internalType": "uint256",
              "name": "amount1Desired",
              "type": "uint256"
            },
            {
              "internalType": "uint256",
              "name": "amount0Min",
              "type": "uint256"
            },
            {
              "internalType": "uint256",
              "name": "amount1Min",
              "type": "uint256"
            },
            {
              "internalType": "address",
              "name": "recipient",
              "type": "address"
            },
            {
              "internalType": "uint256",
              "name": "deadline",
              "type": "uint256"
            }
          ],
          "internalType": "struct INonfungiblePositionManager.MintParams",
          "name": "params",
          "type": "tuple"
        }
      ],
      "name": "mint",
      "outputs": [
        {
          "internalType": "uint256",
          "name": "tokenId",
          "type": "uint256"
        },
        {
          "internalType": "uint128",
          "name": "liquidity",
          "type": "uint128"
        },
        {
          "internalType": "uint256",
          "name": "amount0",
          "type": "uint256"
        },
        {
          "internalType": "uint256",
          "name": "amount1",
          "type": "uint256"
        }
      ],
      "stateMutability": "payable",
      "type": "function"
    },
    {
      "inputs": [
        {
          "internalType": "bytes[]",
          "name": "data",
          "type": "bytes[]"
        }
      ],
      "name": "multicall",
      "outputs": [
        {
          "internalType": "bytes[]",
          "name": "results",
          "type": "bytes[]"
        }
      ],
      "stateMutability": "payable",
      "type": "function"
    },
    {
      "inputs": [],
      "name": "name",
      "outputs": [
        {
          "internalType": "string",
          "name": "",
          "type": "string"
        }
      ],
      "stateMutability": "view",
      "type": "function"
    },
    {
      "inputs": [
        {
          "internalType": "uint256",
          "name": "tokenId",
          "type": "uint256"
        }
      ],
      "name": "ownerOf",
      "outputs": [
        {
          "internalType": "address",
          "name": "",
          "type": "address"
        }
      ],
      "stateMutability": "view",
      "type": "function"
    },
    {
      "inputs": [
        {
          "internalType": "address",
          "name": "spender",
          "type": "address"
        },
        {
          "internalType": "uint256",
          "name": "tokenId",
          "type": "uint256"
        },
        {
          "internalType": "uint256",
          "name": "deadline",
          "type": "uint256"
        },
        {
          "internalType": "uint8",
          "name": "v",
          "type": "uint8"
        },
        {
          "internalType": "bytes32",
          "name": "r",
          "type": "bytes32"
        },
        {
          "internalType": "bytes32",
          "name": "s",
          "type": "bytes32"
        }
      ],
      "name": "permit",
      "outputs": [],
      "stateMutability": "payable",
      "type": "function"
    },
    {
      "inputs": [
        {
          "internalType": "uint256",
          "name": "tokenId",
          "type": "uint256"
        }
      ],
      "name": "positions",
      "outputs": [
        {
          "internalType": "uint96",
          "name": "nonce",
          "type": "uint96"
        },
        {
          "internalType": "address",
          "name": "operator",
          "type": "address"
        },
        {
          "internalType": "address",
          "name": "token0",
          "type": "address"
        },
        {
          "internalType": "address",
          "name": "token1",
          "type": "address"
        },
        {
          "internalType": "uint24",
          "name": "fee",
          "type": "uint24"
        },
        {
          "internalType": "int24",
          "name": "tickLower",
          "type": "int24"
        },
        {
          "internalType": "int24",
          "name": "tickUpper",
          "type": "int24"
        },
        {
          "internalType": "uint128",
          "name": "liquidity",
          "type": "uint128"
        },
        {
          "internalType": "uint256",
          "name": "feeGrowthInside0LastX128",
          "type": "uint256"
        },
        {
          "internalType": "uint256",
          "name": "feeGrowthInside1LastX128",
          "type": "uint256"
        },
        {
          "internalType": "uint128",
          "name": "tokensOwed0",
          "type": "uint128"
        },
        {
          "internalType": "uint128",
          "name": "tokensOwed1",
          "type": "uint128"
        }
      ],
      "stateMutability": "view",
      "type": "function"
    },
    {
      "inputs": [],
      "name": "refundETH",
      "outputs": [],
      "stateMutability": "payable",
      "type": "function"
    },
    {
      "inputs": [
        {
          "internalType": "address",
          "name": "from",
          "type": "address"
        },
        {
          "internalType": "address",
          "name": "to",
          "type": "address"
        },
        {
          "internalType": "uint256",
          "name": "tokenId",
          "type": "uint256"
        }
      ],
      "name": "safeTransferFrom",
      "outputs": [],
      "stateMutability": "nonpayable",
      "type": "function"
    },
    {
      "inputs": [
        {
          "internalType": "address",
          "name": "from",
          "type": "address"
        },
        {
          "internalType": "address",
          "name": "to",
          "type": "address"
        },
        {
          "internalType": "uint256",
          "name": "tokenId",
          "type": "uint256"
        },
        {
          "internalType": "bytes",
          "name": "_data",
          "type": "bytes"
        }
      ],
      "name": "safeTransferFrom",
      "outputs": [],
      "stateMutability": "nonpayable",
      "type": "function"
    },
    {
      "inputs": [
        {
          "internalType": "address",
          "name": "token",
          "type": "address"
        },
        {
          "internalType": "uint256",
          "name": "value",
          "type": "uint256"
        },
        {
          "internalType": "uint256",
          "name": "deadline",
          "type": "uint256"
        },
        {
          "internalType": "uint8",
          "name": "v",
          "type": "uint8"
        },
        {
          "internalType": "bytes32",
          "name": "r",
          "type": "bytes32"
        },
        {
          "internalType": "bytes32",
          "name": "s",
          "type": "bytes32"
        }
      ],
      "name": "selfPermit",
      "outputs": [],
      "stateMutability": "payable",
      "type": "function"
    },
    {
      "inputs": [
        {
          "internalType": "address",
          "name": "token",
          "type": "address"
        },
        {
          "internalType": "uint256",
          "name": "nonce",
          "type": "uint256"
        },
        {
          "internalType": "uint256",
          "name": "expiry",
          "type": "uint256"
        },
        {
          "internalType": "uint8",
          "name": "v",
          "type": "uint8"
        },
        {
          "internalType": "bytes32",
          "name": "r",
          "type": "bytes32"
        },
        {
          "internalType": "bytes32",
          "name": "s",
          "type": "bytes32"
        }
      ],
      "name": "selfPermitAllowed",
      "outputs": [],
      "stateMutability": "payable",
      "type": "function"
    },
    {
      "inputs": [
        {
          "internalType": "address",
          "name": "token",
          "type": "address"
        },
        {
          "internalType": "uint256",
          "name": "nonce",
          "type": "uint256"
        },
        {
          "internalType": "uint256",
          "name": "expiry",
          "type": "uint256"
        },
        {
          "internalType": "uint8",
          "name": "v",
          "type": "uint8"
        },
        {
          "internalType": "bytes32",
          "name": "r",
          "type": "bytes32"
        },
        {
          "internalType": "bytes32",
          "name": "s",
          "type": "bytes32"
        }
      ],
      "name": "selfPermitAllowedIfNecessary",
      "outputs": [],
      "stateMutability": "payable",
      "type": "function"
    },
    {
      "inputs": [
        {
          "internalType": "address",
          "name": "token",
          "type": "address"
        },
        {
          "internalType": "uint256",
          "name": "value",
          "type": "uint256"
        },
        {
          "internalType": "uint256",
          "name": "deadline",
          "type": "uint256"
        },
        {
          "internalType": "uint8",
          "name": "v",
          "type": "uint8"
        },
        {
          "internalType": "bytes32",
          "name": "r",
          "type": "bytes32"
        },
        {
          "internalType": "bytes32",
          "name": "s",
          "type": "bytes32"
        }
      ],
      "name": "selfPermitIfNecessary",
      "outputs": [],
      "stateMutability": "payable",
      "type": "function"
    },
    {
      "inputs": [
        {
          "internalType": "address",
          "name": "operator",
          "type": "address"
        },
        {
          "internalType": "bool",
          "name": "approved",
          "type": "bool"
        }
      ],
      "name": "setApprovalForAll",
      "outputs": [],
      "stateMutability": "nonpayable",
      "type": "function"
    },
    {
      "inputs": [
        {
          "internalType": "bytes4",
          "name": "interfaceId",
          "type": "bytes4"
        }
      ],
      "name": "supportsInterface",
      "outputs": [
        {
          "internalType": "bool",
          "name": "",
          "type": "bool"
        }
      ],
      "stateMutability": "view",
      "type": "function"
    },
    {
      "inputs": [
        {
          "internalType": "address",
          "name": "token",
          "type": "address"
        },
        {
          "internalType": "uint256",
          "name": "amountMinimum",
          "type": "uint256"
        },
        {
          "internalType": "address",
          "name": "recipient",
          "type": "address"
        }
      ],
      "name": "sweepToken",
      "outputs": [],
      "stateMutability": "payable",
      "type": "function"
    },
    {
      "inputs": [],
      "name": "symbol",
      "outputs": [
        {
          "internalType": "string",
          "name": "",
          "type": "string"
        }
      ],
      "stateMutability": "view",
      "type": "function"
    },
    {
      "inputs": [
        {
          "internalType": "uint256",
          "name": "index",
          "type": "uint256"
        }
      ],
      "name": "tokenByIndex",
      "outputs": [
        {
          "internalType": "uint256",
          "name": "",
          "type": "uint256"
        }
      ],
      "stateMutability": "view",
      "type": "function"
    },
    {
      "inputs": [
        {
          "internalType": "address",
          "name": "owner",
          "type": "address"
        },
        {
          "internalType": "uint256",
          "name": "index",
          "type": "uint256"
        }
      ],
      "name": "tokenOfOwnerByIndex",
      "outputs": [
        {
          "internalType": "uint256",
          "name": "",
          "type": "uint256"
        }
      ],
      "stateMutability": "view",
      "type": "function"
    },
    {
      "inputs": [
        {
          "internalType": "uint256",
          "name": "tokenId",
          "type": "uint256"
        }
      ],
      "name": "tokenURI",
      "outputs": [
        {
          "internalType": "string",
          "name": "",
          "type": "string"
        }
      ],
      "stateMutability": "view",
      "type": "function"
    },
    {
      "inputs": [],
      "name": "totalSupply",
      "outputs": [
        {
          "internalType": "uint256",
          "name": "",
          "type": "uint256"
        }
      ],
      "stateMutability": "view",
      "type": "function"
    },
    {
      "inputs": [
        {
          "internalType": "address",
          "name": "from",
          "type": "address"
        },
        {
          "internalType": "address",
          "name": "to",
          "type": "address"
        },
        {
          "internalType": "uint256",
          "name": "tokenId",
          "type": "uint256"
        }
      ],
      "name": "transferFrom",
      "outputs": [],
      "stateMutability": "nonpayable",
      "type": "function"
    },
    {
      "inputs": [
        {
          "internalType": "uint256",
          "name": "amount0Owed",
          "type": "uint256"
        },
        {
          "internalType": "uint256",
          "name": "amount1Owed",
          "type": "uint256"
        },
        {
          "internalType": "bytes",
          "name": "data",
          "type": "bytes"
        }
      ],
      "name": "uniswapV3MintCallback",
      "outputs": [],
      "stateMutability": "nonpayable",
      "type": "function"
    },
    {
      "inputs": [
        {
          "internalType": "uint256",
          "name": "amountMinimum",
          "type": "uint256"
        },
        {
          "internalType": "address",
          "name": "recipient",
          "type": "address"
        }
      ],
      "name": "unwrapWETH9",
      "outputs": [],
      "stateMutability": "payable",
      "type": "function"
    },
    {
      "stateMutability": "payable",
      "type": "receive"
    }
  ],
  "bytecode": "0x610120604052600d80546001600160b01b0319166001176001600160b01b0316600160b01b1790553480156200003457600080fd5b5060405162005d6f38038062005d6f8339810160408190526200005791620002db565b82826040518060400160405280601b81526020017f556e697377617020563320506f736974696f6e73204e46542d563100000000008152506040518060400160405280600a815260200169554e492d56332d504f5360b01b815250604051806040016040528060018152602001603160f81b8152508282620000e66301ffc9a760e01b6200018d60201b60201c565b8151620000fb90600690602085019062000212565b5080516200011190600790602084019062000212565b50620001246380ac58cd60e01b6200018d565b62000136635b5e139f60e01b6200018d565b6200014863780e9d6360e01b6200018d565b50508251602093840120608052805192019190912060a052506001600160601b0319606092831b811660c05290821b811660e05291901b166101005250620003249050565b6001600160e01b03198082161415620001ed576040805162461bcd60e51b815260206004820152601c60248201527f4552433136353a20696e76616c696420696e7465726661636520696400000000604482015290519081900360640190fd5b6001600160e01b0319166000908152602081905260409020805460ff19166001179055565b828054600181600116156101000203166002900490600052602060002090601f0160209004810192826200024a576000855562000295565b82601f106200026557805160ff191683800117855562000295565b8280016001018555821562000295579182015b828111156200029557825182559160200191906001019062000278565b50620002a3929150620002a7565b5090565b5b80821115620002a35760008155600101620002a8565b80516001600160a01b0381168114620002d657600080fd5b919050565b600080600060608486031215620002f0578283fd5b620002fb84620002be565b92506200030b60208501620002be565b91506200031b60408501620002be565b90509250925092565b60805160a05160c05160601c60e05160601c6101005160601c6159c6620003a9600039806127f052508061023952806116095280611705528061178d5280613a915280613ad75280613b4b525080610a055280610d255280610dec52806127a352806128905280612b8a528061338d5250806114095250806113e852506159c66000f3fe6080604052600436106102295760003560e01c80636352211e11610123578063ac9650d8116100ab578063d34879971161006f578063d34879971461064e578063df2ab5bb1461066e578063e985e9c514610681578063f3995c67146106a1578063fc6f7865146106b457610299565b8063ac9650d8146105c6578063b88d4fde146105e6578063c2e3140a14610606578063c45a015514610619578063c87b56dd1461062e57610299565b806388316456116100f2578063883164561461052357806395d89b411461054657806399fbab881461055b578063a22cb46514610593578063a4a78f0c146105b357610299565b80636352211e146104bb5780636c0360eb146104db57806370a08231146104f05780637ac2ff7b1461051057610299565b806323b872dd116101b157806342966c681161017557806342966c681461044d5780634659a4941461046057806349404b7c146104735780634aa4a4fc146104865780634f6ccce71461049b57610299565b806323b872dd146103c35780632f745c59146103e357806330adf81f146104035780633644e5151461041857806342842e0e1461042d57610299565b80630c49ccbe116101f85780630c49ccbe1461034357806312210e8a1461036457806313ead5621461036c57806318160ddd1461037f578063219f5d17146103a157610299565b806301ffc9a71461029e57806306fdde03146102d4578063081812fc146102f6578063095ea7b31461032357610299565b3661029957336001600160a01b037f00000000000000000000000000000000000000000000000000000000000000001614610297576040805162461bcd60e51b81526020600482015260096024820152684e6f7420574554483960b81b604482015290519081900360640190fd5b005b600080fd5b3480156102aa57600080fd5b506102be6102b9366004614ea7565b6106c7565b6040516102cb91906153e8565b60405180910390f35b3480156102e057600080fd5b506102e96106ea565b6040516102cb919061543b565b34801561030257600080fd5b506103166103113660046151a1565b610780565b6040516102cb91906152cb565b34801561032f57600080fd5b5061029761033e366004614d71565b6107d3565b610356610351366004614f6c565b6108a9565b6040516102cb9291906155c2565b610297610cf1565b61031661037a366004614c04565b610d03565b34801561038b57600080fd5b50610394610ff7565b6040516102cb91906153f3565b6103b46103af366004614f7d565b611008565b6040516102cb9392919061557d565b3480156103cf57600080fd5b506102976103de366004614c5d565b61131d565b3480156103ef57600080fd5b506103946103fe366004614d71565b611374565b34801561040f57600080fd5b5061039461139f565b34801561042457600080fd5b506103946113c3565b34801561043957600080fd5b50610297610448366004614c5d565b611481565b61029761045b3660046151a1565b61149c565b61029761046e366004614ddd565b61156b565b6102976104813660046151b9565b611605565b34801561049257600080fd5b5061031661178b565b3480156104a757600080fd5b506103946104b63660046151a1565b6117af565b3480156104c757600080fd5b506103166104d63660046151a1565b6117c5565b3480156104e757600080fd5b506102e96117ed565b3480156104fc57600080fd5b5061039461050b366004614bb0565b6117f2565b61029761051e366004614ddd565b61185a565b610536610531366004615039565b611c4c565b6040516102cb949392919061559e565b34801561055257600080fd5b506102e9612164565b34801561056757600080fd5b5061057b6105763660046151a1565b6121c5565b6040516102cb9c9b9a999897969594939291906155d0565b34801561059f57600080fd5b506102976105ae366004614d44565b6123d6565b6102976105c1366004614ddd565b6124db565b6105d96105d4366004614e38565b612574565b6040516102cb9190615388565b3480156105f257600080fd5b50610297610601366004614c9d565b6126b4565b610297610614366004614ddd565b612712565b34801561062557600080fd5b506103166127a1565b34801561063a57600080fd5b506102e96106493660046151a1565b6127c5565b34801561065a57600080fd5b50610297610669366004615200565b61287b565b61029761067c366004614d9c565b6128f9565b34801561068d57600080fd5b506102be61069c366004614bcc565b6129d1565b6102976106af366004614ddd565b6129ff565b6103566106c2366004614f55565b612a71565b6001600160e01b0319811660009081526020819052604090205460ff165b919050565b60068054604080516020601f60026000196101006001881615020190951694909404938401819004810282018101909252828152606093909290918301828280156107765780601f1061074b57610100808354040283529160200191610776565b820191906000526020600020905b81548152906001019060200180831161075957829003601f168201915b5050505050905090565b600061078b82612f3c565b6107b05760405162461bcd60e51b81526004016107a790615474565b60405180910390fd5b506000908152600c6020526040902054600160601b90046001600160a01b031690565b60006107de826117c5565b9050806001600160a01b0316836001600160a01b031614156108315760405162461bcd60e51b815260040180806020018281038252602181526020018061593f6021913960400191505060405180910390fd5b806001600160a01b0316610843612f49565b6001600160a01b0316148061085f575061085f8161069c612f49565b61089a5760405162461bcd60e51b81526004018080602001828103825260388152602001806158696038913960400191505060405180910390fd5b6108a48383612f4d565b505050565b60008082356108b83382612fc3565b6108d45760405162461bcd60e51b81526004016107a79061544e565b8360800135806108e261305f565b111561092b576040805162461bcd60e51b8152602060048201526013602482015272151c985b9cd858dd1a5bdb881d1bdbc81bdb19606a1b604482015290519081900360640190fd5b600061093d604087016020880161504b565b6001600160801b03161161095057600080fd5b84356000908152600c602090815260409182902060018101549092600160801b9091046001600160801b03169161098b91890190890161504b565b6001600160801b0316816001600160801b031610156109a957600080fd5b6001828101546001600160501b03166000908152600b60209081526040808320815160608101835281546001600160a01b039081168252919095015490811692850192909252600160a01b90910462ffffff1690830152610a2a7f000000000000000000000000000000000000000000000000000000000000000083613063565b60018501549091506001600160a01b0382169063a34123a790600160501b8104600290810b91600160681b9004900b610a6960408e0160208f0161504b565b6040518463ffffffff1660e01b8152600401610a8793929190615415565b6040805180830381600087803b158015610aa057600080fd5b505af1158015610ab4573d6000803e3d6000fd5b505050506040513d601f19601f82011682018060405250810190610ad891906151dd565b909850965060408901358810801590610af5575088606001358710155b610b115760405162461bcd60e51b81526004016107a7906154c0565b6001840154600090610b3a903090600160501b8104600290810b91600160681b9004900b613142565b9050600080836001600160a01b031663514ea4bf846040518263ffffffff1660e01b8152600401610b6b91906153f3565b60a06040518083038186803b158015610b8357600080fd5b505afa158015610b97573d6000803e3d6000fd5b505050506040513d601f19601f82011682018060405250810190610bbb9190615095565b50509250925050610be087600201548303876001600160801b0316600160801b613197565b6004880180546001600160801b03198116928e016001600160801b039182160181169290921790556003880154610c2191908303908816600160801b613197565b6004880180546001600160801b03808216938e01600160801b9283900482160116029190911790556002870182905560038701819055610c6760408d0160208e0161504b565b86038760010160106101000a8154816001600160801b0302191690836001600160801b031602179055508b600001357f26f6a048ee9138f2c0ce266f322cb99228e8d619ae2bff30c67f8dcf9d2377b48d6020016020810190610cca919061504b565b8d8d604051610cdb9392919061557d565b60405180910390a2505050505050505050915091565b4715610d0157610d013347613246565b565b6000836001600160a01b0316856001600160a01b031610610d2357600080fd5b7f00000000000000000000000000000000000000000000000000000000000000006001600160a01b0316631698ee828686866040518463ffffffff1660e01b815260040180846001600160a01b03168152602001836001600160a01b031681526020018262ffffff168152602001935050505060206040518083038186803b158015610dae57600080fd5b505afa158015610dc2573d6000803e3d6000fd5b505050506040513d6020811015610dd857600080fd5b505190506001600160a01b038116610f0e577f00000000000000000000000000000000000000000000000000000000000000006001600160a01b031663a16712958686866040518463ffffffff1660e01b815260040180846001600160a01b03168152602001836001600160a01b031681526020018262ffffff1681526020019350505050602060405180830381600087803b158015610e7757600080fd5b505af1158015610e8b573d6000803e3d6000fd5b505050506040513d6020811015610ea157600080fd5b50516040805163f637731d60e01b81526001600160a01b03858116600483015291519293509083169163f637731d9160248082019260009290919082900301818387803b158015610ef157600080fd5b505af1158015610f05573d6000803e3d6000fd5b50505050610fef565b6000816001600160a01b0316633850c7bd6040518163ffffffff1660e01b815260040160e06040518083038186803b158015610f4957600080fd5b505afa158015610f5d573d6000803e3d6000fd5b505050506040513d60e0811015610f7357600080fd5b505190506001600160a01b038116610fed57816001600160a01b031663f637731d846040518263ffffffff1660e01b815260040180826001600160a01b03168152602001915050600060405180830381600087803b158015610fd457600080fd5b505af1158015610fe8573d6000803e3d6000fd5b505050505b505b949350505050565b60006110036002613335565b905090565b60008060008360a001358061101b61305f565b1115611064576040805162461bcd60e51b8152602060048201526013602482015272151c985b9cd858dd1a5bdb881d1bdbc81bdb19606a1b604482015290519081900360640190fd5b84356000908152600c602090815260408083206001808201546001600160501b0381168652600b855283862084516060808201875282546001600160a01b039081168352929094015480831682890190815262ffffff600160a01b9092048216838901908152885161014081018a528451861681529151909416818a0152925116828701523082850152600160501b8304600290810b810b608080850191909152600160681b909404810b900b60a0830152958c013560c0820152938b013560e0850152908a0135610100840152890135610120830152929061114690613340565b6001870154939a5091985096509150600090611179903090600160501b8104600290810b91600160681b9004900b613142565b9050600080836001600160a01b031663514ea4bf846040518263ffffffff1660e01b81526004016111aa91906153f3565b60a06040518083038186803b1580156111c257600080fd5b505afa1580156111d6573d6000803e3d6000fd5b505050506040513d601f19601f820116820180604052508101906111fa9190615095565b50509250925050611236866002015483038760010160109054906101000a90046001600160801b03166001600160801b0316600160801b613197565b6004870180546001600160801b0380821690930183166001600160801b03199091161790556003870154600188015461127d9291840391600160801b918290041690613197565b6004870180546001600160801b03600160801b80830482169094018116840291811691909117909155600288018490556003880183905560018801805483810483168e018316909302929091169190911790556040518b35907f3067048beee31b25b2f1681f88dac838c8bba36af25bfb2b7cf7473a5847e35f90611307908d908d908d9061557d565b60405180910390a2505050505050509193909250565b61132e611328612f49565b82612fc3565b6113695760405162461bcd60e51b81526004018080602001828103825260318152602001806159606031913960400191505060405180910390fd5b6108a483838361357b565b6001600160a01b038216600090815260016020526040812061139690836136c7565b90505b92915050565b7f49ecf333e5b8c95c40fdafc95c1ad136e8914a8fb55e9dc8bb01eaa83a2df9ad81565b60007f8b73c3c69bb8fe3d512ecc4cf759cc79239f7b179b0ffacaa9a75d522b39400f7f00000000000000000000000000000000000000000000000000000000000000007f00000000000000000000000000000000000000000000000000000000000000006114306136d3565b3060405160200180868152602001858152602001848152602001838152602001826001600160a01b031681526020019550505050505060405160208183030381529060405280519060200120905090565b6108a4838383604051806020016040528060008152506126b4565b806114a73382612fc3565b6114c35760405162461bcd60e51b81526004016107a79061544e565b6000828152600c602052604090206001810154600160801b90046001600160801b03161580156114fe575060048101546001600160801b0316155b801561151c57506004810154600160801b90046001600160801b0316155b6115385760405162461bcd60e51b81526004016107a790615518565b6000838152600c60205260408120818155600181018290556002810182905560038101829055600401556108a4836136d7565b604080516323f2ebc360e21b815233600482015230602482015260448101879052606481018690526001608482015260ff851660a482015260c4810184905260e4810183905290516001600160a01b03881691638fcbaf0c9161010480830192600092919082900301818387803b1580156115e557600080fd5b505af11580156115f9573d6000803e3d6000fd5b50505050505050505050565b60007f00000000000000000000000000000000000000000000000000000000000000006001600160a01b03166370a08231306040518263ffffffff1660e01b815260040180826001600160a01b0316815260200191505060206040518083038186803b15801561167457600080fd5b505afa158015611688573d6000803e3d6000fd5b505050506040513d602081101561169e57600080fd5b50519050828110156116ec576040805162461bcd60e51b8152602060048201526012602482015271496e73756666696369656e7420574554483960701b604482015290519081900360640190fd5b80156108a45764e8d4a51000810464e8d4a510000290507f00000000000000000000000000000000000000000000000000000000000000006001600160a01b0316632e1a7d4d826040518263ffffffff1660e01b815260040180828152602001915050600060405180830381600087803b15801561176957600080fd5b505af115801561177d573d6000803e3d6000fd5b505050506108a48282613246565b7f000000000000000000000000000000000000000000000000000000000000000081565b6000806117bd6002846137a4565b509392505050565b6000611399826040518060600160405280602981526020016158cb60299139600291906137c2565b606090565b60006001600160a01b0382166118395760405162461bcd60e51b815260040180806020018281038252602a8152602001806158a1602a913960400191505060405180910390fd5b6001600160a01b038216600090815260016020526040902061139990613335565b8361186361305f565b11156118a7576040805162461bcd60e51b815260206004820152600e60248201526d14195c9b5a5d08195e1c1a5c995960921b604482015290519081900360640190fd5b60006118b16113c3565b7f49ecf333e5b8c95c40fdafc95c1ad136e8914a8fb55e9dc8bb01eaa83a2df9ad88886118dd816137cf565b604080516020808201969096526001600160a01b03909416848201526060840192909252608083015260a08083018a90528151808403909101815260c08301825280519084012061190160f01b60e084015260e283019490945261010280830194909452805180830390940184526101229091019052815191012090506000611965876117c5565b9050806001600160a01b0316886001600160a01b031614156119b85760405162461bcd60e51b81526004018080602001828103825260278152602001806157cc6027913960400191505060405180910390fd5b6119c181613804565b15611b29576040805160208082018790528183018690526001600160f81b031960f889901b1660608301528251604181840301815260618301808552630b135d3f60e11b90526065830186815260858401948552815160a585015281516001600160a01b03871695631626ba7e958995919260c59091019185019080838360005b83811015611a5a578181015183820152602001611a42565b50505050905090810190601f168015611a875780820380516001836020036101000a031916815260200191505b50935050505060206040518083038186803b158015611aa557600080fd5b505afa158015611ab9573d6000803e3d6000fd5b505050506040513d6020811015611acf57600080fd5b50516001600160e01b031916630b135d3f60e11b14611b24576040805162461bcd60e51b815260206004820152600c60248201526b155b985d5d1a1bdc9a5e995960a21b604482015290519081900360640190fd5b611c38565b600060018387878760405160008152602001604052604051808581526020018460ff1681526020018381526020018281526020019450505050506020604051602081039080840390855afa158015611b85573d6000803e3d6000fd5b5050604051601f1901519150506001600160a01b038116611be1576040805162461bcd60e51b8152602060048201526011602482015270496e76616c6964207369676e617475726560781b604482015290519081900360640190fd5b816001600160a01b0316816001600160a01b031614611c36576040805162461bcd60e51b815260206004820152600c60248201526b155b985d5d1a1bdc9a5e995960a21b604482015290519081900360640190fd5b505b611c428888612f4d565b5050505050505050565b60008060008084610140013580611c6161305f565b1115611caa576040805162461bcd60e51b8152602060048201526013602482015272151c985b9cd858dd1a5bdb881d1bdbc81bdb19606a1b604482015290519081900360640190fd5b604080516101408101909152600090611d769080611ccb60208b018b614bb0565b6001600160a01b03168152602001896020016020810190611cec9190614bb0565b6001600160a01b03168152602001611d0a60608b0160408c01615187565b62ffffff168152306020820152604001611d2a60808b0160608c01614ecf565b60020b8152602001611d4260a08b0160808c01614ecf565b60020b81526020018960a0013581526020018960c0013581526020018960e001358152602001896101000135815250613340565b92975090955093509050611dc3611d9561014089016101208a01614bb0565b600d80546001600160b01b0319811660016001600160b01b039283169081019092161790915597508761380a565b6000611dee30611dd960808b0160608c01614ecf565b611de960a08c0160808d01614ecf565b613142565b9050600080836001600160a01b031663514ea4bf846040518263ffffffff1660e01b8152600401611e1f91906153f3565b60a06040518083038186803b158015611e3757600080fd5b505afa158015611e4b573d6000803e3d6000fd5b505050506040513d601f19601f82011682018060405250810190611e6f9190615095565b505092509250506000611ee88560405180606001604052808e6000016020810190611e9a9190614bb0565b6001600160a01b031681526020018e6020016020810190611ebb9190614bb0565b6001600160a01b031681526020018e6040016020810190611edc9190615187565b62ffffff169052613938565b905060405180610140016040528060006001600160601b0316815260200160006001600160a01b03168152602001826001600160501b031681526020018c6060016020810190611f389190614ecf565b60020b8152602001611f5060a08e0160808f01614ecf565b60020b81526020018a6001600160801b0316815260200184815260200183815260200160006001600160801b0316815260200160006001600160801b0316815250600c60008c815260200190815260200160002060008201518160000160006101000a8154816001600160601b0302191690836001600160601b03160217905550602082015181600001600c6101000a8154816001600160a01b0302191690836001600160a01b0316021790555060408201518160010160006101000a8154816001600160501b0302191690836001600160501b03160217905550606082015181600101600a6101000a81548162ffffff021916908360020b62ffffff160217905550608082015181600101600d6101000a81548162ffffff021916908360020b62ffffff16021790555060a08201518160010160106101000a8154816001600160801b0302191690836001600160801b0316021790555060c0820151816002015560e082015181600301556101008201518160040160006101000a8154816001600160801b0302191690836001600160801b031602179055506101208201518160040160106101000a8154816001600160801b0302191690836001600160801b03160217905550905050897f3067048beee31b25b2f1681f88dac838c8bba36af25bfb2b7cf7473a5847e35f8a8a8a60405161214f9392919061557d565b60405180910390a25050505050509193509193565b60078054604080516020601f60026000196101006001881615020190951694909404938401819004810282018101909252828152606093909290918301828280156107765780601f1061074b57610100808354040283529160200191610776565b6000818152600c6020908152604080832081516101408101835281546001600160601b03811682526001600160a01b03600160601b909104169381019390935260018101546001600160501b038116928401839052600160501b8104600290810b810b810b6060860152600160681b8204810b810b810b60808601526001600160801b03600160801b92839004811660a08701529083015460c0860152600383015460e0860152600490920154808316610100860152041661012083015282918291829182918291829182918291829182918291906122b65760405162461bcd60e51b81526004016107a7906154ee565b6000600b600083604001516001600160501b03166001600160501b031681526020019081526020016000206040518060600160405290816000820160009054906101000a90046001600160a01b03166001600160a01b03166001600160a01b031681526020016001820160009054906101000a90046001600160a01b03166001600160a01b03166001600160a01b031681526020016001820160149054906101000a900462ffffff1662ffffff1662ffffff1681525050905081600001518260200151826000015183602001518460400151866060015187608001518860a001518960c001518a60e001518b61010001518c61012001519d509d509d509d509d509d509d509d509d509d509d509d50505091939597999b5091939597999b565b6123de612f49565b6001600160a01b0316826001600160a01b03161415612444576040805162461bcd60e51b815260206004820152601960248201527f4552433732313a20617070726f766520746f2063616c6c657200000000000000604482015290519081900360640190fd5b8060056000612451612f49565b6001600160a01b03908116825260208083019390935260409182016000908120918716808252919093529120805460ff191692151592909217909155612495612f49565b6001600160a01b03167f17307eab39ab6107e8899845ad3d59bd9653f200f220920489ca2b5937696c318360405180821515815260200191505060405180910390a35050565b60408051636eb1769f60e11b81523360048201523060248201529051600019916001600160a01b0389169163dd62ed3e91604480820192602092909190829003018186803b15801561252c57600080fd5b505afa158015612540573d6000803e3d6000fd5b505050506040513d602081101561255657600080fd5b5051101561256c5761256c86868686868661156b565b505050505050565b60608167ffffffffffffffff8111801561258d57600080fd5b506040519080825280602002602001820160405280156125c157816020015b60608152602001906001900390816125ac5790505b50905060005b828110156126ad57600080308686858181106125df57fe5b90506020028101906125f1919061566a565b6040516125ff9291906152bb565b600060405180830381855af49150503d806000811461263a576040519150601f19603f3d011682016040523d82523d6000602084013e61263f565b606091505b50915091508161268b5760448151101561265857600080fd5b600481019050808060200190518101906126729190614eeb565b60405162461bcd60e51b81526004016107a7919061543b565b8084848151811061269857fe5b602090810291909101015250506001016125c7565b5092915050565b6126c56126bf612f49565b83612fc3565b6127005760405162461bcd60e51b81526004018080602001828103825260318152602001806159606031913960400191505060405180910390fd5b61270c84848484613a1a565b50505050565b60408051636eb1769f60e11b8152336004820152306024820152905186916001600160a01b0389169163dd62ed3e91604480820192602092909190829003018186803b15801561276157600080fd5b505afa158015612775573d6000803e3d6000fd5b505050506040513d602081101561278b57600080fd5b5051101561256c5761256c8686868686866129ff565b7f000000000000000000000000000000000000000000000000000000000000000081565b60606127d082612f3c565b6127d957600080fd5b60405163e9dc637560e01b81526001600160a01b037f0000000000000000000000000000000000000000000000000000000000000000169063e9dc63759061282790309086906004016153fc565b60006040518083038186803b15801561283f57600080fd5b505afa158015612853573d6000803e3d6000fd5b505050506040513d6000823e601f3d908101601f191682016040526113999190810190614eeb565b600061288982840184614f8e565b90506128b97f00000000000000000000000000000000000000000000000000000000000000008260000151613a6c565b5084156128d45780515160208201516128d491903388613a8f565b83156128f2576128f281600001516020015182602001513387613a8f565b5050505050565b6000836001600160a01b03166370a08231306040518263ffffffff1660e01b815260040180826001600160a01b0316815260200191505060206040518083038186803b15801561294857600080fd5b505afa15801561295c573d6000803e3d6000fd5b505050506040513d602081101561297257600080fd5b50519050828110156129c0576040805162461bcd60e51b815260206004820152601260248201527124b739bab33334b1b4b2b73a103a37b5b2b760711b604482015290519081900360640190fd5b801561270c5761270c848383613c1f565b6001600160a01b03918216600090815260056020908152604080832093909416825291909152205460ff1690565b6040805163d505accf60e01b8152336004820152306024820152604481018790526064810186905260ff8516608482015260a4810184905260c4810183905290516001600160a01b0388169163d505accf9160e480830192600092919082900301818387803b1580156115e557600080fd5b6000808235612a803382612fc3565b612a9c5760405162461bcd60e51b81526004016107a79061544e565b6000612aae606086016040870161504b565b6001600160801b03161180612adb57506000612ad0608086016060870161504b565b6001600160801b0316115b612ae457600080fd5b600080612af76040870160208801614bb0565b6001600160a01b031614612b1a57612b156040860160208701614bb0565b612b1c565b305b85356000908152600c602090815260408083206001808201546001600160501b03168552600b8452828520835160608101855281546001600160a01b039081168252919092015490811694820194909452600160a01b90930462ffffff169183019190915292935090612baf7f000000000000000000000000000000000000000000000000000000000000000083613063565b600484015460018501549192506001600160801b0380821692600160801b9283900482169290041615612da557600185015460405163a34123a760e01b81526001600160a01b0385169163a34123a791612c2691600160501b8104600290810b92600160681b909204900b90600090600401615415565b6040805180830381600087803b158015612c3f57600080fd5b505af1158015612c53573d6000803e3d6000fd5b505050506040513d601f19601f82011682018060405250810190612c7791906151dd565b5050600185015460009081906001600160a01b0386169063514ea4bf90612cb5903090600160501b8104600290810b91600160681b9004900b613142565b6040518263ffffffff1660e01b8152600401612cd191906153f3565b60a06040518083038186803b158015612ce957600080fd5b505afa158015612cfd573d6000803e3d6000fd5b505050506040513d601f19601f82011682018060405250810190612d219190615095565b50509250925050612d5d876002015483038860010160109054906101000a90046001600160801b03166001600160801b0316600160801b613197565b84019350612d96876003015482038860010160109054906101000a90046001600160801b03166001600160801b0316600160801b613197565b60028801929092556003870155015b6000806001600160801b038416612dc260608e0160408f0161504b565b6001600160801b031611612de557612de060608d0160408e0161504b565b612de7565b835b836001600160801b03168d6060016020810190612e04919061504b565b6001600160801b031611612e2757612e2260808e0160608f0161504b565b612e29565b835b60018901546040516309e3d67b60e31b81529294509092506001600160a01b03871691634f1eb3d891612e7c918c91600160501b8104600290810b92600160681b909204900b9088908890600401615321565b6040805180830381600087803b158015612e9557600080fd5b505af1158015612ea9573d6000803e3d6000fd5b505050506040513d601f19601f82011682018060405250810190612ecd9190615067565b6004890180546001600160801b03196001600160801b03918216600160801b878a0384160217168689038216179091556040519281169d50169a508c35907f40d0efd1a53d60ecbf40971b9daf7dc90178c3aadc7aab1765632738fa8b8f0190610cdb908b908690869061535e565b6000611399600283613d66565b3390565b6000818152600c6020526040902080546001600160601b0316600160601b6001600160a01b038516908102919091179091558190612f8a826117c5565b6001600160a01b03167f8c5be1e5ebec7d5bd14f71427d1e84f3dd0314c0f7b2291e5b200ac8c7c3b92560405160405180910390a45050565b6000612fce82612f3c565b6130095760405162461bcd60e51b815260040180806020018281038252602c81526020018061583d602c913960400191505060405180910390fd5b6000613014836117c5565b9050806001600160a01b0316846001600160a01b0316148061304f5750836001600160a01b031661304484610780565b6001600160a01b0316145b80610fef5750610fef81856129d1565b4290565b600081602001516001600160a01b031682600001516001600160a01b03161061308b57600080fd5b50805160208083015160409384015184516001600160a01b0394851681850152939091168385015262ffffff166060808401919091528351808403820181526080840185528051908301206001600160f81b031960a085015294901b6001600160601b03191660a183015260b58201939093527fd0aea3694b6899e0659f9ac990b71639615601444c2dd3e05521451de0f7ecfe60d5808301919091528251808303909101815260f5909101909152805191012090565b604080516001600160601b0319606086901b16602080830191909152600285810b60e890811b60348501529085900b901b60378301528251601a818403018152603a90920190925280519101205b9392505050565b60008080600019858709868602925082811090839003039050806131cd57600084116131c257600080fd5b508290049050613190565b8084116131d957600080fd5b6000848688096000868103871696879004966002600389028118808a02820302808a02820302808a02820302808a02820302808a02820302808a02909103029181900381900460010186841190950394909402919094039290920491909117919091029150509392505050565b604080516000808252602082019092526001600160a01b0384169083906040518082805190602001908083835b602083106132925780518252601f199092019160209182019101613273565b6001836020036101000a03801982511681845116808217855250505050505090500191505060006040518083038185875af1925050503d80600081146132f4576040519150601f19603f3d011682016040523d82523d6000602084013e6132f9565b606091505b50509050806108a4576040805162461bcd60e51b815260206004820152600360248201526253544560e81b604482015290519081900360640190fd5b600061139982613d72565b6000806000806000604051806060016040528087600001516001600160a01b0316815260200187602001516001600160a01b03168152602001876040015162ffffff1681525090506133b27f000000000000000000000000000000000000000000000000000000000000000082613063565b91506000826001600160a01b0316633850c7bd6040518163ffffffff1660e01b815260040160e06040518083038186803b1580156133ef57600080fd5b505afa158015613403573d6000803e3d6000fd5b505050506040513d601f19601f8201168201806040525081019061342791906150f6565b5050505050509050600061343e8860800151613d76565b9050600061344f8960a00151613d76565b90506134668383838c60c001518d60e001516140a8565b9750505050816001600160a01b0316633c8a7d8d876060015188608001518960a00151896040518060400160405280888152602001336001600160a01b03168152506040516020016134b8919061553d565b6040516020818303038152906040526040518663ffffffff1660e01b81526004016134e79594939291906152df565b6040805180830381600087803b15801561350057600080fd5b505af1158015613514573d6000803e3d6000fd5b505050506040513d601f19601f8201168201806040525081019061353891906151dd565b6101008801519195509350841080159061355757508561012001518310155b6135735760405162461bcd60e51b81526004016107a7906154c0565b509193509193565b826001600160a01b031661358e826117c5565b6001600160a01b0316146135d35760405162461bcd60e51b81526004018080602001828103825260298152602001806159166029913960400191505060405180910390fd5b6001600160a01b0382166136185760405162461bcd60e51b81526004018080602001828103825260248152602001806157f36024913960400191505060405180910390fd5b6136238383836108a4565b61362e600082612f4d565b6001600160a01b0383166000908152600160205260409020613650908261416c565b506001600160a01b03821660009081526001602052604090206136739082614178565b5061368060028284614184565b5080826001600160a01b0316846001600160a01b03167fddf252ad1be2c89b69c2b068fc378daa952ba7f163c4a11628f55a4df523b3ef60405160405180910390a4505050565b6000611396838361419a565b4690565b60006136e2826117c5565b90506136f0816000846108a4565b6136fb600083612f4d565b600082815260086020526040902054600260001961010060018416150201909116041561373957600082815260086020526040812061373991614b20565b6001600160a01b038116600090815260016020526040902061375b908361416c565b506137676002836141fe565b5060405182906000906001600160a01b038416907fddf252ad1be2c89b69c2b068fc378daa952ba7f163c4a11628f55a4df523b3ef908390a45050565b60008080806137b3868661420a565b909450925050505b9250929050565b6000610fef848484614285565b6000908152600c6020526040902080546001600160601b0319811660016001600160601b039283169081019092161790915590565b3b151590565b6001600160a01b038216613865576040805162461bcd60e51b815260206004820181905260248201527f4552433732313a206d696e7420746f20746865207a65726f2061646472657373604482015290519081900360640190fd5b61386e81612f3c565b156138c0576040805162461bcd60e51b815260206004820152601c60248201527f4552433732313a20746f6b656e20616c7265616479206d696e74656400000000604482015290519081900360640190fd5b6138cc600083836108a4565b6001600160a01b03821660009081526001602052604090206138ee9082614178565b506138fb60028284614184565b5060405181906001600160a01b038416906000907fddf252ad1be2c89b69c2b068fc378daa952ba7f163c4a11628f55a4df523b3ef908290a45050565b6001600160a01b0382166000908152600a60205260409020546001600160501b0316806113995750600d805460016001600160501b03600160b01b8084048216838101909216026001600160b01b03909316929092179092556001600160a01b038085166000908152600a60209081526040808320805469ffffffffffffffffffff191686179055848352600b825291829020865181549085166001600160a01b031991821617825591870151950180549287015162ffffff16600160a01b0262ffffff60a01b19969094169290911691909117939093161790915592915050565b613a2584848461357b565b613a318484848461434f565b61270c5760405162461bcd60e51b815260040180806020018281038252603281526020018061579a6032913960400191505060405180910390fd5b6000613a788383613063565b9050336001600160a01b0382161461139957600080fd5b7f00000000000000000000000000000000000000000000000000000000000000006001600160a01b0316846001600160a01b0316148015613ad05750804710155b15613bf2577f00000000000000000000000000000000000000000000000000000000000000006001600160a01b031663d0e30db0826040518263ffffffff1660e01b81526004016000604051808303818588803b158015613b3057600080fd5b505af1158015613b44573d6000803e3d6000fd5b50505050507f00000000000000000000000000000000000000000000000000000000000000006001600160a01b031663a9059cbb83836040518363ffffffff1660e01b815260040180836001600160a01b0316815260200182815260200192505050602060405180830381600087803b158015613bc057600080fd5b505af1158015613bd4573d6000803e3d6000fd5b505050506040513d6020811015613bea57600080fd5b5061270c9050565b6001600160a01b038316301415613c1357613c0e848383613c1f565b61270c565b61270c848484846144b7565b604080516001600160a01b038481166024830152604480830185905283518084039091018152606490920183526020820180516001600160e01b031663a9059cbb60e01b1781529251825160009485949389169392918291908083835b60208310613c9b5780518252601f199092019160209182019101613c7c565b6001836020036101000a0380198251168184511680821785525050505050509050019150506000604051808303816000865af19150503d8060008114613cfd576040519150601f19603f3d011682016040523d82523d6000602084013e613d02565b606091505b5091509150818015613d30575080511580613d305750808060200190516020811015613d2d57600080fd5b50515b6128f2576040805162461bcd60e51b815260206004820152600260248201526114d560f21b604482015290519081900360640190fd5b60006113968383614607565b5490565b60008060008360020b12613d8d578260020b613d95565b8260020b6000035b9050620d89e8811115613dd3576040805162461bcd60e51b81526020600482015260016024820152601560fa1b604482015290519081900360640190fd5b600060018216613de757600160801b613df9565b6ffffcb933bd6fad37aa2d162d1a5940015b70ffffffffffffffffffffffffffffffffff1690506002821615613e2d576ffff97272373d413259a46990580e213a0260801c5b6004821615613e4c576ffff2e50f5f656932ef12357cf3c7fdcc0260801c5b6008821615613e6b576fffe5caca7e10e4e61c3624eaa0941cd00260801c5b6010821615613e8a576fffcb9843d60f6159c9db58835c9266440260801c5b6020821615613ea9576fff973b41fa98c081472e6896dfb254c00260801c5b6040821615613ec8576fff2ea16466c96a3843ec78b326b528610260801c5b6080821615613ee7576ffe5dee046a99a2a811c461f1969c30530260801c5b610100821615613f07576ffcbe86c7900a88aedcffc83b479aa3a40260801c5b610200821615613f27576ff987a7253ac413176f2b074cf7815e540260801c5b610400821615613f47576ff3392b0822b70005940c7a398e4b70f30260801c5b610800821615613f67576fe7159475a2c29b7443b29c7fa6e889d90260801c5b611000821615613f87576fd097f3bdfd2022b8845ad8f792aa58250260801c5b612000821615613fa7576fa9f746462d870fdf8a65dc1f90e061e50260801c5b614000821615613fc7576f70d869a156d2a1b890bb3df62baf32f70260801c5b618000821615613fe7576f31be135f97d08fd981231505542fcfa60260801c5b62010000821615614008576f09aa508b5b7a84e1c677de54f3e99bc90260801c5b62020000821615614028576e5d6af8dedb81196699c329225ee6040260801c5b62040000821615614047576d2216e584f5fa1ea926041bedfe980260801c5b62080000821615614064576b048a170391f7dc42444e8fa20260801c5b60008460020b131561407f57806000198161407b57fe5b0490505b640100000000810615614093576001614096565b60005b60ff16602082901c0192505050919050565b6000836001600160a01b0316856001600160a01b031611156140c8579293925b846001600160a01b0316866001600160a01b0316116140f3576140ec85858561461f565b9050614163565b836001600160a01b0316866001600160a01b0316101561415557600061411a87868661461f565b90506000614129878986614682565b9050806001600160801b0316826001600160801b03161061414a578061414c565b815b92505050614163565b614160858584614682565b90505b95945050505050565b600061139683836146bf565b60006113968383614785565b6000610fef84846001600160a01b0385166147cf565b815460009082106141dc5760405162461bcd60e51b81526004018080602001828103825260228152602001806157786022913960400191505060405180910390fd5b8260000182815481106141eb57fe5b9060005260206000200154905092915050565b60006113968383614866565b81546000908190831061424e5760405162461bcd60e51b81526004018080602001828103825260228152602001806158f46022913960400191505060405180910390fd5b600084600001848154811061425f57fe5b906000526020600020906002020190508060000154816001015492509250509250929050565b600082815260018401602052604081205482816143205760405162461bcd60e51b81526004018080602001828103825283818151815260200191508051906020019080838360005b838110156142e55781810151838201526020016142cd565b50505050905090810190601f1680156143125780820380516001836020036101000a031916815260200191505b509250505060405180910390fd5b5084600001600182038154811061433357fe5b9060005260206000209060020201600101549150509392505050565b6000614363846001600160a01b0316613804565b61436f57506001610fef565b600061447d630a85bd0160e11b614384612f49565b88878760405160240180856001600160a01b03168152602001846001600160a01b0316815260200183815260200180602001828103825283818151815260200191508051906020019080838360005b838110156143eb5781810151838201526020016143d3565b50505050905090810190601f1680156144185780820380516001836020036101000a031916815260200191505b5095505050505050604051602081830303815290604052906001600160e01b0319166020820180516001600160e01b03838183161783525050505060405180606001604052806032815260200161579a603291396001600160a01b038816919061493a565b9050600081806020019051602081101561449657600080fd5b50516001600160e01b031916630a85bd0160e11b1492505050949350505050565b604080516001600160a01b0385811660248301528481166044830152606480830185905283518084039091018152608490920183526020820180516001600160e01b03166323b872dd60e01b178152925182516000948594938a169392918291908083835b6020831061453b5780518252601f19909201916020918201910161451c565b6001836020036101000a0380198251168184511680821785525050505050509050019150506000604051808303816000865af19150503d806000811461459d576040519150601f19603f3d011682016040523d82523d6000602084013e6145a2565b606091505b50915091508180156145d05750805115806145d057508080602001905160208110156145cd57600080fd5b50515b61256c576040805162461bcd60e51b815260206004820152600360248201526229aa2360e91b604482015290519081900360640190fd5b60009081526001919091016020526040902054151590565b6000826001600160a01b0316846001600160a01b0316111561463f579192915b6000614662856001600160a01b0316856001600160a01b0316600160601b613197565b905061416361467d84838888036001600160a01b0316613197565b614949565b6000826001600160a01b0316846001600160a01b031611156146a2579192915b610fef61467d83600160601b8787036001600160a01b0316613197565b6000818152600183016020526040812054801561477b57835460001980830191908101906000908790839081106146f257fe5b906000526020600020015490508087600001848154811061470f57fe5b60009182526020808320909101929092558281526001898101909252604090209084019055865487908061473f57fe5b60019003818190600052602060002001600090559055866001016000878152602001908152602001600020600090556001945050505050611399565b6000915050611399565b60006147918383614607565b6147c757508154600181810184556000848152602080822090930184905584548482528286019093526040902091909155611399565b506000611399565b600082815260018401602052604081205480614834575050604080518082018252838152602080820184815286546001818101895560008981528481209551600290930290950191825591519082015586548684528188019092529290912055613190565b8285600001600183038154811061484757fe5b9060005260206000209060020201600101819055506000915050613190565b6000818152600183016020526040812054801561477b578354600019808301919081019060009087908390811061489957fe5b90600052602060002090600202019050808760000184815481106148b957fe5b6000918252602080832084546002909302019182556001938401549184019190915583548252898301905260409020908401905586548790806148f857fe5b60008281526020808220600260001990940193840201828155600190810183905592909355888152898201909252604082209190915594506113999350505050565b6060610fef848460008561495f565b806001600160801b03811681146106e557600080fd5b6060824710156149a05760405162461bcd60e51b81526004018080602001828103825260268152602001806158176026913960400191505060405180910390fd5b6149a985613804565b6149fa576040805162461bcd60e51b815260206004820152601d60248201527f416464726573733a2063616c6c20746f206e6f6e2d636f6e7472616374000000604482015290519081900360640190fd5b600080866001600160a01b031685876040518082805190602001908083835b60208310614a385780518252601f199092019160209182019101614a19565b6001836020036101000a03801982511681845116808217855250505050505090500191505060006040518083038185875af1925050503d8060008114614a9a576040519150601f19603f3d011682016040523d82523d6000602084013e614a9f565b606091505b5091509150614aaf828286614aba565b979650505050505050565b60608315614ac9575081613190565b825115614ad95782518084602001fd5b60405162461bcd60e51b81526020600482018181528451602484015284518593919283926044019190850190808383600083156142e55781810151838201526020016142cd565b50805460018160011615610100020316600290046000825580601f10614b465750614b64565b601f016020900490600052602060002090810190614b649190614b67565b50565b5b80821115614b7c5760008155600101614b68565b5090565b80356106e581615721565b805161ffff811681146106e557600080fd5b803562ffffff811681146106e557600080fd5b600060208284031215614bc1578081fd5b813561319081615721565b60008060408385031215614bde578081fd5b8235614be981615721565b91506020830135614bf981615721565b809150509250929050565b60008060008060808587031215614c19578182fd5b8435614c2481615721565b93506020850135614c3481615721565b9250614c4260408601614b9d565b91506060850135614c5281615721565b939692955090935050565b600080600060608486031215614c71578081fd5b8335614c7c81615721565b92506020840135614c8c81615721565b929592945050506040919091013590565b60008060008060808587031215614cb2578182fd5b8435614cbd81615721565b93506020850135614ccd81615721565b925060408501359150606085013567ffffffffffffffff811115614cef578182fd5b8501601f81018713614cff578182fd5b8035614d12614d0d826156d3565b6156af565b818152886020838501011115614d26578384fd5b81602084016020830137908101602001929092525092959194509250565b60008060408385031215614d56578182fd5b8235614d6181615721565b91506020830135614bf981615736565b60008060408385031215614d83578182fd5b8235614d8e81615721565b946020939093013593505050565b600080600060608486031215614db0578081fd5b8335614dbb81615721565b9250602084013591506040840135614dd281615721565b809150509250925092565b60008060008060008060c08789031215614df5578384fd5b8635614e0081615721565b955060208701359450604087013593506060870135614e1e81615768565b9598949750929560808101359460a0909101359350915050565b60008060208385031215614e4a578182fd5b823567ffffffffffffffff80821115614e61578384fd5b818501915085601f830112614e74578384fd5b813581811115614e82578485fd5b8660208083028501011115614e95578485fd5b60209290920196919550909350505050565b600060208284031215614eb8578081fd5b81356001600160e01b031981168114613190578182fd5b600060208284031215614ee0578081fd5b813561319081615744565b600060208284031215614efc578081fd5b815167ffffffffffffffff811115614f12578182fd5b8201601f81018413614f22578182fd5b8051614f30614d0d826156d3565b818152856020838501011115614f44578384fd5b6141638260208301602086016156f5565b600060808284031215614f66578081fd5b50919050565b600060a08284031215614f66578081fd5b600060c08284031215614f66578081fd5b60008183036080811215614fa0578182fd5b6040516040810167ffffffffffffffff8282108183111715614fbe57fe5b816040526060841215614fcf578485fd5b60a0830193508184108185111715614fe357fe5b508260405284359250614ff583615721565b91825260208401359161500783615721565b82606083015261501960408601614b9d565b6080830152815261502c60608501614b80565b6020820152949350505050565b60006101608284031215614f66578081fd5b60006020828403121561505c578081fd5b813561319081615753565b60008060408385031215615079578182fd5b825161508481615753565b6020840151909250614bf981615753565b600080600080600060a086880312156150ac578283fd5b85516150b781615753565b80955050602086015193506040860151925060608601516150d781615753565b60808701519092506150e881615753565b809150509295509295909350565b600080600080600080600060e0888a031215615110578485fd5b875161511b81615721565b602089015190975061512c81615744565b955061513a60408901614b8b565b945061514860608901614b8b565b935061515660808901614b8b565b925060a088015161516681615768565b60c089015190925061517781615736565b8091505092959891949750929550565b600060208284031215615198578081fd5b61139682614b9d565b6000602082840312156151b2578081fd5b5035919050565b600080604083850312156151cb578182fd5b823591506020830135614bf981615721565b600080604083850312156151ef578182fd5b505080516020909101519092909150565b60008060008060608587031215615215578182fd5b8435935060208501359250604085013567ffffffffffffffff8082111561523a578384fd5b818701915087601f83011261524d578384fd5b81358181111561525b578485fd5b88602082850101111561526c578485fd5b95989497505060200194505050565b600081518084526152938160208601602086016156f5565b601f01601f19169290920160200192915050565b60020b9052565b6001600160801b03169052565b6000828483379101908152919050565b6001600160a01b0391909116815260200190565b600060018060a01b03871682528560020b60208301528460020b60408301526001600160801b038416606083015260a06080830152614aaf60a083018461527b565b6001600160a01b03959095168552600293840b60208601529190920b60408401526001600160801b03918216606084015216608082015260a00190565b6001600160a01b039390931683526001600160801b03918216602084015216604082015260600190565b6000602080830181845280855180835260408601915060408482028701019250838701855b828110156153db57603f198886030184526153c985835161527b565b945092850192908501906001016153ad565b5092979650505050505050565b901515815260200190565b90815260200190565b6001600160a01b03929092168252602082015260400190565b600293840b81529190920b60208201526001600160801b03909116604082015260600190565b600060208252611396602083018461527b565b6020808252600c908201526b139bdd08185c1c1c9bdd995960a21b604082015260600190565b6020808252602c908201527f4552433732313a20617070726f76656420717565727920666f72206e6f6e657860408201526b34b9ba32b73a103a37b5b2b760a11b606082015260800190565b602080825260149082015273507269636520736c69707061676520636865636b60601b604082015260600190565b60208082526010908201526f125b9d985b1a59081d1bdad95b88125160821b604082015260600190565b6020808252600b908201526a139bdd0818db19585c995960aa1b604082015260600190565b815180516001600160a01b03908116835260208083015182168185015260409283015162ffffff1692840192909252920151909116606082015260800190565b6001600160801b039390931683526020830191909152604082015260600190565b9384526001600160801b039290921660208401526040830152606082015260800190565b918252602082015260400190565b6001600160601b038d1681526001600160a01b038c811660208301528b811660408301528a16606082015262ffffff89166080820152600288900b60a0820152610180810161562260c08301896152a7565b61562f60e08301886152ae565b856101008301528461012083015261564b6101408301856152ae565b6156596101608301846152ae565b9d9c50505050505050505050505050565b6000808335601e19843603018112615680578283fd5b83018035915067ffffffffffffffff82111561569a578283fd5b6020019150368190038213156137bb57600080fd5b60405181810167ffffffffffffffff811182821017156156cb57fe5b604052919050565b600067ffffffffffffffff8211156156e757fe5b50601f01601f191660200190565b60005b838110156157105781810151838201526020016156f8565b8381111561270c5750506000910152565b6001600160a01b0381168114614b6457600080fd5b8015158114614b6457600080fd5b8060020b8114614b6457600080fd5b6001600160801b0381168114614b6457600080fd5b60ff81168114614b6457600080fdfe456e756d657261626c655365743a20696e646578206f7574206f6620626f756e64734552433732313a207472616e7366657220746f206e6f6e20455243373231526563656976657220696d706c656d656e7465724552433732315065726d69743a20617070726f76616c20746f2063757272656e74206f776e65724552433732313a207472616e7366657220746f20746865207a65726f2061646472657373416464726573733a20696e73756666696369656e742062616c616e636520666f722063616c6c4552433732313a206f70657261746f7220717565727920666f72206e6f6e6578697374656e7420746f6b656e4552433732313a20617070726f76652063616c6c6572206973206e6f74206f776e6572206e6f7220617070726f76656420666f7220616c6c4552433732313a2062616c616e636520717565727920666f7220746865207a65726f20616464726573734552433732313a206f776e657220717565727920666f72206e6f6e6578697374656e7420746f6b656e456e756d657261626c654d61703a20696e646578206f7574206f6620626f756e64734552433732313a207472616e73666572206f6620746f6b656e2074686174206973206e6f74206f776e4552433732313a20617070726f76616c20746f2063757272656e74206f776e65724552433732313a207472616e736665722063616c6c6572206973206e6f74206f776e6572206e6f7220617070726f766564a2646970667358221220d1c110b26b226321730d982445530c06bf4335a8f9d6906e95f8873d1c712bf664736f6c63430007060033",
  "linkReferences": {},
  "deployedLinkReferences": {}
}